:1000000000800020BD0100006130000025300000AC
:10001000253000002530000025300000253000008C
:100020002530000025300000253000006130000040
:100030006130000025300000613000001530000004
:10004000613000006130000061300000613000006C
:10005000613000006130000061300000613000005C
:10006000613000006130000061300000613000004C
:10007000613000006130000061300000613000003C
:10008000613000006130000061300000613000002C
:10009000613000006130000061300000613000001C
:1000A000613000006130000061300000613000000C
:1000B00061300000613000006130000061300000FC
:1000C00061300000613000006130000061300000EC
:1000D00061300000613000006130000061300000DC
:1000E00061300000613000006130000061300000CC
:1000F000613000001D35000061300000153A00003D
:1001000061300000313E00006130000061300000CD
:10011000613000006130000061300000613000009B
:10012000613000005D1700006130000061300000A8
:10013000613000006130000061300000613000007B
:10014000613000006130000061300000613000006B
:10015000492D0000612D0000792D0000912D000037
:1001600061300000C92200006130000061300000F1
:10017000613000006130000061300000613000003B
:10018000613000006130000061300000613000002B
:10019000613000006130000061300000613000001B
:1001A000613000006130000061300000613000000B
:1001B00061300000613000006130000010B5674B15
:1001C0004CF220521A804DF628121A8000BF00BF50
:1001D00002F04AFF4FF01062614B1A60614A083327
:1001E0001A60614A04331A60A3F530432C3B1B6844
:1001F00013F4807F06D100225C4B1A604FF4A852A2
:10020000043B1A605A4B1B7813F0080F04D0584B6C
:100210001A7842F008021A702A22564B1A70564B6E
:10022000564A9A420DD2131D554CE41A24F0030489
:1002300004340023104653495A581A500433A34239
:10024000FAD1514B514A9A4280F08480131F504991
:10025000C91A21F003011A1D1144002243F8042F8A
:100260008B42FBD176E05A581A500433B3F5DE7F47
:10027000F9D1484B8021484A03F8011B9342FBD136
:10028000464B474A1A600A22464B1A702422A3F6AC
:10029000FF731A70A022013B1A7006331A7812F00D
:1002A000020FFBD0404B1A7812F0100FFBD13E4BDF
:1002B0001A7802F00C02082AFAD103223B4B1A707A
:1002C000402201331A7001331A7812F0200FFBD04C
:1002D000354B1A7812F0400FFBD0354A354B1A6077
:1002E000022204331A602022334B1A7006331A7824
:1002F00002F00C020C2AFAD1304A314B1A60314A12
:10030000314B1A600722043B1A6062B601F09EFE70
:10031000164B1B6813F0010F05D02C4801F0F8FCB8
:100320002B4A2C4B1A602C4B1B7813F0400F0AD031
:10033000284B1A68264B9A4205D1244801F0E8FC64
:100340000022244B1A6005F009F902F093FE02F036
:10035000F9FDFEE700231248204984E70E200540FE
:1003600030800440823F04000100002B14D0034081
:1003700002D0074000E007406490FF1F6087FF1F26
:100380006790FF1FECA10000E09CFF1F6490FF1F1F
:10039000DB9CFF1F00E400E05FE400E008ED00E00C
:1003A0000082FF1F00500640064006400440064001
:1003B000000003014480044000400640C0100500D6
:1003C00004800440FF76010014E000E06E2B8A57A1
:1003D000A5C3945A1CE0034000F007400000000051
:1003E000FFFFFFFFFFFFFFFFFFFFFFFFFFFFFFFF1D
:1003F000FFFFFFFFFFFFFFFFFFFFFFFFFFFFFFFF0D
:10040000FFFFFFFFFFFFFFFFFFFFFFFFFEFFFFFFFD
:1004100010B5054C237833B9044B13B10448AFF33E
:1004200000800123237010BD6490FF1F00000000B6
:10043000EC61000008B5064B1BB106480649AFF356
:1004400000800648036813B1054B03B1984708BD07
:1004500000000000EC6100006890FF1F6490FF1F27
:100460000000000008B501F037F90220002101F07A
:100470009DFC0320002101F099FC0420002101F0E3
:1004800095FC4FF4807001F00BFA08BDFFFFFFFFF1
:1004900070B582B04FF4005001F020F9EFF31083F3
:1004A00072B6BFF35F8FBFF34F8FBFF36F8F000440
:1004B000974A106083F31088BFF35F8FBFF34F8FAD
:1004C000BFF36F8FBFF35F8FBFF34F8FBFF36F8F9C
:1004D0004FF4005001F002F9EFF3108372B6BFF34E
:1004E0005F8FBFF34F8FBFF36F8F0004894A106097
:1004F00083F31088BFF35F8FBFF34F8FBFF36F8F0E
:10050000BFF35F8FBFF34F8FBFF36F8F032001F0F7
:100510003FFC814B1860022001F03AFC7F4B1860D1
:10052000042001F035FC7E4B186001280CBF7D4B88
:100530007D4B774A9360774A93604FF400527B4B30
:100540001A60152001F026FB794B1860162001F087
:1005500021FBA0F50070774B1860B0F5007F05DD3A
:10056000734B1B68181A744B186007E0B0F5007FD6
:1005700004DA6F4B1B6818446F4B18606E4B186899
:100580000128B8BF012040F2FF339842A8BF1846A7
:10059000694B1860FF230093012140F2FF320023D2
:1005A00002F008FD0646654B18605B4B1B68644A09
:1005B0001268934200F08F80012B40F08C80614BD9
:1005C000D86804F0EDFD604904F042FE01465F4842
:1005D00004F0F2FE044620F0004004F0C5F94AA3FE
:1005E000D3E9002304F086FCB8B1204604F0BCF93E
:1005F00004460D460022564B04F00AFA02460B460A
:100600002046294604F004FA02460B4620462946B5
:1006100004F04CF804F0BEFC0AE0204604F0A4F913
:1006200003F03EFE00224B4B04F03EF804F0B2FC17
:10063000444C00F100404FF0874104F009FE04F003
:1006400057FF2080E06804F0ABFD0446304604F01C
:10065000A7FD0146204604F0FBFD01463B4804F09F
:10066000ABFE044620F0004004F07EF926A3D3E957
:10067000002304F03FFCB8B1204604F075F90446AD
:100680000D460022324B04F0C3F902460B462046C9
:10069000294604F0BDF902460B462046294604F0DF
:1006A00005F804F077FC0AE0204604F05DF903F059
:1006B000F7FD0022274B03F0F7FF04F06BFC214C01
:1006C00000F100404FF0874104F0C2FD04F010FF3C
:1006D000608001232372104B1A68194B1A600F2097
:1006E00001F058FA1C4B1860102001F053FAA0F5E5
:1006F00000701A4B1860B0F5007F33DD164B1B6895
:10070000181A174B186035E0F168E388B5F8E43E35
:10071000F090FF1F9090FF1F0891FF1FD090FF1FC8
:10072000D490FF1FEC610000EC8100008090FF1F5F
:100730001491FF1F0491FF1FD890FF1F8890FF1F87
:100740001091FF1FDC90FF1F000020410BDED7C57A
:100750000000E03F0000F03FFC90FF1FC090FF1F33
:10076000B490FF1FB0F5007F04DA994B1B68184462
:10077000984B1860974B18680128B8BF012040F2C9
:10078000FF339842A8BF1846924B186004F00CFD46
:100790004FF07E5104F052FC8F4904F059FD8F490F
:1007A00004F00AFE8E4904F04BFC8E4B1860EFF308
:1007B000108472B6BFF35F8FBFF34F8FBFF36F8F9D
:1007C0004FF08C4104F044FD4FF0625104F040FDC5
:1007D0004FF08F4104F03CFD04F08AFE824B5860DC
:1007E00084F31088BFF35F8FBFF34F8FBFF36F8F1A
:1007F000BFF35F8FBFF34F8FBFF36F8F112001F0F7
:10080000C9F97A4B1860122001F0C4F9A0F5007004
:10081000774B1860B0F5007F05DD744B1B68181A24
:10082000744B186007E0B0F5007F04DA6F4B1B686B
:100830001844704B18606F4B18680128B8BF01202E
:1008400040F2FF339842A8BF18466A4B1860FF2356
:100850000093012140F2FF32002302F0ABFB064679
:10086000654B1860654B1B68654A1268934200F03F
:100870008F80012B40F08C80624BD86804F090FC94
:10088000614904F0E5FC0146604804F095FD04462A
:1008900020F0004004F068F84BA3D3E9002304F0F3
:1008A00029FBB8B1204604F05FF804460D4600224B
:1008B000574B04F0ADF802460B462046294604F09B
:1008C000A7F802460B462046294603F0EFFE04F047
:1008D00061FB0AE0204604F047F803F0E1FC002247
:1008E0004C4B03F0E1FE04F055FB464C00F1004098
:1008F0004FF0874104F0ACFC04F0FAFD2080E06882
:1009000004F04EFC0446304604F04AFC0146204602
:1009100004F09EFC01463D4804F04EFD044620F0E4
:10092000004004F021F828A3D3E9002304F0E2FA00
:10093000B8B1204604F018F804460D460022344BA6
:1009400004F066F802460B462046294604F060F89B
:1009500002460B462046294603F0A8FE04F01AFB87
:100960000AE0204604F000F803F09AFC0022294B2C
:1009700003F09AFE04F00EFB224C00F100404FF011
:10098000874104F065FC04F0B3FD6080012323720D
:100990001A4B1A681A4B1A60132001F0FBF81E4B11
:1009A0001860142001F0F6F8A0F500701B4B1860D9
:1009B000B0F5007F36DD184B1B68181A184B18600D
:1009C00038E000BFAFF30080F168E388B5F8E43E9B
:1009D000FC90FF1FB490FF1F295C3F4000807F44C4
:1009E0000AD7233C0C91FF1FF090FF1FB890FF1F08
:1009F0008490FF1FBC90FF1FC490FF1FD090FF1F6B
:100A00008C90FF1FA090FF1F000020410BDED7C578
:100A10000000E03F0000F03FEC90FF1FCC90FF1F74
:100A20000091FF1FB0F5007F04DA574B1B68184494
:100A3000564B1860554B18680128B8BF012040F28A
:100A4000FF339842A8BF1846504B186004F0ACFB27
:100A50004FF07E5104F0F2FA4D4904F0F9FB4D4994
:100A600004F0AAFC4C4904F0EBFA4C4B1860EFF38D
:100A7000108472B6BFF35F8FBFF34F8FBFF36F8FDA
:100A80004FF08C4104F0E4FB4FF0625104F0E0FBC6
:100A90004FF08F4104F0DCFB04F02AFD404B58601E
:100AA00084F31088BFF35F8FBFF34F8FBFF36F8F57
:100AB000BFF35F8FBFF34F8FBFF36F8F394B1B7A3D
:100AC000A3B1384A5368C3F18071128802FB01F266
:100AD00003EB1223344A934202D8324A53600DE0AA
:100AE000304B324A5A6000221A7207E02D4B5A6886
:100AF000598802FB01F1A2EB11225A60294B9A7925
:100B00002B4B1A602B4B1B7AA3B12A494B68C3F1BC
:100B10008070098801FB00F103EB112322498B420D
:100B200002D824494B600DE0224B20495960002136
:100B3000197207E01F4B5968588801FB00F0A1EBC0
:100B4000102159601B4B98791B4B18601B4B5C683C
:100B5000196821441960C1F30C419B685956104B28
:100B60005D681C682C441C60C4F30C449B681B57D4
:100B700003FB00F303EB8303172001FB023101F0B9
:100B800037F902B070BD00BFEC90FF1F0091FF1F4E
:100B9000295C3F4000807F440AD7233C9C90FF1F84
:100BA0009090FF1FDC90FF1FFFFEFF0000FFFF0083
:100BB000C890FF1FA090FF1FB090FF1FF090FF1F75
:100BC00010B40F4B59681A680A441A60C2F30C42F9
:100BD0009B6899560B4B18680B4B5C681A6822444B
:100BE0001A60C2F30C429B689B56084A126802FBCB
:100BF00003F300FB013000EB80005DF8044B70470D
:100C0000F090FF1FC890FF1F9090FF1FB090FF1F34
:100C100008B500F0EFFD08BD054B064A9360064A93
:100C200093604FF48073054AD360054AD3607047E0
:100C3000EC810000F090FF1F9090FF1FDC90FF1FE1
:100C4000A090FF1F38B50446022303740E4B1A68A8
:100C500042F000621A600C3B1A6842F000621A60AF
:100C60004FF4AA7002F076F90546002100F08AFAE6
:100C700025604FF4AA7002F06DF90546012100F0DD
:100C800081FA6560204638BD3C80044008B5012AE1
:100C90000CBF4068006800F07DF908BD08B5012A66
:100CA0000CBF4068006800F077F808BD08B501295E
:100CB0000CBF4068006800F0FBFB08BD10B5A1F157
:100CC0001003DBB2012B04D9A1F12203DBB2032B09
:100CD00017D8B2F1FF3F09D1036840685C7D427DBF
:100CE000944238BF184600F01FFC10BD1AB90068C6
:100CF00000F01AFC10BD012A0FD1406800F014FC6E
:100D000010BD192903D9406800F00EFC10BD172949
:100D100003D8006800F008FC10BD0368B3F8622037
:100D200042F00102A3F86220004810BD90EEFEFFE1
:100D300001290CBF43680368D3F8C030186800B2BB
:100D4000704700BF72B6012380F86430D0F8F020FD
:100D500000211160D0F8F4201360D0F8F020136067
:100D600062B6704708B590F86D308B4212D00229F8
:100D700007D1022380F86D30D0F8D83001221A60F4
:100D800006E029B9002380F86D30D0F8D820136030
:100D9000FFF7D8FF08BD00BF38B504460D4690F8F0
:100DA00064300BB100F03AF8012D04D8D4F8F820E3
:100DB000002313602EE0D4F8F83001221A60042DCD
:100DC00008D8D4F8FC2000231360D4F80021136065
:100DD00004231FE0082D09D8D4F8FC3001221A6042
:100DE000D4F8003100221A60082313E0102D09D82E
:100DF000D4F8FC3000221A60D4F8003101221A60C5
:100E0000102307E0D4F8FC2001231360D4F800215C
:100E10001360202384F86C3038BD00BF70B50446E1
:100E2000D0F8F0201368002BFCD1D4F8F4301B6804
:100E30002BB1B4F8623043F00203A4F8623072B60A
:100E400094F86430002B3ED0D4F820311A68D4F8DE
:100E500024311E68D4F828311D68D4F82C31186864
:100E6000D4F830311968D4F834311B6832442A443C
:100E700002440A441A44C2F34E02D4F8143142F434
:100E800000421A60D4F83C311A68D4F840311E6828
:100E9000D4F844311D68D4F848311868D4F84C317E
:100EA0001968D4F850311B6832442A4402440A4479
:100EB0001A44C2F34E02D4F8183142F400421A60C8
:100EC000002384F8643062B694F8653073B120462C
:100ED000022100F05FF82046022100F0CBF8204606
:100EE0000421FFF759FF002384F8653070BD00BF6F
:100EF00038B504460D4690F866308B4248D090F8DD
:100F000064300BB1FFF78AFF072D07D90D2D21D8CB
:100F1000A5F10803DBB2012B0BD800E00825D4F8BB
:100F20009C2000231360D4F898201360FF23A3664D
:100F30002CE0A5F10A03DBB2012B0CD8D4F89C30CD
:100F400001221A60D4F8983000221A6040F2FF3370
:100F5000A3661BE01025A5F10C03DBB2012B0BD817
:100F6000D4F89C3000221A60D4F8983001221A601C
:100F700040F6FF73A36609E0D4F89C2001231360B8
:100F8000D4F8982013604FF6FF73A36684F8665078
:100F900038BD00BF38B504460D4690F870308B421E
:100FA00066D090F864300BB1FFF738FFD4F8B0305A
:100FB00000221A6045B9D4F8B4301A60D4F88830E9
:100FC00001221A60612340E0012D09D1D4F8B43028
:100FD00000221A60D4F8883001221A60612334E0BC
:100FE000022D08D1D4F8B42000231360D4F888204F
:100FF0001360412329E0032D09D1D4F8B430012234
:101000001A60D4F8883000221A6021231DE0042DD4
:1010100009D1D4F8B43001221A60D4F88830002203
:101020001A60212311E0052D08D1D4F8B420012342
:101030001360D4F888200021116006E0B4F8623013
:1010400043F00103A4F8623038BDD4F8A420002195
:101050001160D4F8A02001211160D4F890209909E2
:101060001160D4F88C20C3F34013136084F87050DF
:1010700038BD00BF38B504460D4690F871308B423C
:1010800044D090F864300BB1FFF7C8FE5DB9D4F8D6
:10109000943001221A60D4F8B82000231360D4F8E9
:1010A000BC20136030E0012D0BD1D4F89420012333
:1010B0001360D4F8B82000211160D4F8BC2013606C
:1010C00022E0022D0BD1D4F8942001231360D4F830
:1010D000B8201360D4F8BC3000221A6014E0EB1E74
:1010E000DBB2012B0AD8D4F8942001231360D4F882
:1010F000B8201360D4F8BC20136005E0052D03D19F
:10110000D4F8943000221A6084F8715038BD00BFC2
:1011100038B50446002380F86630836680F86C306A
:10112000012580F86D5080F86E3080F86F5080F89F
:10113000703080F8713080F86550A0F8623060211E
:101140000F4A1170E12101321170D0F8AC20156006
:101150001946FFF707FE20460A21FFF7C9FE204681
:101160002021FFF719FE20462946FFF713FF2046EE
:101170002946FFF77FFF2046FFF7E4FD38BD00BF9B
:1011800000400740F8B504460023437580F872100C
:10119000CB0403F1804202F56C32426702F1047223
:1011A000520102F11C00E0671832A267A14A1A44FA
:1011B000C4F88020A04A1A44C4F8842002F10472C2
:1011C000520102F11C00C4F8880002F11800C4F8B2
:1011D000900002F11400C4F88C0002F11000C4F871
:1011E000940002F10C00C4F89C0002F10800C4F85D
:1011F0009800101DC4F8A400C4F8A0208F4A1A4417
:10120000C4F8A82002F10472520102F11000C4F8DF
:10121000AC0002F10C00C4F8B00002F10800C4F800
:10122000B400101DC4F8B800C4F8BC20844A1A44A5
:10123000C4F8C020834A1A44C4F8C420824A1A441D
:10124000C4F8C820814A1A44C4F8CC20804A1A4401
:10125000C4F8D02002F10472520102F11C00C4F85B
:10126000D40002F11400C4F8E00002F11000C4F848
:10127000E40002F10C00C4F8E80002F10800C4F830
:10128000DC00C4F8D820734A1A44C4F8EC2002F1F8
:101290000472520102F11C00C4F8F00002F11800BF
:1012A000C4F8F40002F10C00C4F8040102F10800D3
:1012B000C4F8F800C4F8FC200432C4F80021664ADF
:1012C0001A44C4F80821520102F184425C32C4F885
:1012D0000C21624A1A44C4F81021614A1A44C4F825
:1012E0001421604A1A44C4F818215F4A1A44C4F809
:1012F0001C215E4A1A44C4F820215D4A1A44C4F8ED
:1013000024215C4A1A44C4F828215B4A1A44C4F8D0
:101310002C215A4A1A44C4F83021594A1A44C4F8B4
:101320003421584A1A44C4F83821574A1A44C4F898
:101330003C21564A1A44C4F84021554A1A44C4F87C
:101340004421544A1A44C4F84821534A1A44C4F860
:101350004C21524A1A44C4F8502199BB504B04F115
:10136000160203F120011F685E689D68D868176047
:1013700056609560D060103310328B42F3D11868FC
:1013800059689B68106051609360464B1D685868AF
:101390009968DE68C4F84250C4F84600C4F84A10A0
:1013A000C4F84E601D6958699969C4F85250C4F870
:1013B0005600C4F85A10998B9B7FA4F85E1084F8ED
:1013C000603032E0384B04F1160203F120011F684F
:1013D0005E689D68D868176056609560D06010336D
:1013E00010328B42F3D1186859689B6810605160C5
:1013F00093602E4B1D6858689968DE68C4F84250A7
:10140000C4F84600C4F84A10C4F84E601D69586913
:101410009969C4F85250C4F85600C4F85A10998B10
:101420009B7FA4F85E1084F860302046FFF770FEC2
:101430002046F8BD04B0034008B003400CB00340A0
:1014400010B0034014B0034018B003401CB0034078
:1014500020B0034024B0034050B0034028B0034004
:101460002CB0034030B0034034B0034038B00340E8
:101470003CB0034040B0034044B0034048B0034098
:101480004CB0034054B0034058B003405CB003403C
:1014900060B0034064B0034068B003406CB00340E8
:1014A000BC5E00007C5E0000505E00009C5E0000A0
:1014B00010B5044690F864300BB1FFF7AFFC012380
:1014C00084F86E30A26F136094F87230012B0CBF59
:1014D0004FF080624FF00072014B1A6010BD00BFE8
:1014E00004E100E090F87230012B08D11A2901D0F4
:1014F0001F2904D1D0F8AC3000221A6003E0D0F8E4
:10150000AC3001221A60D0F8043100221A6072B6A1
:10151000436F01448A7D90F86E1002EB81121A60CD
:1015200062B60120704700BF38B504460D462B292E
:1015300007D9B0F8623043F00403A0F862301548D0
:1015400038BD90F864300BB1FFF768FCD4F8D430A4
:101550001B68003318BF01232375A3B172B6636FF4
:101560001B682360D4F884301B68E360D4F8A8308B
:101570001B682361D4F8D0301B686360D4F8EC306A
:101580001B68A36062B620462946FFF7ABFF012027
:1015900038BD00BF90EEFEFF10B5142001F0DAFC5C
:1015A0000446FFF74FFB034B1C6020460021FFF76A
:1015B0007DFB10BD9899FF1F08B50146044B1870BC
:1015C000044B18684FF0FF32FFF778FB08BD00BFEF
:1015D000C899FF1F9899FF1F074B1B785BB2B3F1A7
:1015E000FF3F08D1054B9B69132B04DC0133034AF1
:1015F00093610821D15470476487FF1F6C91FF1FCE
:1016000000B583B00F4B9B69B3F1FF3F0AD00D4A81
:10161000D15CC9B28DF80710013B93619DF807209A
:10162000D2B200E0FF22084B1A701B785BB2B3F114
:10163000FF3F03D0044B1878FFF7BEFF03B05DF8FF
:1016400004FB00BF6C91FF1F6487FF1F08B5044BAC
:101650001868044B19784FF0FF32FFF72FFB08BDD5
:101660009899FF1FC899FF1F10B5064B1C7864B2EC
:10167000054B18684FF0FF31FFF75AFB034B43F857
:10168000240010BD6487FF1F9899FF1F1891FF1F4A
:101690004FF0FF32014B9A61704700BF6C91FF1F02
:1016A00010B40A4B1A6882EA024282EA5212084CCB
:1016B00021681960074B186820604840504080EA54
:1016C000420018605DF8044B704700BF6887FF1F39
:1016D0006C87FF1F7087FF1F704700BF10B504465F
:1016E000FFF7DEFF80B204FB00F0000C10BD00BF6E
:1016F00008B5FEF7CDFEFFF76FFF08BD08B5002265
:10170000104B1A70104B186808214FF0FF32FFF78A
:10171000D5FA0E4B93F8002453F822100132D2B2BE
:1017200083F8002452B993F8022482F0010283F86E
:101730000224D3F804240132C3F80424282000F042
:1017400057FB08BDC999FF1F9899FF1F9095FF1F70
:1017500010B5044601F0ECFB204610BD08B5224B45
:101760001B78012B1CD013B1022B1CD024E01F4B83
:1017700093F8012493F800349A4222D11B4B93F83A
:10178000032493F802349A4207D11AE0174B93F8D6
:10179000032482F0010283F80324FFF731FF0BE0FA
:1017A000FFF754FF08E0FFF75FFF114B18680821AF
:1017B0004FF0FF32FFF782FA0B4B1A7801321A70A2
:1017C00008BD0B4B18684FF0FF31FFF7B1FA074B1C
:1017D00093F8012443F822000132D2B283F80124A5
:1017E000002AD3D0D9E700BFC999FF1F8891FF1FF6
:1017F0009899FF1F08B5274A92F8003492F80124FF
:101800009A422CD1234A92F8031492F8022491426E
:1018100025D10DE01F4B93F8022482F0010283F8DA
:101820000224D3F804240132C3F804241A4B1960AB
:101830001A4B93F8012493F800349A4219D1174BAC
:1018400093F8032493F802349A4221D111E0134B08
:1018500093F8032482F0010283F8032408BD0D4AA3
:1018600052F823100133DBB282F80034002BD1D0C0
:10187000DCE7FFF7A5F9094B93F8012400F50060B8
:1018800043F822000132D2B283F80124002ADED0CC
:1018900008BD00BF8891FF1F9C99FF1F9095FF1FF7
:1018A00010B504460020FFF777FE1348B0FBF4F0B4
:1018B000421E124B9A4207D800EB4000020110482A
:1018C0001049013A01F01CFB0C2000F031FA0E4CDB
:1018D000206800214FF0FF32FFF7E0F92068022175
:1018E0004FF0FF32FFF7D2F90848094940F66F324E
:1018F00001F006FB10BD00BF40420F0054555505D6
:10190000A099FF1FF11600009899FF1FB499FF1FBF
:10191000FD160000F8B5124B002483F8004483F84C
:10192000014483F8024483F803440E4B83F80044D7
:1019300083F8014483F8024483F803440A4804709E
:1019400080274773094E0A4D31462A4603F0F0FDC1
:1019500008480470477331462A4603F0E9FDF8BD94
:101960009095FF1F8891FF1FB499FF1F511700002A
:101970006087FF1FA099FF1F30B4394A39491368A7
:1019800013F0800FFBD10B6813F0800FF7D172B604
:10199000354B1B78002B5FD0344B1C6804331D681B
:1019A000043318680433196804331A6804331B6855
:1019B0002C44204401440A441A44C2F34E0242F427
:1019C00000422B4B1A602C331C6804331D6804330F
:1019D00018680433196804331A6804331B682C44EC
:1019E000204401440A441A44C2F34E0242F4004225
:1019F000204B1A6003F108131C6804331D6804337C
:101A000018680433196804331A6804331B682C44BB
:101A1000204401440A441A44C2F34E0242F40042F4
:101A2000154B1A602C331C6804331D680433186886
:101A30000433196804331A6804331B682C442044A7
:101A400001440A441A44C2F34E0242F400420B4BD2
:101A50001A600022044B1A7062B630BC704700BF97
:101A600024B0034024B00B40CB99FF1F38B0034093
:101A70002CB0034030B003402CB00B4030B00B40D2
:101A800060223A4B1A70E12201331A70384B1B78EE
:101A9000082B10D1012203F1804303F56C331A6047
:101AA000132334490B6001F5FF2101F2FC710A6038
:101AB000314A13601FE00A2B0DD139222F4B1A60D7
:101AC00013232C490B6001F5FF2101F2FC710A6020
:101AD000294A13600FE00C2B0CBF35223D22274B07
:101AE0001A60122323490B6001F5FF2101F2FC71FA
:101AF0000A60214A1360224B1B7833B10123214A2B
:101B0000136002F50022136005E000231D4A1360F4
:101B100002F5002213601C4B1B78012B06D8802392
:101B20001A4A136002F5002213601AE0042B06D84B
:101B30008423164A136002F50022136011E0082B7B
:101B400006D88523114A136002F50022136008E0CD
:101B5000102B94BF862387230C4A136002F50022C2
:101B6000136001220A4B1A70704700BF0040074003
:101B70007487FF1F0CB003400CB00B4008B003404B
:101B8000CE99FF1F20B003407587FF1F24B003408C
:101B9000CB99FF1F2DE9F8430D2813D9172802D838
:101BA0000E38C0B20EE0A0F11A03DBB2052B02D84A
:101BB0000938C0B206E0A0F12203DBB2062B73D8CD
:101BC0001838C0B23A4B1E5C3A4B1B780BB1FFF78A
:101BD000D3FE16F0800F29D172B6374C374D4FF037
:101BE000010726602F7062B672B6236813F0800F6B
:101BF00004D12B7813F0FF0F0FD1F2E7304B1868A8
:101C000000222E4B1A7062B62E4B1B781841BDE88D
:101C1000F8832B7813F0FF0FE3D062B601F0D8F908
:101C200072B6236813F0800FF3D0E7E772B606F0C0
:101C300040095FFA89F9244F244C06F03F06244DF1
:101C40004FF00108B9F1000F04D03B6823F01003F6
:101C50003B6003E03B6843F010033B60266085F87F
:101C6000008062B672B6236813F0800F04D12B781F
:101C700013F0FF0F0FD1E5E7164B18680022144B45
:101C80001A7062B60F4B1B781841BDE8F8832B78A9
:101C900013F0FF0FD6D062B601F09AF972B623683E
:101CA00013F0800FF3D0E7E70020BDE8F88300BF12
:101CB000E85E0000CB99FF1F00B00340CD99FF1FE5
:101CC00010B00340CA99FF1F0CB00B4000B00B408E
:101CD000CC99FF1F10B00B40094B1A6842F4805298
:101CE0001A60084B1B781BB18022074B1A7002E068
:101CF000C022054B1A7080F30C00044B188070470B
:101D00002C800440CE99FF1F21C00C4000C00C4025
:101D1000044B00221A6004490A60044A1060102231
:101D20001A60704714D0034004D0034000D0034031
:101D300018B1102828BF102000E00120014B1870B6
:101D4000704700BF7687FF1F21281ED80F4B53F81E
:101D5000303093F8802212F0FF0F08D019B1012221
:101D600083F880207047012283F800217047074BD9
:101D700003EBC000436821B11A6842F003021A6005
:101D800070471A6822F002021A607047005F000074
:101D9000212806D8044B53F8303093F80002C0B223
:101DA00070470020704700BF005F000021281CD84A
:101DB0000E4B03EBC0035B68012908D10B4A52F8B4
:101DC000302082F880124FF4A2721A607047074ADE
:101DD00052F83020002082F8800219B94FF4807246
:101DE0001A60704740F203121A607047005F0000EB
:101DF00010B5044628280FD15D4B1B780B2B03D858
:101E0000C3F10C03994003E00C2B84BF0C3B194138
:101E10000846FFF761FF10BD554B1B78012202FAFF
:101E200003F0002908DC20460021FFF78DFF204643
:101E30000121FFF7BBFF10BD0A46884208D82046A3
:101E40000121FFF781FF20460121FFF7AFFF10BD01
:101E5000E01EC0B2012806D84648006800FB011207
:101E600022FA03F310E0202C01D0192C06D14248AD
:101E7000006800FB022222FA03F305E03F480068F5
:101E800000FB011222FA03F3E01E1D2864D8DFE8EC
:101E900000F0474E402B63631D24636363636363F9
:101EA00063636332390F16635C6363636363635513
:101EB000334A136040F24442324B1A6010BD324A3A
:101EC000136040F24442314B1A6010BD304A136037
:101ED00040F244422F4B1A6010BD2F4A136040F26B
:101EE00044422E4B1A6010BD2D4A136040F244420A
:101EF0002C4B1A6010BD2C4A136040F244422B4B0D
:101F00001A6010BD2A4A136040F24442294B1A60FD
:101F100010BD294A136040F24442284B1A6010BD9C
:101F2000274A13604FF45172264B1A6010BD264A9F
:101F300013604FF45172254B1A6010BD244A136090
:101F40004FF45172234B1A6010BD234A13604FF4B3
:101F50005172224B1A6010BD20467F29D4BF002148
:101F60000121FFF7F1FE20460121FFF71FFF10BD01
:101F70007687FF1F0890034008800B4008800340CD
:101F80001080034004B004401880034008B00440AF
:101F9000208003400CB004402880034010B004406F
:101FA0003080034010C004403880034014C0044017
:101FB0004080034018C00440488003401CC00440D7
:101FC0001090034030900440189003403490044037
:101FD00010800B4048A0044018800B404CA00440E7
:101FE00072B60C4B1B680C4A12680C49096862B641
:101FF00011F0806F02D0322B88BF0132C3F5BB33A2
:10200000FF330749A1FB03039B094FF47A7000FBE0
:102010000230704718E000E0D099FF1F04ED00E0A7
:10202000ABAAAAAA38B50546FFF7DAFF044665B1A0
:10203000FFF7D6FF001BB0F57A7F03D3013D04D034
:1020400004F57A7400F0C4FFF2E738BD10B5254BF3
:102050004FF400021A604FF080721A604FF0007265
:102060001A604FF080621A604FF000621A60002020
:102070001D4B18604BF6FF710433196028231B4A6F
:10208000136008321360083213600832136008329C
:10209000136008321360083213600832136009229B
:1020A000134C226004F58054043420600434216011
:1020B0000434236008342360143C226004F5FE24B9
:1020C000043420600B4801600B490B6008310B6041
:1020D0000A4B1A60FFF7D4FC0420FFF7A3FF00F0BF
:1020E0006BFC10BD08E100E0048003400C8003405D
:1020F0000080034008800B400C800B4000800B40A8
:1021000030B40E4B1B7843F002020D4C04EBC204BA
:1021100060600C48007800280CBF8824C82444EA7A
:102120000141074D45F8321080F00100054A10705A
:1021300083F00103014A137030BC70473C9AFF1FC3
:102140000080FF1FB59AFF1F10B4431E032B11D848
:1021500072B60A4A52F8230050B14268074941F862
:102160002320074A32F813400188611A22F813101D
:1021700062B600E000205DF8044B70472C9AFF1F08
:10218000CC9CFF1F013803280DD872B6074B53F8BB
:1021900020302BB1002001305B68002BFBD100E028
:1021A000002062B670470020704700BF809AFF1F72
:1021B00038B572B601231B491B4C5A1812F8012C72
:1021C00012F0080F24D09A0054F832506DB9164B13
:1021D00003EBC20108304860144943F83210144B35
:1021E0001A78013A1A7062B638BD42F0010254F80A
:1021F00032506DB90C4B03EBC201083048600D49F9
:1022000043F832100A4B1A78013A1A7062B638BD98
:102210000133052BD1D162B60022054B1A7000F0B4
:102220002FFC38BD306000000080FF1F8800400098
:10223000AA9AFF1FC800400010B4431E032B37D8D2
:10224000400140F010001C4A104472B61B4AD25C98
:10225000032A09D8DFE802F019021B050830022220
:1022600016E00830042213E0154A52F823201AB968
:10227000134A42F8231003E0124A52F82320516017
:10228000104A42F8231062B612E0032200E0052251
:102290000A4CE25401F10803436000F00803002BEC
:1022A0000CBF8823C8230A8843EA0243036062B64E
:1022B0005DF8044B704700BF0080FF1FE899FF1FC7
:1022C000809AFF1F909AFF1F2DE9F84FA34CDFF86B
:1022D000E092DFF8E0A2DFF8E0B22578EDB215F089
:1022E000040F1DD09E4B1B7813F0FF0F16D09D4B93
:1022F0001B7803F0FF022BB1531EDBB2994A137017
:1023000003B900BE984B1B7803F0FF0233B1531E94
:10231000DBB2954A13700BB900F0F2FC0423237072
:1023200015F0080F00F0DC8299F80030DBB21D09CF
:1023300040F01D828D4D9E0805EBC6035A6855F886
:102340003630C3F38303013B0C2B00F20C82DFE831
:1023500013F0C701C7010A020A020A020A020A02AE
:102360000A02E4010A020A020A020D008049136807
:102370000B6052684A607F4A45F8362000227E4949
:102380000A607A490A618A6101217C4A11709BB214
:1023900040F28162934218D8B3F5D06F2ED2B3F5D4
:1023A000817F00F01E8106D8802B00F0C980822B2F
:1023B00000F0CC8062E140F20232934200F02681CC
:1023C000B3F5A06F00F05E8158E142F22102934222
:1023D00000F0828107D8B3F5086F00F0AB80B3F549
:1023E000106F11D04AE142F22122934200F0418164
:1023F00042F22132934200F045813FE1604B5D683B
:10240000002D40F0188130E1594B9A78544B1A70E6
:10241000564D05F180062B6A13F0800F03D0686AD1
:10242000083800F02DFB0835B542F4D1DFF88C8177
:1024300000263746534AB05828B1456800F020FBC3
:102440000DB12846F9E700234E4973504E4AB35068
:102450004E4BF05828B1456800F012FB0DB12846EC
:10246000F9E7002349497350494AB35028F8023F1D
:10247000484BFB5C023B032B0AD8DFE803F0020663
:1024800002060022434BDA5502E00122414BDA55A5
:1024900001370436102ECDD100223F4B1A70012592
:1024A0003E4EDFF81C81314F05EB080313F8013C69
:1024B00006F8043B13F0080F2DD000F0C1FA48B124
:1024C000A90007EB451200F108035360344A47F8AE
:1024D000312007E0AB00002247F833202E4B1A785A
:1024E00001321A7000F0ACFA58B1AB0043F00103AE
:1024F00007EBC30100F108024A601E4A47F8332087
:1025000009E0AB0043F00103002247F83320224BDF
:102510001A7801321A70AA0042F00201002347F82B
:10252000313042F0030247F8323001351D4B9E42F4
:10253000BAD116E20A4B1B781B4D2B700127A6E07F
:10254000194D00232B706B700227A0E0084B9B886D
:10255000042B37D90F22154B1A70BDE0802007409D
:10256000B49AFF1F3D9AFF1FB69AFF1F0080FF1FFE
:10257000A09AFF1FC8004000D499FF1FB59AFF1F03
:10258000346000002C9AFF1FD899FF1F809AFF1F0C
:10259000909AFF1FE899FF1FAA9AFF1FC4200740C7
:1025A00088004000D4200740AC9AFF1FC02007409D
:1025B000902007409420074098200740CA9CFF1FA6
:1025C000306000009E4A0021117051709D4A12F83F
:1025D000233013F0020F58D0994D01232B7002279E
:1025E00055E0994B9B8803F07F02042A02DC964A4F
:1025F00052881AB10F22934B1A706DE0914A12F86B
:10260000231021F0020102F82310AAE18E4B9B88CF
:1026100003F07F02042A02DC8B4A52881AB10F228F
:10262000884B1A7058E0874A12F8231041F00201D3
:1026300002F8231095E1844B5E889F88834BA3F1B9
:102640000C02114633F80C0CB04209D133F80A0CD5
:10265000B84205D1360A032E0CBF2F78178916E031
:102660000D690C330C32002DEBD10F22754B1A7013
:1026700032E0754B9A78764B1A7072E10F22714BEB
:102680001A7029E000273D4601E002276C4D6E4B91
:10269000DB889F4228BF1F46402F34BF3E4640265E
:1026A00028463146FFF72CFD3544BF1B03D13F2E92
:1026B00000F25C8110E0402F34BF3E4640262846A1
:1026C0003146FFF71DFD3544BF1B01D13F2E03D915
:1026D000604B1D60604B1F8001238AF8003042E090
:1026E000594B198842F22103994212D15B4BD81DF4
:1026F00012F8011B03F8011F8342F9D1584B1B68E4
:10270000862B02D10F22574B1A7000200146FFF78B
:10271000F7FC554B45F8363025E04E4B1E68BEB1F0
:102720004D4FB7F80080B8F1400F34BF4546402503
:1027300030462946FFF7E4FCC5EB08039BB23B801B
:102740000BB9402D01D1354400E00025414B1D60FF
:102750003D4B1B88B3F5A06F05D13B4B00225A704F
:102760009B788BF8003001238AF80030B5E03F4EAB
:102770009F0806EBC708D8F80420A2F10800013D25
:10278000EDB213F0080F47D000F07AF9384B53F848
:1027900025304BB35A68364941F8252003F1080229
:1027A000C8F80420334A525D032A12D8DFE802F049
:1027B00002060A0E03212F4A51550AE002212D4A32
:1027C000515506E005212B4A515502E00421294AC2
:1027D000515518F0080F0CBF8822C8221B8842EA06
:1027E000034346F8373078E0224B5B5D032B0BD870
:1027F000DFE803F07373020600221E4B5A556CE0AB
:1028000001221C4B5A5568E018F0080F0CBF022239
:102810000322184B5A5560E056F837301B0C22F84B
:10282000083C002B51D0002322F8063C42F8043C1F
:10283000114B53F825300BBB0F4B43F8250021E01B
:10284000AC9AFF1FC0200740A09AFF1F4060000005
:10285000C49AFF1FD499FF1FA89AFF1FD39CFF1F84
:10286000D49CFF1F3D9AFF1FC80040000080FF1F3F
:10287000809AFF1FE899FF1F2C9AFF1F3F4B53F8C8
:10288000253058603D4B43F825003D4B33F815107B
:1028900032F8082C0A4423F8152000F0D1F860B172
:1028A00000F10803C8F8043018F0080F354B364A19
:1028B00008BF134646F837300FE0002346F837309C
:1028C000324B1A7801321A7007E018F0080F2D4BBE
:1028D0002D4A08BF134646F8373008232370FCE41E
:1028E00015F0010F22D02A4902230B700022294B38
:1028F0001A70294B24481860284C5C60986028485E
:10290000D8601A619A610D20264B1870FF23264863
:1029100003700838037018300270244A13709F2225
:10292000234B1A7001230B70BDE8F88F15F0800F50
:1029300005D00D221B4B1A708022403B1A7015F0F7
:10294000020F06D0184B1A78D2B21A700222083B36
:102950001A7015F0100F0ED01022164B1A70BDE829
:10296000F88F00200146FFF7CBFBB5E62846002193
:10297000FFF7C6FBB0E6BDE8F88F00BFD899FF1F90
:10298000CC9CFF1FC800400088004000AA9AFF1F8F
:10299000942007403C9AFF1F0080FF1FEC99FF1F07
:1029A000409AFF1FC0200740882007408C20074026
:1029B000842007408020074008B501F099FA0023E1
:1029C0001B491A465A50C81842600833882BF9D15F
:1029D000184B1A6842F480221A60154BC3F3072182
:1029E000154A1170C3F30741143211701B0E0432E3
:1029F0001370FF23343A137008321370783A13704F
:102A000001238432137000216C3211707C3A1370F0
:102A100070220A4B1A704FF40072A3F241331A600D
:102A2000102203F1C04303F5C8231A7008BD00BF8C
:102A30000080FF1F348004409C20074049E400E0F0
:102A400072B60D4B1A68B2FA82F30B2B02D962B63A
:102A5000002070474FF00041D94022EA01020649A8
:102A60000A6062B6054903EBC303DB00C818002205
:102A7000CA504260704700BF7887FF1F0084FF1F65
:102A800008B50F4BC31A0F4AA2FB03131B090B2BEC
:102A900014D80D4A12783AB10C4A127812F0FF0F8E
:102AA00002D0FFF785FB08BD72B6094A4FF000411E
:102AB00021FA03F311681943116062B608BD00BF23
:102AC0000084FF1F398EE338AA9AFF1FB49AFF1FB4
:102AD0007887FF1F10B5134B1B6853B9124B1B7837
:102AE00013F0FF0F18D00320FFF72EFB0D4B1860DB
:102AF000A8B10C4B186843885A1C03441C7A0388FD
:102B00009A4206D3FFF7BCFF0022064B1A6020460C
:102B100010BD4280204610BD4FF0FF3010BD4FF079
:102B2000FF3010BDC09AFF1FB49AFF1F08B50D4BB0
:102B30001B6883B90C4B1B7813F0FF0F08D00320E0
:102B4000FFF702FB074B186028B94FF0FF3008BDB4
:102B50004FF0FF3008BD034B1B685A881344187AA6
:102B600008BD00BFC09AFF1FB49AFF1F044B98888E
:102B7000044B1B681BB11A885B88D31A1844704732
:102B8000CC9CFF1FC09AFF1F2DE9F047044601228D
:102B9000374B1A700E46002964D0DFF8E080DFF86A
:102BA000E0909A46334FD8F8003083BB99F8003054
:102BB00013F0FF0F06D100222D4B1A704FF0FF309B
:102BC000BDE8F0874AF2F9250420FFF7DBFA072871
:102BD0000AD801238AF80030FFF732FFC8F8000056
:102BE000A8B900238AF80030013D01D03B7833B109
:102BF0000122204B1A704FF0FF30BDE8F08700F043
:102C0000E7F999F8003013F0FF0FDDD1D3E7002387
:102C10003B70D8F800104A88C2F14005AE4238BF78
:102C2000354602F108030B442A444A80761B3DB125
:102C3000254414F8012B03F8012BAC42F9D100E034
:102C400025464B883F2B07D940230B800420FFF7F4
:102C5000F3FA0023C8F800300522074B1A700EB1B2
:102C60002C46A0E70020024B1870BDE8F08700BF9B
:102C7000B79AFF1FBC9AFF1FB69AFF1FB89AFF1F93
:102C8000B49AFF1F00B583B002AB03F8010D1846DC
:102C90000121FFF779FF03B05DF804FB10B5144B79
:102CA0001B7813F0FF0F21D00122124B1A70124B28
:102CB000196851B10024114B1C704B880B80042003
:102CC000FFF7BAFA0C4B1C600DE0FFF7B9FE0146A6
:102CD00030B10022094B1A700420FFF7ADFA02E070
:102CE0000122064B1A700022024B1A7010BD00BF61
:102CF000B49AFF1FB79AFF1FB89AFF1FB69AFF1F1B
:102D000008B50E4B1B7813F0FF0F16D10C4B19684A
:102D100041B14B880B800420FFF78EFA0022084B4C
:102D20001A6008BDFFF78CFE014618B10420FFF7BA
:102D300083FA08BD0122034B1A7008BDB79AFF1F22
:102D4000B89AFF1FB69AFF1F08B50122024B1A60FE
:102D5000024B1B68984708BD0C710340D09AFF1FB7
:102D600008B50122024B1A60024B5B68984708BD08
:102D70001C710340D09AFF1F08B50122024B1A6054
:102D8000024B9B68984708BD2C710340D09AFF1FE7
:102D900008B50122024B1A60024BDB68984708BD58
:102DA0003C710340D09AFF1F054B1A6842F40002A1
:102DB0001A600022034B1A600122034B1A707047FD
:102DC0003C80044000700340CC9AFF1F0122064B58
:102DD0001A6003F588333C331A6822F400021A6043
:102DE0000022024B1A70704700700340CC9AFF1FFC
:102DF00010B442781401164B23444360154B23440E
:102E000083600369144C44F82230836800221A60FE
:102E100043681960836803221A6043784433DBB245
:102E2000037303F1604303F56443427B1A70027B32
:102E300053119B0003F1604303F5614302F01F024D
:102E4000012101FA02F21A605DF8044B704700BFDD
:102E50000071034008710340D09AFF1F70B504460B
:102E60000D46134B1B780BB9FFF79EFF114B1B78D8
:102E70008BB1104B5B7843B10E4B9B7843B10D4B3C
:102E8000DB789BB903231E4607E001231E4604E0BE
:102E900002231E4601E00026334663702046294681
:102EA000FFF7A6FF0120034B985570BD002070BDB1
:102EB000CC9AFF1FC89AFF1F10B5836800221A60C2
:102EC000037B5C1103F01F03012101FA03F30A499C
:102ED00041F82430094B41785A541B7853B9074BB9
:102EE0005B783BB9054B9B7823B9044BDB780BB976
:102EF000FFF76CFF10BD00BF80E100E0C89AFF1F24
:102F000070B504460E46154603781BB1FFF7D4FF93
:102F100000232370266120462946FFF79FFF10B14A
:102F20000123237001E000232370207870BD00BFCF
:102F300010B5044603780BB1FFF7BEFF00232370E2
:102F400010BD00BF08B5FDF78DFAFDF761FE00F07A
:102F50003FF8FAE708B502F029FB08BD08B5FFF70E
:102F600005FE08BD08B5FFF7B5FD08BD08B5FFF7BC
:102F7000DDFD08BD08B5FFF791FE08BD08B50846A0
:102F8000FFF780FE08BD00BF08B508461146FFF7F1
:102F9000FBFD08BD704700BF044B00221A714FF4BF
:102FA0007A7199601A73024A1A607047E09AFF1F9B
:102FB0001860000010B4401A019CE41A04FB00F4ED
:102FC000521A94FBF2F018445DF8044B704700BFAE
:102FD00008B50F4B1B78CBB901220D4B1A70FFF7C8
:102FE000C5FD08B1FFF7D6FF00F034FA08B101F0D3
:102FF00039F800F0ABFC08B101F0BAF800F0C8FEF7
:1030000008B101F03BF90022014B1A7008BD00BF66
:10301000F09AFF1F024B1A6801321A60704700BF16
:10302000D099FF1F08B50D4C236813F4802F01D0F1
:10303000FFF74AF9236813F4806F01D000F06EFAAD
:10304000236813F4006F01D000F0E4FC236813F44C
:10305000805FE9D000F0ECFEE6E700BF348004407A
:1030600008B5FFF7DFFF00BF1022014B1A80704741
:1030700000200540704700BF024A136818441060E2
:10308000184670477C87FF1FEFF31383ABB9EFF34C
:103090001083ABB9EFF3058323B10F2B05D9094A90
:1030A000985C03E04FF4807000E00020EFF31183A0
:1030B0003BB1834238BF184670474FF0FF3070472E
:1030C00000207047F0E300E003782BB100230133C8
:1030D000C25C002AFBD100E000231846704700BF05
:1030E00030B40023B0FBF2F402FB14041D46092C9B
:1030F00094BF30343734E4B2CC54B0FBF2F008B1B2
:103100000133EFE70D4400226A70934207DD885CCB
:10311000CC5C8C54C8540132013B9A42F7DB084620
:1031200030BC7047194B1A6842F480621A60002361
:10313000174A1370174A1370174A1370174A1370FF
:10314000174A137040F21332164B1A604FF4517243
:1031500004331A60C0F34432134B1A70C0F34712A1
:103160005A7000F01F00987204229A700221D974DC
:103170005A7588221A743C22DA7040220B4B1A705E
:103180004FF40052A3F229331A6070473480044090
:10319000749BFF1FF29AFF1F7C9BFF1F759BFF1FF5
:1031A000F19AFF1F40A0044000A006402DE400E07B
:1031B000164B9B7803F0EC0300F00302134310F06E
:1031C000040F18BF43F01003104A937000F00F0370
:1031D000042B04D11346927942F040029A710B4BB2
:1031E0005A7902F0EF0210F0100F18BF42F01002EF
:1031F000064B5A719B7903F0EF0310F0200F18BFB4
:1032000043F01003014A9371704700BF00A00640CD
:1032100010B5114B1B6813F4806F1CD00F4B1B783B
:1032200013F0FF0F06D00D4CFFF7D2FE237813F0FA
:10323000FF0FF9D14FF40052094B1A600023094ADD
:10324000D37040F2031208490A6004310A60074A49
:103250001370074A137010BD34800440F19AFF1FA9
:1032600084E100E000A0064040A00440749BFF1FE2
:10327000F29AFF1F10B50446094A137813F0FF0FA6
:10328000FBD120460121FEF791FD20460021FEF7EB
:103290005BFD044B53F83420034B1A6010BD00BF94
:1032A000F19AFF1F005F0000789BFF1F2DE9F0419E
:1032B00007461F4B1B6813F4806F37D01D4B1B68EC
:1032C0000BB101221A701C4B1C780134402C28BF12
:1032D00000241A4D1A4EDFF86C8017E0FFF7D4FE79
:1032E00040280FDC337913F0800F0FD02B78013397
:1032F000402B28BF002318F80320D2B2F271DBB2B2
:103300002B7003E0FF2801DDFFF762FE2B78DBB2B4
:103310009C42E3D0FFB20B4B1F5501220A4B1A709F
:10332000E4B2054B1C70BC22054BDA70BDE8F0819D
:1033300034800440789BFF1F7C9BFF1F759BFF1F01
:1033400000A00640F49AFF1FF19AFF1F2DE9F84FE5
:103350000746284B1B6813F4806F49D0264B1B6827
:103360000BB101221A7007EB010B5F453DD2DFF86C
:103370009890224EDFF88C80DFF890A099F80040FA
:103380000134402C28BF00243578EDB2A54220D16D
:10339000BC2388F80330FFF777FE402811DC98F84B
:1033A000043013F0800F10D033780133402B28BF46
:1033B00000231AF80320D2B288F80720DBB233705A
:1033C00003E0FF2801DDFFF703FE3378DBB29D4207
:1033D000E1D017F8013B0AF804300122084B1A70BB
:1033E000E4B289F800405F45C8D1BC22054BDA70D1
:1033F000BDE8F88F34800440789BFF1F759BFF1F4A
:10340000F19AFF1F00A006407C9BFF1FF49AFF1F4C
:1034100010B5064B1B7813F0FF0F06D0034CFFF7D7
:10342000D7FD237813F0FF0FF9D110BDF19AFF1FDC
:10343000064B1B78DBB2064A1278D2B293422CBFFD
:103440003F3202F1FF32D01A704700BF7C9BFF1F52
:10345000759BFF1F054B1878C0B2054B1B78DBB27C
:10346000984238BF4030C01A704700BF749BFF1F9E
:10347000F29AFF1F0A4B1A78D2B20A4B1B78DBB2C2
:103480009A4209D00133402B28BF0023064AD05C62
:10349000DBB2044A137070474FF0FF30704700BF33
:1034A000749BFF1FF29AFF1F349BFF1F094B1A7872
:1034B000D2B2094B1B78DBB29A4207D00133402BC2
:1034C00028BF0023054AD05CC0B270474FF0FF30E0
:1034D000704700BF749BFF1FF29AFF1F349BFF1FB2
:1034E0000A4B1B6813F4806F0FD0094BDA7802F097
:1034F000CB02DA7040225A74DA7842F03402DA7081
:10350000044B1A78D2B2044B1A70704734800440CE
:1035100000A00640F29AFF1F749BFF1F70B4364B49
:103520001B7913F0300F25D072B6334B9B7D03F01F
:10353000FF022BB9304BDA7940225A7462B619E097
:1035400062B62E4B1978C9B22D4B1D78EDB22A4CBC
:103550002C4EE379D8B24B1C402B28BF0023AB4242
:103560001CBFF0541946531E13F0FF02F1D1C9B22B
:10357000224B1970204BDA78D2B212F0800F27D08C
:103580001B7913F0800F23D01F4B1C78E4B21F4B24
:103590001B78DBB29C4210D017491D4D01E0A342BD
:1035A0000BD00133402B28BF00230879E85CC0B260
:1035B000C871087DC0B20728F1D9DBB213490B707E
:1035C0000D4B1B7913F0800F02D07C210A4BD97070
:1035D00012F0400F0ED0084B1B7913F0400F09D0AA
:1035E00000220C4B1A700C4B1B6803B11A703C2262
:1035F000014BDA7070BC704700A00640749BFF1F3F
:10360000F29AFF1F349BFF1F7C9BFF1F759BFF1FC0
:10361000F49AFF1FF19AFF1F789BFF1F194B1A683E
:1036200042F400621A600023174A1370174A13709D
:10363000174A1370174A1370174A137040F2133267
:10364000164B1A604FF4517204331A60C0F34432BF
:10365000134B1A70C0F347125A7000F01F00987293
:1036600004229A700221D9745A7588221A743C2255
:10367000DA7040220B4B1A704FF40042A3F22B3346
:103680001A60704734800440E89BFF1F7E9BFF1F39
:10369000F09BFF1FE99BFF1F7D9BFF1F0CB00440A9
:1036A00000B006402FE400E0164B9B7803F0EC03DB
:1036B00000F00302134310F0040F18BF43F010038F
:1036C000104A937000F00F03042B04D11346927933
:1036D00042F040029A710B4B5A7902F0EF0210F05F
:1036E000100F18BF42F01002064B5A719B7903F07D
:1036F000EF0310F0200F18BF43F01003014A93713D
:10370000704700BF00B0064010B5114B1B6813F4A2
:10371000006F1CD00F4B1B7813F0FF0F06D00D4C21
:10372000FFF756FC237813F0FF0FF9D14FF4004256
:10373000094B1A600023094AD37040F2031208496A
:103740000A6004310A60074A1370074A137010BDFB
:10375000348004407D9BFF1F84E100E000B0064000
:103760000CB00440E89BFF1F7E9BFF1F10B5044672
:10377000094A137813F0FF0FFBD120460121FEF711
:1037800015FB20460021FEF7DFFA044B53F83420E6
:10379000034B1A6010BD00BF7D9BFF1F005F000040
:1037A000EC9BFF1F2DE9F04107461F4B1B6813F4EC
:1037B000006F37D01D4B1B680BB101221A701C4BD8
:1037C0001C780134282C28BF00241A4D1A4EDFF82B
:1037D0006C8017E0FFF758FC40280FDC337913F0BA
:1037E000800F0FD02B780133282B28BF002318F827
:1037F0000320D2B2F271DBB22B7003E0FF2801DDAF
:10380000FFF7E6FB2B78DBB29C42E3D0FFB20B4B19
:103810001F5501220A4B1A70E4B2054B1C70BC22E2
:10382000054BDA70BDE8F08134800440EC9BFF1F4B
:10383000F09BFF1FE99BFF1F00B00640809BFF1F0E
:103840007D9BFF1F2DE9F84F0746284B1B6813F49B
:10385000006F49D0264B1B680BB101221A7007EB91
:10386000010B5F453DD2DFF89890224EDFF88C8047
:10387000DFF890A099F800400134282C28BF0024DC
:103880003578EDB2A54220D1BC2388F80330FFF78C
:10389000FBFB402811DC98F8043013F0800F10D0A7
:1038A00033780133282B28BF00231AF80320D2B223
:1038B00088F80720DBB2337003E0FF2801DDFFF753
:1038C00087FB3378DBB29D42E1D017F8013B0AF861
:1038D00004300122084B1A70E4B289F800405F45B9
:1038E000C8D1BC22054BDA70BDE8F88F34800440A3
:1038F000EC9BFF1FE99BFF1F7D9BFF1F00B0064055
:10390000F09BFF1F809BFF1F10B5064B1B7813F029
:10391000FF0F06D0034CFFF75BFB237813F0FF0F7C
:10392000F9D110BD7D9BFF1F064B1B78DBB2064A09
:103930001278D2B293422CBF273202F1FF32D01A52
:10394000704700BFF09BFF1FE99BFF1F054B1878D6
:10395000C0B2054B1B78DBB2984238BF4030C01A6A
:10396000704700BFE89BFF1F7E9BFF1F0A4B1A7822
:10397000D2B20A4B1B78DBB29A4209D00133402BFA
:1039800028BF0023064AD05CDBB2044A137070479C
:103990004FF0FF30704700BFE89BFF1F7E9BFF1F6B
:1039A000A89BFF1F094B1A78D2B2094B1B78DBB2D8
:1039B0009A4207D00133402B28BF0023054AD05C30
:1039C000C0B270474FF0FF30704700BFE89BFF1F49
:1039D0007E9BFF1FA89BFF1F0A4B1B6813F4006F01
:1039E0000FD0094BDA7802F0CB02DA7040225A7419
:1039F000DA7842F03402DA70044B1A78D2B2044B0F
:103A00001A7070473480044000B006407E9BFF1F50
:103A1000E89BFF1F70B4364B1B7913F0300F25D095
:103A200072B6334B9B7D03F0FF022BB9304BDA7932
:103A300040225A7462B619E062B62E4B1978C9B2A8
:103A40002D4B1D78EDB22A4C2C4EE379D8B24B1C8D
:103A5000402B28BF0023AB421CBFF0541946531E15
:103A600013F0FF02F1D1C9B2224B1970204BDA7862
:103A7000D2B212F0800F27D01B7913F0800F23D021
:103A80001F4B1C78E4B21F4B1B78DBB29C4210D05A
:103A900017491D4D01E0A3420BD00133282B28BF4D
:103AA00000230879E85CC0B2C871087DC0B207285D
:103AB000F1D9DBB213490B700D4B1B7913F0800F5A
:103AC00002D07C210A4BD97012F0400F0ED0084B67
:103AD0001B7913F0400F09D000220C4B1A700C4BCD
:103AE0001B6803B11A703C22014BDA7070BC70473E
:103AF00000B00640E89BFF1F7E9BFF1FA89BFF1F97
:103B0000F09BFF1FE99BFF1F809BFF1F7D9BFF1FFB
:103B1000EC9BFF1F174B1A6842F480521A60002377
:103B2000154A1370154A1370154A1370154A13700D
:103B3000154A137040F21331144A11604FF4517159
:103B400004321160C0F34431114A1170C0F34711BF
:103B5000517000F01F009072937013742C23D37077
:103B600040220C4B1A704FF40032A3F22D331A602E
:103B7000704700BF348004405C9CFF1FF29BFF1F16
:103B8000649CFF1F5D9CFF1FF19BFF1F08C004404A
:103B900000C0064031E400E0164B9B7803F0EC03D4
:103BA00000F00302134310F0040F18BF43F010039A
:103BB000104A937000F00F03042B04D1134692793E
:103BC00042F040029A710B4B5A7902F0EF0210F06A
:103BD000100F18BF42F01002064B5A719B7903F088
:103BE000EF0310F0200F18BF43F01003014A937148
:103BF000704700BF00C0064010B5114B1B6813F49E
:103C0000805F1CD00F4B1B7813F0FF0F06D00D4CBC
:103C1000FFF7DEF9237813F0FF0FF9D14FF40032EC
:103C2000094B1A600023094AD37040F20312084975
:103C30000A6004310A60074A1370074A137010BD06
:103C400034800440F19BFF1F84E100E000C0064087
:103C500008C004405C9CFF1FF29BFF1F10B5044688
:103C6000094A137813F0FF0FFBD120460121FEF71C
:103C70009DF820460021FEF767F8044B53F83420E6
:103C8000034B1A6010BD00BFF19BFF1F005F0000D7
:103C9000609CFF1F2DE9F04107461F4B1B6813F482
:103CA000805F37D01D4B1B680BB101221A701C4B73
:103CB0001C780134282C28BF00241A4D1A4EDFF836
:103CC0006C8017E0FFF7E0F940280FDC337913F040
:103CD000800F0FD02B780133282B28BF002318F832
:103CE0000320D2B2F271DBB22B7003E0FF2801DDBA
:103CF000FFF76EF92B78DBB29C42E3D0FFB20B4B9F
:103D00001F5501220A4B1A70E4B2054B1C70AC22FD
:103D1000054BDA70BDE8F08134800440609CFF1FE1
:103D2000649CFF1F5D9CFF1F00C00640F49BFF1FAB
:103D3000F19BFF1F38B505460C4629B115F8010B5C
:103D4000FFF7A8FF013CF9D138BD00BF10B5064B05
:103D50001B7813F0FF0F06D0034CFFF739F92378D7
:103D600013F0FF0FF9D110BDF19BFF1F064B1B781D
:103D7000DBB2064A1278D2B293422CBF273202F14C
:103D8000FF32D01A704700BF649CFF1F5D9CFF1F6D
:103D9000054B1878C0B2054B1B78DBB2984238BF90
:103DA0004030C01A704700BF5C9CFF1FF29BFF1F92
:103DB0000A4B1A78D2B20A4B1B78DBB29A4209D06E
:103DC0000133402B28BF0023064AD05CDBB2044AF3
:103DD000137070474FF0FF30704700BF5C9CFF1FAF
:103DE000F29BFF1F1C9CFF1F094B1A78D2B2094B94
:103DF0001B78DBB29A4207D00133402B28BF002347
:103E0000054AD05CC0B270474FF0FF30704700BF2A
:103E10005C9CFF1FF29BFF1F1C9CFF1F024B1A782C
:103E2000D2B2024B1A707047F29BFF1F5C9CFF1FBF
:103E3000264B1B7913F0200F12D0244BDB79D9B21B
:103E4000234B1B780133402B28BF0023214A1278D3
:103E5000D2B29A4204D0204AD154DBB21C4A137029
:103E60001A4BDB78DBB213F0800F1CD0174A1279A3
:103E700012F0800F17D0194A1178C9B2184A127877
:103E8000D2B2914203D16C21104AD1700BE00132C1
:103E9000282A28BF00221349885CC0B20B49C87188
:103EA000D2B20F490A7013F0400F0ED0074B1B79A6
:103EB00013F0400F09D000220B4B1A700B4B1B68FC
:103EC00003B11A702C22014BDA70704700C0064013
:103ED0005C9CFF1FF29BFF1F1C9CFF1F649CFF1F2D
:103EE0005D9CFF1FF49BFF1FF19BFF1F609CFF1F4A
:103EF00000B585B072B61B4B70221A7041211A4A68
:103F000011700F21013A117080221A701A4613782D
:103F100013F0800FFBD0154B186862B6144B984213
:103F20009CBF00EB8000400001A90A22FFF7D8F8EF
:103F30009DF804307BB908E001A9595C31B191804A
:103F4000023201330A2BF7D100E0002301335B007A
:103F5000084A137003E0074A53800123ECE705B0D9
:103F60005DF804FB00000240070002400800024028
:103F70007F9698000C88FF1F08B503681B68C9B2BC
:103F8000984708BD08B503681B68C9B2984708BDC3
:103F900008B503681B68C9B2984708BD08B503682F
:103FA0001B68C9B2984708BD08B54B0803F13760D4
:103FB00000F5D830B0FBF1F0FFF7B4F808BD00BF52
:103FC00010B514464B0803F1376000F5D830B0FB4C
:103FD000F1F0FFF7A7F82046FFF7EAF810BD00BFA1
:103FE00008B5FFF715F908BD08B50846FFF742F90F
:103FF00008BD00BF08B5FFF72DFA08BD08B5FFF7EB
:1040000055FA08BD08B5FFF735FA08BD08B5FFF742
:10401000FFF908BD08B5FFF763FA08BD08B5FFF75B
:1040200007FA08BD08B50846FFF740F9012008BDAA
:1040300008B50846FFF73AF9012008BD10B5144647
:1040400008461146FFF782F9204610BD38B50D46E7
:104050000846FFF739F8044628462146FFF776F967
:10406000204638BD704700BF044B00221A714FF440
:104070007A7199601A73024A1A607047689CFF1F30
:104080009060000008B503681B68C9B2984708BD76
:1040900008B503681B68C9B2984708BD08B503682E
:1040A0001B68C9B2984708BD08B503681B68C9B248
:1040B000984708BD08B54B0803F1376000F5D830C4
:1040C000B0FBF1F0FFF7AAFA08BD00BF10B5144627
:1040D0004B0803F1376000F5D830B0FBF1F0FFF783
:1040E0009DFA2046FFF7E0FA10BD00BF08B5FFF7C4
:1040F0000BFB08BD08B50846FFF738FB08BD00BF3D
:1041000008B5FFF723FC08BD08B5FFF74BFC08BD59
:1041100008B5FFF72BFC08BD08B5FFF7F5FB08BD98
:1041200008B5FFF759FC08BD08B5FFF7FDFB08BD52
:1041300008B50846FFF736FB012008BD08B508465C
:10414000FFF730FB012008BD10B5144608461146A4
:10415000FFF778FB204610BD38B50D460846FEF740
:10416000B3FF044628462146FFF76CFB204638BDC6
:10417000704700BF044B00221A714FF47A719960A6
:104180001A73024A1A607047789CFF1FE0600000B3
:1041900008B503681B68C9B2984708BD08B503682D
:1041A0001B68C9B2984708BD08B503681B68C9B247
:1041B000984708BD08B503681B68C9B2984708BD91
:1041C00008B54B0803F1B76000F55840B0FBF1F0BB
:1041D000FFF7A0FC08BD00BF10B514464B0803F163
:1041E000B76000F55840B0FBF1F0FFF793FC2046B4
:1041F000FFF7D2FC10BD00BF08B5FFF7FDFC08BDFE
:1042000008B50846FFF72AFD08BD00BF08B5FFF74F
:10421000BFFD08BD08B5FFF7E7FD08BD08B5FFF70E
:10422000C7FD08BD08B5FFF791FD08BD08B5FFF74C
:10423000F5FD08BD08B5FFF799FD08BD08B50846AE
:10424000FFF728FD012008BD08B50846FFF722FD4D
:10425000012008BD10B5144608461146FFF76AFD57
:10426000204610BD38B50D460846FEF72DFF044622
:1042700028462146FFF75EFD204638BD704700BF47
:10428000044B00221A714FF47A7199601A73024A32
:104290001A607047889CFF1F30610000FFFFFFFF1E
:1042A0002DE9F043DFF8EC808BB004460D4600F0BA
:1042B00073F898F90030013306460F4638D020468F
:1042C000294600F0E5F9002832D0204629462AA3E5
:1042D000D3E9002300F02CFE814600282DD1204692
:1042E000294627A3D3E9002300F004FE00B398F980
:1042F00000102548CDF82090042600220023022932
:10430000CDE90445CDE9024500960190CDE90623AB
:104310002CD0684600F0C2F940B3089B1BB101F0F5
:1043200017F9089B0360DDE906010BB0BDE8F083D7
:10433000304639460BB0BDE8F083134B98F80010B7
:10434000019303220023CDE90445CDE90245009203
:10435000089329B90D4B4FF06042CDE90623D8E709
:104360000B4B00220229CDE90623D2D101F0F0F84F
:1043700022230360D1E700BFEF39FAFE422E8640C8
:1043800051302DD5104987C078610000FFFFEF47FD
:104390000000F07F2488FF1F2DE9F04FDFF8E4C212
:1043A00021F00047674583B004460D4602460B46A0
:1043B0004FEAD1760DD9DFF8D0C2674526D9C1F3CF
:1043C000130707431DD1002E40F0158103B0BDE84F
:1043D000F08FA54B9F4200F2CF80A44B9F4200F28A
:1043E000E1808BA3D3E9002300F060F90022A04B09
:1043F00000F09EFD002800F008819D4B20462946D4
:10440000002200F053F903B0BDE8F08F82A3D3E996
:10441000002300F08DFD002840F0C780204629468B
:104420007FA3D3E9002300F065FD002840F0E3807E
:104430007DA3D3E900232046294600F0E9FA8D4BFD
:1044400003EBC606D6E9002300F030F900F07AFD50
:10445000804600F077FA76A3D3E9002306460F469C
:1044600000F0D6FA02460B462046294600F01CF919
:1044700071A3D3E90023CDE900013046394600F0AD
:10448000C7FA82468B46DDE9000152465B4600F0E2
:104490000BF904460D4622462B462046294600F0DD
:1044A000B7FA67A3D3E9002306460F4600F0B0FA37
:1044B00065A3D3E9002300F0F7F832463B4600F04D
:1044C000A7FA63A3D3E9002300F0F0F832463B4695
:1044D00000F09EFA60A3D3E9002300F0E5F832462D
:1044E0003B4600F095FA5EA3D3E9002300F0DEF826
:1044F00032463B4600F08CFA02460B4620462946DF
:1045000000F0D2F806460F462046294632463B4682
:10451000B8F1000F51D000F07BFA324604460D4648
:104520003B4600204FF0804100F0BEF802460B46AB
:104530002046294600F096FB02460B465046594657
:1045400000F0B2F8DDE9002300F0AEF80B460246B9
:104550004749002000F0A8F86FF47F7398454FDAC0
:1045600008F57A7801EB085100224FF0B87300F09B
:104570004FFA03B0BDE8F08F3F4B9F423FF658AF74
:104580003E4BF4002344D3E9002300F08DF83C4B6C
:10459000C6F101081C44CDE90001D4E900ABC6EB2B
:1045A000080870E74FF0000875E719A1D1E900018C
:1045B00002460B4600F02CFA08E700F029FA002228
:1045C00080468946304639464FF0804300F06CF80B
:1045D00002460B464046494600F044FB22462B4625
:1045E00000F062F802460B460020214900F05CF81A
:1045F00003B0BDE8F08F0020002103B0BDE8F08FCC
:1046000001EB085103B0BDE8F08F804643E700BFDF
:104610009C7500883CE4377EEF39FAFE422E8640D6
:1046200051302DD5104987C0FE822B654715F73FC5
:104630000000E0FE422EE63F763C7935EF39EA3D58
:10464000D0A4BE726937663EF16BD2C541BDBB3E98
:104650002CDE25AF6A56113F93BDBE166CC1663F76
:104660003E5555555555C53F422ED63FFFFF2F3E6F
:104670000000F03F80610000B1A2F03FA0610000A7
:1046800090610000412E8640FFFFEF7FAFF3008076
:1046900041F0004101F58010C00F704700207047C5
:1046A00081F0004102E000BF83F0004330B54FEAE3
:1046B00041044FEA430594EA050F08BF90EA020F50
:1046C0001FBF54EA000C55EA020C7FEA645C7FEAE3
:1046D000655C00F0E2804FEA5454D4EB5555B8BF06
:1046E0006D420CDD2C4480EA020281EA030382EA77
:1046F000000083EA010180EA020281EA0303362D09
:1047000088BF30BD11F0004F4FEA01314FF4801CDB
:104710004CEA113102D0404261EB410113F0004FED
:104720004FEA03334CEA133302D0524263EB4303A4
:1047300094EA050F00F0A780A4F10104D5F1200E42
:104740000DDB02FA0EFC22FA05F2801841F100019D
:1047500003FA0EF2801843FA05F359410EE0A5F171
:1047600020050EF1200E012A03FA0EFC28BF4CF0A2
:10477000020C43FA05F3C01851EBE37101F0004558
:1047800007D54FF0000EDCF1000C7EEB00006EEB65
:104790000101B1F5801F1BD3B1F5001F0CD34908EF
:1047A0005FEA30004FEA3C0C04F101044FEA445246
:1047B00012F5800F80F09A80BCF1004F08BF5FEACD
:1047C000500C50F1000041EB045141EA050130BDAD
:1047D0005FEA4C0C404141EB010111F4801FA4F150
:1047E0000104E9D191F0000F04BF01460020B1FAA5
:1047F00081F308BF2033A3F10B03B3F120020CDADD
:104800000C3208DD02F1140CC2F10C0201FA0CF0BA
:1048100021FA02F10CE002F11402D8BFC2F1200C1F
:1048200001FA02F120FA0CFCDCBF41EA0C019040D5
:10483000E41AA2BF01EB0451294330BD6FEA04041E
:104840001F3C1CDA0C340EDC04F11404C4F1200209
:1048500020FA04F001FA02F340EA030021FA04F31B
:1048600045EA030130BDC4F10C04C4F1200220FA72
:1048700002F001FA04F340EA0300294630BD21FAB0
:1048800004F0294630BD94F0000F83F4801306BF76
:1048900081F480110134013D4EE77FEA645C18BF6A
:1048A0007FEA655C29D094EA050F08BF90EA020F01
:1048B00005D054EA000C04BF1946104630BD91EAF9
:1048C000030F1EBF0021002030BD5FEA545C05D1FC
:1048D0004000494128BF41F0004130BD14F580043B
:1048E0003CBF01F5801130BD01F0004545F0FE41AF
:1048F00041F470014FF0000030BD7FEA645C1ABFE4
:10490000194610467FEA655C1CBF0B46024650EA1A
:10491000013406BF52EA033591EA030F41F4002146
:1049200030BD00BF90F0000F04BF0021704730B5CC
:104930004FF4806404F132044FF000054FF00001A1
:1049400050E700BF90F0000F04BF0021704730B562
:104950004FF4806404F1320410F0004548BF404237
:104960004FF000013EE700BF42004FEAE2014FEA8C
:1049700031014FEA02701FBF12F07F4393F07F4F67
:1049800081F06051704792F0000F14BF93F07F4F99
:10499000704730B54FF4607401F0004521F00041DC
:1049A00020E700BF50EA010208BF704730B54FF062
:1049B00000050AE050EA010208BF704730B511F067
:1049C000004502D5404261EB41014FF4806404F19F
:1049D00032045FEA915C3FF4DCAE4FF003025FEA21
:1049E000DC0C18BF03325FEADC0C18BF033202EBA9
:1049F000DC02C2F1200300FA03FC20FA02F001FA03
:104A000003FE40EA0E0021FA02F11444C1E600BFA1
:104A100070B54FF0FF0C4CF4E06C1CEA11541DBF54
:104A20001CEA135594EA0C0F95EA0C0F00F0DEF81F
:104A30002C4481EA030621EA4C5123EA4C5350EA04
:104A4000013518BF52EA033541F4801143F4801355
:104A500038D0A0FB02CE4FF00005E1FB02E506F0E6
:104A60000042E0FB03E54FF00006E1FB03569CF03B
:104A7000000F18BF4EF0010EA4F1FF04B6F5007F41
:104A800064F5407404D25FEA4E0E6D4146EB0606B3
:104A900042EAC62141EA55514FEAC52040EA5E503C
:104AA0004FEACE2EB4F1FD0C88BFBCF5E06F1ED8E6
:104AB000BEF1004F08BF5FEA500E50F1000041EB1D
:104AC000045170BD06F0004646EA010140EA0200CA
:104AD00081EA0301B4EB5C04C2BFD4EB0C0541EAEC
:104AE000045170BD41F480114FF0000E013C00F301
:104AF000AB8014F1360FDEBF002001F0004170BD25
:104B0000C4F10004203C35DA0C341BDC04F114043D
:104B1000C4F1200500FA05F320FA04F001FA05F2C9
:104B200040EA020001F0004221F0004110EBD37096
:104B300021FA04F642EB06015EEA430E08BF20EAC2
:104B4000D37070BDC4F10C04C4F1200500FA04F365
:104B500020FA05F001FA04F240EA020001F00041F7
:104B600010EBD37041F100015EEA430E08BF20EA6A
:104B7000D37070BDC4F1200500FA05F24EEA020EB2
:104B800020FA04F301FA05F243EA020321FA04F0E1
:104B900001F0004121FA04F220EA020000EBD37098
:104BA0005EEA430E08BF20EAD37070BD94F0000F98
:104BB0000FD101F00046400041EB010111F4801FCC
:104BC00008BF013CF7D041EA060195F0000F18BF7D
:104BD000704703F00046520043EB030313F4801FB9
:104BE00008BF013DF7D043EA0603704794EA0C0F73
:104BF0000CEA135518BF95EA0C0F0CD050EA410689
:104C000018BF52EA4306D1D181EA030101F0004105
:104C10004FF0000070BD50EA410606BF104619462D
:104C200052EA430619D094EA0C0F02D150EA013639
:104C300013D195EA0C0F05D152EA03361CBF10467A
:104C400019460AD181EA030101F0004141F0FE4119
:104C500041F470014FF0000070BD41F0FE4141F49D
:104C6000780170BD70B54FF0FF0C4CF4E06C1CEA9D
:104C700011541DBF1CEA135594EA0C0F95EA0C0F52
:104C800000F0A7F8A4EB050481EA030E52EA03350D
:104C90004FEA013100F088804FEA03334FF080552E
:104CA00045EA131343EA12634FEA022245EA11155B
:104CB00045EA10654FEA00260EF000419D4208BF0C
:104CC000964244F1FD0404F5407402D25B084FEAB9
:104CD0003202B61A65EB03055B084FEA32024FF465
:104CE00080104FF4002CB6EB020E75EB030E22BFC2
:104CF000B61A754640EA0C005B084FEA3202B6EB82
:104D0000020E75EB030E22BFB61A754640EA5C0030
:104D10005B084FEA3202B6EB020E75EB030E22BFC0
:104D2000B61A754640EA9C005B084FEA3202B6EBC1
:104D3000020E75EB030E22BFB61A754640EADC0080
:104D400055EA060E18D04FEA051545EA16754FEAE2
:104D500006164FEAC30343EA52734FEAC2025FEA00
:104D60001C1CC0D111F4801F0BD141EA00014FF08F
:104D700000004FF0004CB6E711F4801F04BF014360
:104D80000020B4F1FD0C88BFBCF5E06F3FF6AFAE7C
:104D9000B5EB030C04BFB6EB020C5FEA500C50F10C
:104DA000000041EB045170BD0EF0004E4EEA11318F
:104DB00014EB5C04C2BFD4EB0C0541EA045170BD96
:104DC00041F480114FF0000E013C90E645EA060EDA
:104DD0008DE60CEA135594EA0C0F08BF95EA0C0F08
:104DE0003FF43BAF94EA0C0F0AD150EA01347FF450
:104DF00034AF95EA0C0F7FF425AF104619462CE727
:104E000095EA0C0F06D152EA03353FF4FDAE104689
:104E1000194622E750EA410618BF52EA43067FF4DA
:104E2000C5AE50EA41047FF40DAF52EA43057FF46A
:104E3000EBAE12E74FF0FF3C06E000BF4FF0010C75
:104E400002E000BF4FF0010C4DF804CD4FEA410CD9
:104E50007FEA6C5C4FEA430C18BF7FEA6C5C1BD0A6
:104E600001B050EA410C0CBF52EA430C91EA030F27
:104E700002BF90EA020F0020704710F1000F91EA84
:104E8000030F58BF994208BF90422CBFD8176FEA52
:104E9000E37040F0010070474FEA410C7FEA6C5C20
:104EA00002D150EA013C07D14FEA430C7FEA6C5C27
:104EB000D6D152EA033CD3D05DF8040B704700BF53
:104EC0008446104662468C461946634600E000BFA1
:104ED00001B5FFF7B7FF002848BF10F1000F01BD73
:104EE0004DF808EDFFF7F4FF0CBF012000205DF83E
:104EF00008FB00BF4DF808EDFFF7EAFF34BF0120C3
:104F000000205DF808FB00BF4DF808EDFFF7E0FF5B
:104F100094BF012000205DF808FB00BF4DF808EDAC
:104F2000FFF7CEFF94BF012000205DF808FB00BF13
:104F30004DF808EDFFF7C4FF34BF012000205DF8F5
:104F400008FB00BF4FEA410212F5001215D211D53D
:104F50006FF47873B3EB625212D94FEAC12343F076
:104F6000004343EA505311F0004F23FA02F018BFF8
:104F7000404270474FF00000704750EA013005D1C1
:104F800011F0004008BF6FF0004070474FF0000084
:104F9000704700BF4FEA4102B2F1E04324BFB3F5CE
:104FA000001CDCF1FE5C0DD901F0004C4FEAC002A0
:104FB0004CEA5070B2F1004F40EB830008BF20F084
:104FC0000100704711F0804F21D113F13872BCBF3E
:104FD00001F00040704741F480114FEA5252C2F193
:104FE0001802C2F1200C10FA0CF320FA02F018BFDC
:104FF00040F001004FEAC1234FEAD32303FA0CFC2F
:1050000040EA0C0023FA02F34FEA4303CCE77FEABD
:10501000625307D150EA01331EBF4FF0FE4040F407
:105020004000704701F0004040F0FE4040F40000B6
:10503000704700BF80F0004002E000BF81F00041F7
:1050400042001FBF5FEA410392EA030F7FEA226C2E
:105050007FEA236C6AD04FEA1262D2EB1363C1BFBE
:10506000D218414048404140B8BF5B42192B88BF2D
:10507000704710F0004F40F4000020F07F4018BF50
:10508000404211F0004F41F4000121F07F4118BF70
:10509000494292EA030F3FD0A2F1010241FA03FC18
:1050A00010EB0C00C3F1200301FA03F100F0004300
:1050B00002D5494260EB4000B0F5000F13D3B0F1C8
:1050C000807F06D340084FEA310102F10102FE2A37
:1050D00051D2B1F1004F40EBC25008BF20F00100A7
:1050E00040EA03007047490040EB000010F4000F55
:1050F000A2F10102EDD1B0FA80FCACF1080CB2EBE8
:105100000C0200FA0CF0AABF00EBC2505242184346
:10511000BCBFD0401843704792F0000F81F40001EB
:1051200006BF80F400000132013BB5E74FEA4103BE
:105130007FEA226C18BF7FEA236C21D092EA030F2A
:1051400004D092F0000F08BF0846704790EA010FA4
:105150001CBF0020704712F07F4F04D1400028BFD1
:1051600040F00040704712F100723CBF00F50000B3
:10517000704700F0004343F0FE4040F400007047E9
:105180007FEA226216BF08467FEA23630146420295
:1051900006BF5FEA412390EA010F40F480007047A8
:1051A0004FF0000304E000BF10F0004348BF40424E
:1051B0005FEA000C08BF704743F0964301464FF08A
:1051C00000001CE050EA010208BF70474FF00003E6
:1051D0000AE000BF50EA010208BF704711F0004327
:1051E00002D5404261EB41015FEA010C02BF8446F7
:1051F0000146002043F0B64308BFA3F18053A3F556
:105200000003BCFA8CF2083AA3EBC25310DB01FA9C
:1052100002FC634400FA02FCC2F12002BCF1004F20
:1052200020FA02F243EB020008BF20F001007047B1
:1052300002F1200201FA02FCC2F1200250EA4C0005
:1052400021FA02F243EB020008BF20EADC7070474B
:105250004FF0FF0C1CEAD0521EBF1CEAD15392EA59
:105260000C0F93EA0C0F6FD01A4480EA010C400235
:1052700018BF5FEA41211ED04FF0006343EA50108F
:1052800043EA5111A0FB01310CF00040B1F5000FD1
:105290003EBF490041EAD3715B0040EA010062F180
:1052A0007F02FD2A1DD8B3F1004F40EBC25008BF6A
:1052B00020F00100704790F0000F0CF0004C08BF88
:1052C00049024CEA502040EA51207F3AC2BFD2F155
:1052D000FF0340EAC250704740F400004FF0000363
:1052E000013A5DDC12F1190FDCBF00F0004070479D
:1052F000C2F10002410021FA02F1C2F1200200FADB
:1053000002FC5FEA310040F1000053EA4C0308BFA1
:1053100020EADC70704792F0000F00F0004C02BFF2
:10532000400010F4000F013AF9D040EA0C0093F06D
:10533000000F01F0004C02BF490011F4000F013BC7
:10534000F9D041EA0C018FE70CEAD15392EA0C0F35
:1053500018BF93EA0C0F0AD030F0004C18BF31F0A0
:10536000004CD8D180EA010000F00040704790F076
:10537000000F17BF90F0004F084691F0000F91F01A
:10538000004F14D092EA0C0F01D142020FD193EAE0
:105390000C0F03D14B0218BF084608D180EA010068
:1053A00000F0004040F0FE4040F40000704740F044
:1053B000FE4040F4400070474FF0FF0C1CEAD05212
:1053C0001EBF1CEAD15392EA0C0F93EA0C0F69D06E
:1053D000A2EB030280EA010C49024FEA402037D0D9
:1053E0004FF0805343EA111143EA10130CF00040D0
:1053F0008B4238BF5B0042F17D024FF4000C8B42C0
:1054000024BF5B1A40EA0C00B3EB510F24BFA3EB9F
:10541000510340EA5C00B3EB910F24BFA3EB91036F
:1054200040EA9C00B3EBD10F24BFA3EBD10340EAC9
:10543000DC001B0118BF5FEA1C1CE0D1FD2A3FF60F
:1054400050AF8B4240EBC25008BF20F001007047C4
:105450000CF0004C4CEA50207F32C2BFD2F1FF0367
:1054600040EAC250704740F400004FF00003013A98
:1054700037E792F0000F00F0004C02BF400010F43C
:10548000000F013AF9D040EA0C0093F0000F01F050
:10549000004C02BF490011F4000F013BF9D041EA72
:1054A0000C0195E70CEAD15392EA0C0F08D14202A5
:1054B0007FF47DAF93EA0C0F7FF470AF084676E778
:1054C00093EA0C0F04D14B023FF44CAF08466EE751
:1054D00030F0004C18BF31F0004CCAD130F000421F
:1054E0007FF45CAF31F000437FF43CAF5FE700BF77
:1054F00042000ED2B2F1FE4F0BD34FF09E03B3EB3E
:10550000126209D44FEA002343F0004323FA02F069
:1055100070474FF00000704712F1610F01D1420255
:1055200002D14FF0FF3070474FF00000704700BFCE
:1055300003460846194600F001B800BF10B40C46F7
:1055400013460146224602205DF8044B00F0E8BAFB
:10555000014B1868704700BF508CFF1F70B50F4E8D
:105560000F4D761BB61007D0043D0024013455F8CA
:10557000043F9847A642F9D10A4E0B4D761B00F026
:105580001BFEB61008D0043D0024013455F8043F3A
:105590009847A642F9D170BD70BD00BFC46100003C
:1055A000C4610000E8610000C4610000024B0146D4
:1055B000186800F003B800BF508CFF1F2DE9F04FB2
:1055C00001F10B05162D83B0064627D935F00705E6
:1055D00027D4A94225D8304600F08CFAB5F5FC7FD7
:1055E00026D2C14F4FEAD50C07EBCC03DC689C42B6
:1055F00000F0D2816368E268A16823F003032344CA
:1056000030465D68CA6045F0010591605D6000F05C
:1056100073FA0834204603B0BDE8F08F1025A94284
:10562000D9D900240C232046336003B0BDE8F08FA5
:105630005FEA552C00F08A80BCF1040F00F2608113
:105640004FEA951C0CF1380C4FEA4C01A64F07EBC2
:105650008101CC68A14205D10CE0002B7ADAE46824
:10566000A14207D0626822F00302531B0F2BF4DD26
:105670000CF1FF3C0CF1010C9B4B3C6903F1080E53
:10568000744500F07E81616821F003014A1B0F2AF6
:1056900000F36481002AC3F814E0C3F810E06ADA6A
:1056A000B1F5007F80F03A81C90803EBC1004FEAF1
:1056B000A1085A688168A1604FF0010909FA08F849
:1056C00048EA0202E0605A608460CC604FEAAC03B2
:1056D0000120984090425BD8024206D12CF0030C86
:1056E000400002420CF1040CFAD007EBCC0844460F
:1056F000E146E3689C4207D145E1002A80F25681E9
:10570000DB689C4200F03F81596821F003014A1B8D
:105710000F2AF2DD1C46D3F80CC054F8088F591933
:1057200045F0010942F00105C3F804903046C8F87D
:105730000CC0CCF8088079613961C1F80CE0C1F87F
:1057400008E04D608A5000F0D7F963E77E214FF002
:105750003F0C7BE72244E3685068A16840F00105F4
:10576000CB6030469960556000F0C6F90834204699
:1057700003B0BDE8F08F214430464B6843F001038D
:105780004B6000F0B9F90834204603B0BDE8F08F53
:10579000BC68636823F00309A94504D3C5EB09037A
:1057A0000F2B00F39180514B514A19681368013354
:1057B00005EB010A04EB090B00F061810AF5805A40
:1057C0000AF10F0A2AF47F6A2AF00F0A304651467E
:1057D000019200F093F9B0F1FF3F8046019A00F08A
:1057E0000081834500F2FA80DFF810C1DCF8003058
:1057F000C3455344CCF8003000F04A8112683C495C
:1058000001321BBFCBEB080B5B44C1F80080CCF826
:10581000003018F0070300F01381C3F10802C3F54C
:10582000805390440833C244CAF30B0ACAEB030AFC
:1058300051463046CDF804C000F060F9431CDDF855
:1058400004C000F03581C8EB0002524442F001026E
:10585000DCF80030C7F808805344BC42C8F8042084
:10586000CCF80030DFF894A015D0B9F10F0F40F25A
:10587000EA806168A9F10C0222F0070201F0010E32
:10588000A118052042EA0E0E0F2AC4F804E0486071
:10589000886000F21181174ABC6811688B4288BF8A
:1058A0001360154A11688B4288BF1360626822F04A
:1058B00003029542C5EB020301D80F2B04DC3046EE
:1058C00000F01AF90024A5E6621943F0010345F03F
:1058D000010565603046BA60536000F00DF9083488
:1058E000204603B0BDE8F08F548CFF1FA09CFF1F23
:1058F0006090FF1F9C9CFF1F989CFF1FA49CFF1F94
:10590000BCF1140F61D9BCF1540F00F28F804FEA43
:10591000153C0CF16E0C4FEA4C0197E64B0A042B38
:1059200058D9142B00F2AE8003F15B02500007EB54
:105930008000DFF8BC818368834200F08A805A6867
:1059400022F00302914202D29B689842F7D1D968B3
:105950007A68E160A3608C60DC60B7E6611942F0B0
:10596000010745F001056560304659611961C1F8CC
:105970000CE0C1F808E04F608A50083400F0BCF831
:1059800048E65A68A2E609F1010919F0030F04F18B
:1059900008047FF4AEAE2DE004F108036469A3426D
:1059A00008BF0CF1020C3FF467AE23E619441C4615
:1059B0004868DB6854F8082F40F001054D60304618
:1059C000D3609A6000F098F824E60CF15B0C4FEA83
:1059D0004C013BE68A0938325000A8E7BC423FF44C
:1059E00003AFBC68626822F0030262E7D8F8008067
:1059F00098457BD11CF0030FA8F108030CF1FF3C84
:105A0000F4D17B6823EA00037B60400098423FF6B4
:105A1000BFAE00283FF4BCAE0342CC467FF465AE77
:105A2000400003420CF1040CFAD05EE6BCF5AA7FFC
:105A30001AD84FEAD53C0CF1770C4FEA4C0105E639
:105A40004FF48053EFE60123C8F8043044460022A7
:105A50002FE791100120D8F8042000FA01F10A4341
:105A6000C8F80420194674E740F254539C451BD8EB
:105A70004FEA954C0CF17C0C4FEA4C01E6E50AF13B
:105A8000100AA3E6542B1FD80A0B6E3250004EE7C3
:105A9000CBF30B0100297FF4B1AE0AEB0901BA6820
:105AA00041F001015160F6E6FC214FF07E0CCDE59E
:105AB00001224FF0000ACBE604F10801304600F065
:105AC000F9F8DAF80030E6E6B3F5AA7F03D8CA0B96
:105AD000773250002BE740F25452934203D88A0C9D
