:1000000000800020BD010000A11600006516000060
:1000100065160000651600006516000065160000F4
:10002000651600006516000065160000A1160000A8
:10003000A116000065160000A1160000551600006C
:10004000A1160000A1160000A1160000A1160000D4
:10005000A1160000A1160000A1160000A1160000C4
:10006000A1160000A1160000A1160000A1160000B4
:10007000A1160000A1160000A1160000A1160000A4
:10008000A1160000A1160000A1160000A116000094
:10009000A1160000A1160000A1160000A116000084
:1000A000A1160000A1160000A1160000A116000074
:1000B000A1160000A1160000A1160000A116000064
:1000C000A1160000A1160000A1160000A116000054
:1000D000A1160000A1160000A1160000A116000044
:1000E000A1160000A1160000A1160000A116000034
:1000F000A1160000B5310000A1160000193900005A
:10010000A1160000953E0000A1160000A1160000F7
:10011000A1160000A1160000A1160000A116000003
:10012000A116000009130000A1160000A11600008E
:10013000A1160000A1160000A1160000A1160000E3
:10014000A1160000A1160000A1160000A1160000D3
:10015000ED270000052800001D28000035280000BC
:10016000A1160000251D0000A1160000A116000028
:10017000A1160000A1160000A1160000A1160000A3
:10018000A1160000A1160000A1160000A116000093
:10019000A1160000A1160000A1160000A116000083
:1001A000A1160000A1160000A1160000A116000073
:1001B000A1160000A1160000A1160000574B4CF23A
:1001C000205210B51A804DF628121A8000BF00BFC9
:1001D00001F06AFA524B4FF010621A60514A9A606D
:1001E000514ADA60A3F53043203B1A6812F480725A
:1001F00004D14E490A604FF4A8521A604C4B1A7849
:10020000110703D51A7842F008021A70494B4A4C7C
:100210004A482A221A704A4A00239918A14203D256
:10022000195899500433F8E7464B474900228B424E
:1002300002D243F8042BFAE74448454900235A58B0
:100240001A500433B3F5DE7FF9D1424B424A802184
:1002500003F8011B9342FBD1404B3C4A1A60404BD0
:100260008A221A70A3F5805324225A70A0221A7091
:100270009A799207FCD59A79D406FCD4394A9379B5
:1002800003F00C03082B374BF9D103221A714022DB
:100290005A719A799006FCD5324A9179314B4906C8
:1002A000FBD5314A314911600221516020221A7078
:1002B0009A7902F00C020C2AFAD12D4B2D4A1A60C1
:1002C0002D4B2E4A1A6000225A60072243F8042C54
:1002D0002B4AC3F80C2D62B601F0E4FB134B1B68EC
:1002E000DA0705D5274801F00FFA274B274A1A608D
:1002F000274B1B785B0609D5234C244A236893427D
:1003000004D1204801F000FA0023236004F0B6FB7A
:1003100001F0D0F902F076FBFEE700BF0E200540A9
:1003200030800440823F04000100002B14D00340C1
:1003300002D0074000E007405C90FF1F74540200A9
:100340006087FF1F5C90FF1FC89CFF1F0082FF1F7C
:100350000000000000E400E05FE400E008ED00E0E1
:100360000050064000400640448004400000030165
:1003700004800440C010050014E000E0FF76010096
:100380000000202035E42A591CE00340A5C3945AFC
:1003900000F00740FFFFFFFFFFFFFFFFFFFFFFFF32
:1003A000FFFFFFFFFFFFFFFFFFFFFFFFFFFFFFFF5D
:1003B000FFFFFFFFFFFFFFFFFFFFFFFFFFFFFFFF4D
:1003C000FFFFFFFFFFFFFFFFFFFFFFFFFFFFFFFF3D
:1003D000FFFFFFFFFFFFFFFFFFFFFFFFFFFFFFFF2D
:1003E000FFFFFFFFFFFFFFFFFFFFFFFFFFFFFFFF1D
:1003F000FFFFFFFFFFFFFFFFFFFFFFFFFFFFFFFF0D
:10040000FFFFFFFFFFFFFFFFFFFFFFFFDEF9FFFF23
:1004100010B5054C237833B9044B13B10448AFF33E
:1004200000800123237010BD5C90FF1F00000000BE
:100430001C57000008B5064B1BB106480649AFF330
:1004400000800648036813B1054B03B1984708BD07
:10045000000000001C5700006090FF1F5C90FF1F11
:100460000000000008B54FF4807000F0EFFF02209C
:10047000002101F097F90320002101F093F90420F5
:10048000002101F08FF91720012101F08BF90D20D7
:10049000012101F087F90D20012101F051F908BD7A
:1004A00030B583B0022001F06FF99E4B1860032035
:1004B00001F06AF99C4C2060042001F065F99B4B27
:1004C000186023689A4A126893421BD0012B19D1F5
:1004D000EFF3108172B6BFF35F8FBFF34F8FBFF39F
:1004E0006F8F944B1A691A6081F31088BFF35F8F86
:1004F000BFF34F8FBFF36F8FBFF35F8FBFF34F8F8C
:10050000BFF36F8F884B1A68894B1A60874B1B6843
:10051000012B03D0834B1B68012B03D10122854B98
:100520001A7302E00022834B1A73012001F056F87F
:1005300004F05AF8804B1860022001F04FF8A0F543
:10054000007004F051F804467C4B18604FF088416D
:1005500004F05AFA38B1784B1868214603F08EFF40
:10056000774B18600CE020464FF0884104F02EFADB
:1005700030B12046704B196803F082FF704B186051
:100580006F4B1C6820464FF07E5104F03DFA30B1AD
:1005900020466C4904F01AFA20B1204603E04FF0DF
:1005A0007E5000E06748664B18604FF07E5103F0C4
:1005B00065FF654904F06CF8644904F01DF964496D
:1005C00003F05EFF634B1860032001F007F8624BF5
:1005D0001860042001F002F8A0F500705F4B18606D
:1005E000B0F5007F05DD5C4B1B68181A5C4B18608A
:1005F00007E0B0F5007F04DA574B1B681844584BEE
:100600001860574B18680128B8BF012040F2FF332B
:100610009842A8BF1846524B1860524B1B68323B99
:100620000093012140F2FF320B4602F0DDF94E4B00
:100630001860052000F0D2FF4C4B1860062000F037
:10064000CDFFA0F500704A4B1860B0F5007F05DDC6
:10065000464B1B68181A474B186007E0B0F5007F3F
:1006600004DA424B1B681844424B1860414B18682F
:100670000128B8BF012040F2FF339842A8BF1846B6
:100680003C4B1860384B1B68364A126800920121B7
:1006900040F2FF32323302F0A7F9374B18600720DF
:1006A00000F09CFF354B1860082000F097FFA0F584
:1006B0000070334B1860B0F5007F05DD2F4B1B68D1
:1006C000181A304B186007E0B0F5007F04DA2B4BA6
:1006D0001B6818442B4B18602A4B18680923009399
:1006E000012140F2FF320B4602F07EF9264B1860E2
:1006F000013807287DD8DFE800F0040C4D555D6512
:100700006D75224A0B4B9A6043F6BF72154B1A6007
:100710006FE01F4A074B9A6043F6AE72114B1A60A6
:1007200067E000BFB490FF1FC490FF1FD890FF1F69
:10073000CC90FF1F8490FF1F7890FF1FC090FF1F79
:10074000D490FF1F00C07F44295C3F4000807F445D
:100750000AD7233CB090FF1F7C90FF1FD090FF1F53
:10076000B890FF1FDC90FF1FE090FF1FBC90FF1FA1
:10077000A090FF1F8090FF1FAC90FF1F9C90FF1F59
:10078000A490FF1FC890FF1FA890FF1F1C570000D8
:10079000DC9600003F4A404B9A6043F6A6723F4BFE
:1007A0001A6026E03E4A3C4B9A6043F6B0723B4BDF
:1007B0001A601EE03B4A384B9A6043F68B72374B07
:1007C0001A6016E0384A344B9A6043F6B372334BE2
:1007D0001A600EE0354A304B9A6043F6AB722F4BED
:1007E0001A6006E0324A2C4B9A6043F6A3722B4BF8
:1007F0001A60294C2F4B1B681B0423612E4B1B686E
:100800001B0463612D4B1868EFF3108572B6BFF3BC
:100810005F8FBFF34F8FBFF36F8F294903F038FF0E
:100820004FF0625103F034FF4FF08F4103F030FF7F
:1008300004F0F4F8606085F31088BFF35F8FBFF3B6
:100840004F8FBFF36F8FBFF35F8FBFF34F8FBFF338
:100850006F8F226863699A4206D9227B7AB1206839
:1008600021690144CB1A23600B4B1968090C9A6863
:10087000525C5968186801441960134600E000236F
:100880005BB21720642101FB03F100F0DBFF03B032
:1008900030BD00BF8CD600008490FF1FDC90FF1F8E
:1008A00034160100E45501007095010024D50100C3
:1008B000D0140200E090FF1FAC90FF1FB090FF1F0C
:1008C00000FC7E460F4B1A685B699A4208D90D4AB4
:1008D000127B82B10B4A106811690144CB1A136074
:1008E000084B1968090C9A68525C596818680144E9
:1008F0001960134600E000235BB2642000FB03F0A4
:10090000704700BF8490FF1F08B500F049FD08BD87
:10091000034B044A9A60044A5A6100221A737047D2
:100920008490FF1F1C5700000000BF3F38B50446ED
:1009300000210F4A0F4B00F085FB04F1AC0528465F
:1009400001210D4A0D4B00F07DFB022384F8583144
:10095000C4F85C41C4F86051094B1A6842F0006267
:100960001A600C3B1A6842F000621A60204638BDDB
:100970000454000000540000D0530000FC53000059
:100980003C80044008B5012A0CBFD0F86001D0F8C3
:100990005C0100F0D1F908BD08B5012A0CBFD0F800
:1009A0006001D0F85C0100F0A5F808BD08B5012988
:1009B0000CBFD0F86001D0F85C0100F0F1FB08BD7D
:1009C00070B504460D46B2F1FF3F35D1D0F85C0159
:1009D00000F004FC0646D4F86001294600F0FEFB56
:1009E0009EB160B1D4F85C31D4F86001597D427D8C
:1009F000914298BF1846294600F014FC70BDD4F807
:100A00005C01294600F00EFC70BD28B1D4F86001ED
:100A1000294600F007FC70BDD4F85C31DA8A92B246
:100A200042F00402DA82D4F86031DA8A92B242F0FB
:100A30000402DA82002070BD22B9D0F85C0100F017
:100A4000F1FB70BD012A04D1D0F8600100F0EAFB8F
:100A500070BDD0F85C31DA8A92B242F00102DA82DB
:100A6000002070BD01290CBFD0F86031D0F85C3196
:100A70005B6C186800B2704772B601234376826DD2
:100A8000520102F184420021D161826D520102F1D2
:100A900084429361826D520102F18442D36162B655
:100AA000704700BF08B590F821208A421CD0012968
:100AB0000ED160220D4B1A70E12201331A7001230E
:100AC00080F82130426D520102F18442136009E046
:100AD00041B9074A117080F82110426D520102F1AC
:100AE00084421160FFF7C8FF08BD00BF0040074007
:100AF0000140074038B504460D46437E13F0FF0F12
:100B000001D000F04DF8012D06D8A36D5B0103F173
:100B100084420023936040E0A36D5B0103F18443B2
:100B200001229A60042D0CD8A36D5B0103F184426D
:100B300000231360A26D520102F18442536004232A
:100B40002BE0082D0DD8A36D5B0103F18443012236
:100B50001A60A36D5B0103F1844300225A600823ED
:100B60001BE0102D0DD8A36D5B0103F1844300221F
:100B70001A60A36D5B0103F1844301225A601023C4
:100B80000BE0A36D5B0103F1844201231360A26DAE
:100B9000520102F184425360202384F8203038BD92
:100BA00070B50446836D5B0103F18442D26942B1A2
:100BB00001F034FFA36D5B0103F18442D269002A86
:100BC000F6D103F184439B6923B1E38A9BB243F0DE
:100BD0000203E38272B6637E13F0FF0F37D0236FF8
:100BE0001A68636F1E68A36F1D68E36F1868D4F8F6
:100BF00080301968D4F884301B6832442A44024497
:100C00000A441A44C2F34E02636E42F400421A6070
:100C1000D4F88C301A68D4F890301E68D4F8943028
:100C20001D68D4F898301868D4F89C301968D4F846
:100C3000A0301B6832442A4402440A441A44C2F3D6
:100C40004E02A36E42F400421A600023637662B63D
:100C5000A37E13F0FF0F0DD02046022100F06CF8A8
:100C60002046022100F054F920460421FFF742FFFC
:100C70000023A37670BD00BF38B50446C37E0D4681
:100C80008B4258D0437E13F0FF0F01D0FFF788FF4F
:100C9000072D07D90D2D29D8A5F10803DBB2012BAB
:100CA0000FD800E00825E36B5B0103F184420023C9
:100CB000D360E26B520102F184429360FF23E3614F
:100CC00038E0A5F10A03DBB2012B10D8E36B5B011E
:100CD00003F184430122DA60E36B5B0103F1844397
:100CE00000229A6040F2FF33E36123E01025A5F172
:100CF0000C03DBB2012B0FD8E36B5B0103F18443E0
:100D00000022DA60E36B5B0103F1844301229A6005
:100D100040F6FF73E3610DE0E36B5B0103F1844296
:100D20000123D360E26B520102F1844293604FF6DB
:100D3000FF73E361E57638BD38B5044690F824309A
:100D40000D468B4200F0E280437E13F0FF0F01D08E
:100D5000FFF726FF0F2D56D9236C5B0103F1844268
:100D60000123D360E26B520102F184425360E26BD3
:100D7000520102F184421360E36B5B0103F1844290
:100D800000235361E26B520102F184429361102D02
:100D90000CD1236C5B0103F1844300229A60E36B66
:100DA0005B0103F184430122DA6129E0112D0BD1AB
:100DB000236C5B0103F1844201239360E26B5201D7
:100DC00002F18442D3611BE0122D0BD1236C5B0135
:100DD00003F1844200239360E26B520102F18442EA
:100DE000D3610DE0132D0BD1236C5B0103F1844320
:100DF00001229A60E36B5B0103F184430022DA6114
:100E000084F8245038BD236C5B0103F18443002235
:100E1000DA6065B9236C5B0103F184439A60E36B8C
:100E20005B0103F184430122DA61612353E0012D68
:100E30000DD1236C5B0103F1844300229A60E36BC4
:100E40005B0103F184430122DA61612343E0022D57
:100E50000CD1236C5B0103F1844200239360E26BAD
:100E6000520102F18442D361412334E0032D0DD1BC
:100E7000236C5B0103F1844301229A60E36B5B0105
:100E800003F184430022DA61212324E0042D0DD1F3
:100E9000236C5B0103F1844301229A60E36B5B01E5
:100EA00003F184430022DA61212314E0052D0CD1E3
:100EB000236C5B0103F1844201239360E26B5201D6
:100EC00002F184420021D16105E0E38A9BB243F044
:100ED0000103E38238BDE26B520102F1844200213A
:100EE0005160E26B520102F1844201211160E26B18
:100EF000520102F1844299099161E26B520102F1BF
:100F00008442C3F34013536184F8245038BD00BFBA
:100F100038B5044690F825300D468B425FD0437EAD
:100F200013F0FF0F01D0FFF73BFE8DB9E36B5B01C0
:100F300003F1844301221A61236C5B0103F18442B3
:100F400000235360226C520102F18442136044E09A
:100F5000012D11D1E36B5B0103F184420123136185
:100F6000226C520102F1844200215160226C520134
:100F700002F18442136030E0022D11D1E36B5B017A
:100F800003F1844201231361226C520102F1844275
:100F90005360236C5B0103F1844300221A601CE060
:100FA000EB1EDBB2012B10D8E36B5B0103F1844233
:100FB00001231361226C520102F184425360226CBE
:100FC000520102F18442136007E0052D07D1E36B63
:100FD0005B0103F1844300221A6184F8255038BD77
:100FE00038B504460021C176C16180F82010022284
:100FF00080F8212080F82210012580F8235080F805
:10100000241080F825104176C1824175026C52018E
:1010100002F184421561FFF745FD20460A21FFF7E2
:101020002BFEA57620462021FFF764FD20462946A9
:10103000FFF782FE20462946FFF76AFF2046FFF7AA
:101040001BFD38BD10B5044601768262C3624FF4C1
:1010500000330363CB0403F1804202F56C32426338
:10106000334A1A448263334A1A44C263324A1A44E6
:101070000264324A1A444264314A1A448264314A50
:101080001A44C264304A1A440265304A1A4442651E
:101090002F4A1A4482652F4A1A44C2652E4A1A44BE
:1010A00002662E4A1A4442662D4A1A4482662D4A26
:1010B0001A44C2662C4A1A4402672C4A1A444267F0
:1010C0002B4A1A4482672B4A1A44C2672A4A1A4496
:1010D000C0F88020294A1A44C0F88420284A1A44BB
:1010E000C0F88820274A1A44C0F88C20264A1A449F
:1010F000C0F89020254A1A44C0F89420244A1A4483
:10110000C0F89820234A1A44C0F89C20224A1A4466
:10111000C0F8A02001EB8102204B03EBC203C0F812
:10112000A430393180F8A810FFF75AFF204610BDCF
:1011300004B0034008B003400CB0034010B00340BB
:1011400014B0034018B003401CB0034020B003406B
:1011500024B0034050B0034028B003402CB00340FB
:1011600030B0034034B0034038B003403CB00340DB
:1011700040B0034044B0034048B003404CB003408B
:1011800054B0034058B003405CB0034060B003402B
:1011900064B0034068B003406CB00340106003408B
:1011A00010B50446437E13F0FF0F01D0FFF7F8FCA3
:1011B000012284F82220636B5B0103F184439A616E
:1011C00094F8A8104B119B0003F1604303F56143B1
:1011D00001F01F018A401A6010BD00BF282907D8FE
:1011E000836A585C00F01F001F3818BF0120704749
:1011F00000207047836A5B5C13F0800F026C4FEA3B
:10120000421202F1844214BF00210121116172B621
:10121000426B90F8221003F01F0303EB811313605D
:1012200062B6704770B504460E46FFF7D7FF054615
:1012300028B9E38A9BB243F00403E3822BE0637E88
:1012400013F0FF0F02D02046FFF7AAFC636D5B018D
:1012500003F18443DB69003318BF0123237583B195
:1012600072B6636B1B682360E36B1B68E360236CDF
:101270001B682361636D1B686360A36D1B68A360BB
:1012800062B6A36D5B0103F184430022DA6020465D
:101290003146FFF7AFFF284670BD00BF08B5FFF726
:1012A000FFF800F061F908BD08B50022104B1A7074
:1012B000104B186808214FF0FF32FFF781FB0E4BEF
:1012C00093F8002453F822100132D2B283F800249C
:1012D00052B993F8022482F0010283F80224D3F871
:1012E00004240132C3F80424282000F0ABFA08BD1E
:1012F0002599FF1FF498FF1FEC94FF1F10B50446BB
:1013000001F068FB204610BD08B5224B1B78012B6D
:101310001CD013B1022B1CD024E01F4B93F80124E6
:1013200093F800349A4222D11B4B93F8032493F88C
:1013300002349A4207D11AE0174B93F8032482F043
:10134000010283F8032400F023F90BE000F058F9C0
:1013500008E000F063F9114B186808214FF0FF32E4
:10136000FFF72EFB0B4B1A7801321A7008BD0B4B9E
:1013700018684FF0FF31FFF775FB074B93F8012416
:1013800043F822000132D2B283F80124002AD3D0DC
:10139000D9E700BF2599FF1FE490FF1FF498FF1FB6
:1013A00008B5274A92F8003492F801249A422CD1C9
:1013B000234A92F8031492F80224914225D10DE0B9
:1013C0001F4B93F8022482F0010283F80224D3F821
:1013D00004240132C3F804241A4B19601A4B93F801
:1013E000012493F800349A4219D1174B93F803243F
:1013F00093F802349A4221D111E0134B93F803245D
:1014000082F0010283F8032408BD0D4A52F823102C
:101410000133DBB282F80034002BD1D0DCE7FFF7D8
:1014200051FA094B93F8012400F5006043F82200BB
:101430000132D2B283F80124002ADED008BD00BFF9
:10144000E490FF1FF898FF1FEC94FF1F10B50446AF
:10145000002000F067F81348B0FBF4F0421E124B76
:101460009A4207D800EB4000020110481049013AA7
:1014700001F098FA0C2000F057F90E4C206800217A
:101480004FF0FF32FFF788FA206802214FF0FF3259
:10149000FFF778FA0848094940F66F3201F082FAFE
:1014A00010BD00BF40420F0057555505FC98FF1F67
:1014B0009D120000F498FF1F1099FF1FA912000051
:1014C000F8B5124B002483F8004483F8014483F8F4
:1014D000024483F803440E4B83F8004483F801442C
:1014E00083F8024483F803440A4804708027477352
:1014F000094E0A4D31462A4603F0B0FA08480470F6
:10150000477331462A4603F0A9FAF8BDEC94FF1F51
:10151000E490FF1F1099FF1FFD1200006087FF1F5E
:10152000FC98FF1F10B54FF4B27001F073FA044637
:10153000FFF7FCF9034B1C6020460021FFF736FA49
:1015400010BD00BFF498FF1F08B50146044B18708A
:10155000044B18684FF0FF32FFF732FA08BD00BFA6
:101560002499FF1FF498FF1F074B1B785BB2B3F160
:10157000FF3F08D1054B9B69132B04DC0133034A61
:1015800093610821D15470476487FF1F7C99FF1F26
:1015900000B583B00F4B9B69B3F1FF3F0AD00D4AF2
:1015A000D15CC9B28DF80710013B93619DF807200B
:1015B000D2B200E0FF22084B1A701B785BB2B3F185
:1015C000FF3F03D0044B1878FFF7BEFF03B05DF870
:1015D00004FB00BF7C99FF1F6487FF1F064B9B69BC
:1015E000132B04DC0133044A9361C1B2D154034B81
:1015F00053F82000704700BF7C99FF1F2899FF1FF8
:1016000008B5044B1868044B19784FF0FF32FFF708
:10161000D7F908BDF498FF1F2499FF1F10B5064B9A
:101620001C7864B2054B18684FF0FF31FFF71AFAC7
:10163000034B43F8240010BD6487FF1FF498FF1F7D
:101640002899FF1F4FF0FF32014B9A61704700BF8E
:101650007C99FF1F024B1A6801321A60704700BF65
:101660009899FF1F08B50D4C236813F4802F01D003
:1016700000F058FB236813F4806F01D001F09AFD4D
:10168000236813F4006F01D002F046F9236813F4C5
:10169000805FE9D002F0FEFBE6E700BF3480044043
:1016A00008B5FFF7DFFF00BF1022014B1A8070471B
:1016B00000200540704700BF024A136818441060BC
:1016C000184670476887FF1FEFF31383ABB9EFF33A
:1016D0001083ABB9EFF3058323B10F2B05D9094A6A
:1016E000985C03E04FF4807000E00020EFF311837A
:1016F0003BB1834238BF184670474FF0FF30704708
:1017000000207047F0E300E0044B00221A60044917
:101710000A60044A106010221A60704714D0034017
:1017200004D0034000D0034018B1102828BF102077
:1017300000E00120014B1870704700BF6C87FF1F4D
:1017400021281ED80F4B53F8303093F8802212F026
:10175000FF0F08D019B1012283F8802070470122C1
:1017600083F800217047074B03EBC000436821B1A9
:101770001A6842F003021A6070471A6822F00202E7
:101780001A60704730540000212806D8044B53F8E3
:10179000303093F80002C0B270470020704700BF9D
:1017A0003054000021284AD8254B03EBC0035B6866
:1017B000012911D004291DD0214A52F830200020DF
:1017C00082F8800200292FD0022931D003291FD0AE
:1017D00040F203121A607047194A52F83020012172
:1017E00082F880124FF4A2721A601A6822F0200266
:1017F0001A607047124A52F83020012182F8801294
:101800004FF4A2721A601A6842F020021A60704700
:101810004FF480721A601A6842F002021A601A6865
:1018200022F001021A6070474FF480721A6070470C
:101830004FF480721A601A6842F003021A6070470F
:101840003054000010B5044628280FD15D4B1B789A
:101850000B2B03D8C3F10C03994003E00C2B84BF7E
:101860000C3B1941084601F085F910BD554B1B781A
:10187000012202FA03F0002908DC20460021FFF7CC
:101880005FFF20460121FFF78DFF10BD0A46884209
:1018900008D820460121FFF753FF20460121FFF71A
:1018A00081FF10BDE01EC0B2012806D8464800687E
:1018B00000FB011222FA03F310E0202C01D0192CB6
:1018C00006D14248006800FB022222FA03F305E039
:1018D0003F48006800FB011222FA03F3E01E1D28B6
:1018E00064D8DFE800F0474E402B63631D24636338
:1018F0006363636363636332390F16635C636363BB
:1019000063636355334A136040F24442324B1A60BA
:1019100010BD324A136040F24442314B1A6010BD90
:10192000304A136040F244422F4B1A6010BD2F4AD8
:10193000136040F244422E4B1A6010BD2D4A1360D2
:1019400040F244422C4B1A6010BD2C4A136040F206
:1019500044422B4B1A6010BD2A4A136040F24442A5
:10196000294B1A6010BD294A136040F24442284BAB
:101970001A6010BD274A13604FF45172264B1A604B
:1019800010BD264A13604FF45172254B1A6010BDEA
:10199000244A13604FF45172234B1A6010BD234A3E
:1019A00013604FF45172224B1A6010BD20467F29FC
:1019B000D4BF00210121FFF7C3FE20460121FFF71C
:1019C000F1FE10BD6C87FF1F0890034008800B409C
:1019D000088003401080034004B004401880034096
:1019E00008B00440208003400CB00440288003402D
:1019F00010B004403080034010C0044038800340E1
:101A000014C004404080034018C004404880034094
:101A10001CC00440109003403090044018900340D4
:101A20003490044010800B4048A0044018800B40C4
:101A30004CA0044072B60C4B1B680C4A12680C494F
:101A4000096862B611F0806F02D0322B88BF013274
:101A5000C3F5BB33FF330749A1FB03039B094FF4D5
:101A60007A7000FB0230704718E000E09899FF1F81
:101A700004ED00E0ABAAAAAA38B50546FFF7DAFFE5
:101A8000044625B938BD013D0AD004F57A74FFF744
:101A9000D1FF001BB0F57A7FF5D200F0BFFFF6E76B
:101AA00038BD00BF10B5264B4FF400021A604FF04E
:101AB00080721A604FF000721A604FF080621A60F4
:101AC0004FF000621A6000201E4B18604BF6FF7149
:101AD0000433196028231C4A13600832136008324B
:101AE0001360083213600832136008321360083242
:101AF0001360083213600922144C226004F58054EC
:101B000004342060043421600434236008342360EA
:101B1000143C226004F5FE24043420600C4801606B
:101B20000C490B6008310B600B4B1A6000F098FFFA
:101B30004FF4C870FFF7A0FF00F074FC10BD00BFA9
:101B400008E100E0048003400C8003400080034073
:101B500008800B400C800B4000800B4030B40E4BD3
:101B60001B7843F002020D4C04EBC20460600C4889
:101B7000007800280CBF8824C82444EA0141074D9E
:101B800045F8321080F00100054A107083F001031F
:101B9000014A137030BC7047049AFF1F0080FF1F7A
:101BA0007D9AFF1F10B4431E032B11D872B60A4A48
:101BB00052F8230050B14268074941F82320074AF0
:101BC00032F813400188611A22F8131062B600E05F
:101BD00000205DF8044B7047F499FF1FB09CFF1F75
:101BE000013803280DD872B6074B53F820302BB1BB
:101BF000002001305B68002BFBD100E0002062B6C2
:101C000070470020704700BF489AFF1F38B572B672
:101C100001231B491B4C5A1812F8012C12F0080F13
:101C200024D09A0054F832506DB9164B03EBC20120
:101C300008304860144943F83210144B1A78013ABE
:101C40001A7062B638BD42F0010254F832506DB9D4
:101C50000C4B03EBC201083048600D4943F83210C9
:101C60000A4B1A78013A1A7062B638BD0133052B57
:101C7000D1D162B60022054B1A7000F037FC38BD96
:101C8000405500000080FF1F88004000729AFF1F2F
:101C9000C800400010B4431E032B37D8400140F069
:101CA00010001C4A104472B61B4AD25C032A09D8A1
:101CB000DFE802F019021B050830022216E00830A6
:101CC000042213E0154A52F823201AB9134A42F8A5
:101CD000231003E0124A52F823205160104A42F8C0
:101CE000231062B612E0032200E005220A4CE254FF
:101CF00001F10803436000F00803002B0CBF8823A8
:101D0000C8230A8843EA0243036062B65DF8044BC5
:101D1000704700BF0080FF1FB099FF1F489AFF1F48
:101D2000589AFF1F2DE9F84FA34CDFF8E092DFF837
:101D3000E0A2DFF8E0B22578EDB215F0040F1DD077
:101D40009E4B1B7813F0FF0F16D09D4B1B7803F0B2
:101D5000FF022BB1531EDBB2994A137003B900BEC8
:101D6000984B1B7803F0FF0233B1531EDBB2954A48
:101D700013700BB900F016FD0423237015F0080F43
:101D800000F0E48299F80030DBB21D0940F02182B6
:101D90008D4D9E0805EBC6035A6855F83630C3F3DF
:101DA0008303013B0C2B00F21082DFE813F0CB0120
:101DB000CB010E020E020E020E020E020E02E8010E
:101DC0000E020E020E020D00804913680B6052686D
:101DD0004A607F4A45F8362000227E490A607A49E7
:101DE0000A618A6101217C4A11709BB240F28162D2
:101DF000934218D8B3F5D06F2ED2B3F5817F00F09F
:101E00001E8106D8802B00F0C980822B00F0CC8088
:101E100066E140F20232934200F02681B3F5A06FF2
:101E200000F062815CE142F22102934200F086817F
:101E300007D8B3F5086F00F0AB80B3F5106F11D081
:101E40004EE142F22122934200F0418142F22132DE
:101E5000934200F0498143E1604B5D68002D40F002
:101E6000188130E1594B9A78544B1A70564D05F150
:101E700080062B6A13F0800F03D0686A083800F0E0
:101E800035FB0835B542F4D1DFF88C8100263746A2
:101E9000534AB05828B1456800F028FB0DB12846D8
:101EA000F9E700234E4973504E4AB3504E4BF05859
:101EB00028B1456800F01AFB0DB12846F9E7002368
:101EC00049497350494AB35028F8023F484BFB5CDC
:101ED000023B032B0AD8DFE803F0020602060022C9
:101EE000434BDA5502E00122414BDA550137043603
:101EF000102ECDD100223F4B1A7001253E4EDFF847
:101F00001C81314F05EB080313F8013C06F8043B34
:101F100013F0080F2DD000F0C9FA48B1A90007EB63
:101F2000451200F108035360344A47F8312007E0B6
:101F3000AB00002247F833202E4B1A7801321A707A
:101F400000F0B4FA58B1AB0043F0010307EBC30152
:101F500000F108024A601E4A47F8332009E0AB004E
:101F600043F00103002247F83320224B1A78013254
:101F70001A70AA0042F00201002347F8313042F003
:101F8000030247F8323001351D4B9E42BAD11EE2A2
:101F90000A4B1B781B4D2B700127AAE0194D00231B
:101FA0002B706B700227A4E0084B9B88042B37D959
:101FB0000F22154B1A70C1E0802007407C9AFF1F4A
:101FC000059AFF1F7E9AFF1F0080FF1F689AFF1F60
:101FD000C80040009C99FF1F7D9AFF1F44550000D8
:101FE000F499FF1FA099FF1F489AFF1F589AFF1FDF
:101FF000B099FF1F729AFF1FC4200740880040005D
:10200000D4200740749AFF1FC0200740902007404B
:102010009420074098200740AE9CFF1F40550000C9
:10202000A04A0021117051709F4A12F8233013F01A
:10203000020F5CD09B4D01232B70022759E09B4B74
:102040009B8803F07F03042B02DC984A52881AB164
:102050000F22954B1A7071E0934A12F8231021F069
:10206000020102F82310B2E1904B9B8803F07F033A
:10207000042B02DC8D4A52881AB10F228A4B1A7047
:102080005CE0894A12F8231041F0020102F82310A3
:102090009DE1864B5E889F88854BA3F10C0211461B
:1020A00033F80C0CB04209D133F80A0CB84205D110
:1020B000360A032E0CBF2F7817891AE00D690C33EE
:1020C0000C32002DEBD10F22774B1A7036E0794B92
:1020D0001A68794B1A60754B9A78784B1A7076E1CA
:1020E0000F22714B1A7029E000273D4601E00227BC
:1020F0006C4D6E4BDB889F4228BF1F46402F34BF7C
:102100003E46402628463146FFF728FD3544BF1B92
:1021100003D13F2E00F2608110E0402F34BF3E46D5
:10212000402628463146FFF719FD3544BF1B01D133
:102130003F2E03D9624B1D60624B1F8001238AF83A
:10214000003042E0594B198842F22103994212D1E2
:102150005D4BD81D12F8011B03F8011F8342F9D112
:102160005A4B1B68862B02D10F22594B1A70002044
:102170000146FFF7F3FC574B45F8363025E0504B4E
:102180001E68BEB14F4FB7F80080B8F1400F34BFA2
:102190004546402530462946FFF7E0FCC5EB0803DD
:1021A0009BB23B800BB9402D01D1354400E00025A6
:1021B000434B1D603D4B1B88B3F5A06F05D13B4BD6
:1021C00000225A709B788BF8003001238AF8003087
:1021D000B9E0414E9F0806EBC708D8F80420A2F1E9
:1021E0000800013DEDB213F0080F47D000F07EF972
:1021F0003A4B53F825304BB35A68384941F82520FB
:1022000003F10802C8F80420354A525D032A12D8A7
:10221000DFE802F002060A0E0321314A51550AE0B6
:1022200002212F4A515506E005212D4A515502E061
:1022300004212B4A515518F0080F0CBF8822C822E0
:102240001B8842EA034346F837307CE0244B5B5D51
:10225000032B0BD8DFE803F0777702060022204B30
:102260005A5570E001221E4B5A556CE018F0080FC9
:102270000CBF022203221A4B5A5564E056F837303D
:102280001B0C22F8083C002B55D0002322F8063CFA
:1022900042F8043C134B53F825302BBB114B43F849
:1022A000250025E0749AFF1FC0200740689AFF1F91
:1022B000505500009899FF1FC09CFF1F8C9AFF1F6C
:1022C0009C99FF1F709AFF1FB79CFF1FB89CFF1FB0
:1022D000059AFF1FC80040000080FF1F489AFF1F9B
:1022E000B099FF1FF499FF1F3F4B53F825305860FA
:1022F0003D4B43F825003D4B33F8151032F8082CC0
:102300000A4423F8152000F0D1F860B100F1080369
:10231000C8F8043018F0080F354B364A08BF13468A
:1023200046F837300FE0002346F83730324B1A7842
:1023300001321A7007E018F0080F2D4B2D4A08BF24
:10234000134646F8373008232370F4E415F0010FE4
:1023500022D02A4902230B700022294B1A70294BE4
:1023600024481860284C5C6098602848D8601A613E
:102370009A610D20264B1870FF23264803700838F9
:10238000037018300270244A13709F22234B1A7076
:1023900001230B70BDE8F88F15F0800F05D00D22DA
:1023A0001B4B1A708022403B1A7015F0020F06D0AA
:1023B000184B1A78D2B21A700222083B1A7015F024
:1023C000100F0ED01022164B1A70BDE8F88F0020A7
:1023D0000146FFF7C3FBB1E628460021FFF7BEFB2D
:1023E000ACE6BDE8F88F00BFA099FF1FB09CFF1FAF
:1023F000C800400088004000729AFF1F94200740E8
:10240000049AFF1F0080FF1FB499FF1F089AFF1F47
:10241000C0200740882007408C20074084200740C8
:102420008020074008B501F0A9FD00231B491A468A
:102430005A50C81842600833882BF9D1184B1A68D3
:1024400042F480221A60154BC3F30721154A11701C
:10245000C3F30741143211701B0E04321370FF23B3
:10246000343A137008321370783A137001238432AF
:10247000137000216C3211707C3A137070220A4B79
:102480001A704FF40072A3F241331A60102203F164
:10249000C04303F5C8231A7008BD00BF0080FF1FAA
:1024A000348004409C20074049E400E072B60D4BA4
:1024B0001A68B2FA82F30B2B02D962B60020704779
:1024C0004FF00041D94022EA010206490A6062B693
:1024D000054903EBC303DB00C8180022CA50426061
:1024E000704700BF7087FF1F0084FF1F08B50F4BA8
:1024F000C31A0F4AA2FB03131B090B2B14D80D4A56
:1025000012783AB10C4A127812F0FF0F02D0FFF79E
:102510007DFB08BD72B6094A4FF0004121FA03F372
:1025200011681943116062B608BD00BF0084FF1F27
:10253000398EE338729AFF1F7C9AFF1F7087FF1F46
:1025400010B5134B1B6853B9124B1B7813F0FF0FD8
:1025500018D00320FFF726FB0D4B1860A8B10C4BD9
:10256000186843885A1C03441C7A03889A4206D38D
:10257000FFF7BCFF0022064B1A60204610BD4280C8
:10258000204610BD4FF0FF3010BD4FF0FF3010BDA2
:10259000889AFF1F7C9AFF1F08B50D4B1B6883B9F3
:1025A0000C4B1B7813F0FF0F08D00320FFF7FAFA4B
:1025B000074B186028B94FF0FF3008BD4FF0FF30CF
:1025C00008BD034B1B685A881344187A08BD00BF26
:1025D000889AFF1F7C9AFF1F044B9888044B1B6846
:1025E0001BB11A885B88D31A18447047B09CFF1F30
:1025F000889AFF1F10B50B4B1B7813F0FF0F0FD0FD
:10260000094B186820B1FFF771FF0022064B1A60D2
:1026100003242046FFF7C6FA10B1FFF767FFF8E77B
:1026200010BD00BF7C9AFF1F889AFF1F2DE9F0475D
:1026300004460122374B1A700E46002964D0DFF899
:10264000E080DFF8E0909A46334FD8F8003083BB43
:1026500099F8003013F0FF0F06D100222D4B1A70AD
:102660004FF0FF30BDE8F0874AF2F9250420FFF76C
:10267000B7FA07280AD801238AF80030FFF716FFB7
:10268000C8F80000A8B900238AF80030013D01D045
:102690003B7833B10122204B1A704FF0FF30BDE878
:1026A000F08700F0BBF999F8003013F0FF0FDDD18F
:1026B000D3E700233B70D8F800104A88C2F14005E8
:1026C000AE4238BF354602F108030B442A444A8023
:1026D000761B3DB1254414F8012B03F8012BAC42C5
:1026E000F9D100E025464B883F2B07D940230B80CA
:1026F0000420FFF7CFFA0023C8F800300522074B6B
:102700001A700EB12C46A0E70020024B1870BDE8ED
:10271000F08700BF7F9AFF1F849AFF1F7E9AFF1FDA
:10272000809AFF1F7C9AFF1F00B583B002AB03F8AD
:10273000010D18460121FFF779FF03B05DF804FB96
:1027400010B5144B1B7813F0FF0F21D00122124B50
:102750001A70124B196851B10024114B1C704B8830
:102760000B800420FFF796FA0C4B1C600DE0FFF77E
:102770009DFE014630B10022094B1A700420FFF77C
:1027800089FA02E00122064B1A700022024B1A70ED
:1027900010BD00BF7C9AFF1F7F9AFF1F809AFF1F0A
:1027A0007E9AFF1F08B50E4B1B7813F0FF0F16D152
:1027B0000C4B196841B14B880B800420FFF76AFA73
:1027C0000022084B1A6008BDFFF770FE014618B1E1
:1027D0000420FFF75FFA08BD0122034B1A7008BD01
:1027E0007F9AFF1F809AFF1F7E9AFF1F08B5012264
:1027F000024B1A60024B1B68984708BD0C710340DE
:10280000989AFF1F08B50122024B1A60024B5B68C1
:10281000984708BD1C710340989AFF1F08B5012214
:10282000024B1A60024B9B68984708BD2C7103400D
:10283000989AFF1F08B50122024B1A60024BDB6811
:10284000984708BD3C710340989AFF1F054B1A68D2
:1028500042F400021A600022034B1A600122034B6B
:102860001A7070473C80044000700340949AFF1F28
:102870000122064B1A6003F588333C331A6822F4B0
:1028800000021A600022024B1A7070470070034069
:10289000949AFF1F10B442781401164B23444360EE
:1028A000154B234483600369144C44F82230836839
:1028B00000221A6043681960836803221A60437813
:1028C0004433DBB2037303F1604303F56443427B9B
:1028D0001A70027B53119B0003F1604303F56143BF
:1028E00002F01F02012101FA02F21A605DF8044BA6
:1028F000704700BF0071034008710340989AFF1FA2
:1029000070B504460D46134B1B780BB9FFF79EFFBD
:10291000114B1B788BB1104B5B7843B10E4B9B78FE
:1029200043B10D4BDB789BB903231E4607E001231F
:102930001E4604E002231E4601E000263346637073
:1029400020462946FFF7A6FF0120034B985570BD8E
:10295000002070BD949AFF1F909AFF1F10B58368E6
:1029600000221A60037B5C1103F01F03012101FAAE
:1029700003F30A4941F82430094B41785A541B7833
:1029800053B9074B5B783BB9054B9B7823B9044B94
:10299000DB780BB9FFF76CFF10BD00BF80E100E0F2
:1029A000909AFF1F70B504460E46154603781BB17A
:1029B000FFF7D4FF00232370266120462946FFF746
:1029C0009FFF10B10123237001E0002323702078C2
:1029D00070BD00BF10B5044603780BB1FFF7BEFF12
:1029E0000023237010BD00BF10B4401A019CE41AEC
:1029F00004FB00F4521A94FBF2F018445DF8044B07
:102A0000704700BF08B5FDF72DFDFDF77DFF00F015
:102A100005F8FAE708B502F059F808BD08B50F4BFC
:102A20001B78CBB901220D4B1A70FFF7D5FD08B109
:102A300001F0EEFC00F034FB08B101F075FB00F092
:102A4000E1FE08B101F012FC01F0AEF908B101F0AD
:102A5000AFFC0022014B1A7008BD00BFA89AFF1FEF
:102A600060223A4B1A70E12201331A70384B1B78FE
:102A7000082B10D1012203F1804303F56C331A6057
:102A8000132334490B6001F5FF2101F2FC710A6048
:102A9000314A13601FE00A2B0DD139222F4B1A60E7
:102AA00013232C490B6001F5FF2101F2FC710A6030
:102AB000294A13600FE00C2B0CBF35223D22274B17
:102AC0001A60122323490B6001F5FF2101F2FC710A
:102AD0000A60214A1360224B1B7833B10123214A3B
:102AE000136002F50022136005E000231D4A136005
:102AF00002F5002213601C4B1B78012B06D88023A3
:102B00001A4A136002F5002213601AE0042B06D85B
:102B10008423164A136002F50022136011E0082B8B
:102B200006D88523114A136002F50022136008E0DD
:102B3000102B94BF862387230C4A136002F50022D2
:102B4000136001220A4B1A70704700BF0040074013
:102B50007487FF1F0CB003400CB00B4008B003405B
:102B6000AA9AFF1F20B003407587FF1F24B00340BF
:102B7000A99AFF1F094B1A6842F480521A60084B49
:102B80001B781BB18022074B1A7002E0C022054B54
:102B90001A7080F30C00044B188070472C8004409E
:102BA000AA9AFF1F21C00C4000C00C40254B1A6898
:102BB00042F480621A600023234A1370234A137080
:102BC000234A1370234A1370234A1370234B1B7834
:102BD00013B1152B05D008E040F21332204B1A60D8
:102BE00003E040F213321F4B1A601F4B1B78012B7E
:102BF00002D0052B05D008E04FF451721B4B1A6030
:102C000003E04FF451721A4B1A60C0F34432194B6F
:102C10001A70C0F347125A7000F01F009872042215
:102C20009A700221D9745A7588221A743C22DA707B
:102C30004022114B1A704FF40052A3F229331A604C
:102C4000704700BF34800440389BFF1FB19AFF1FBC
:102C5000409BFF1F399BFF1FB09AFF1FF49AFF1F75
:102C600040A0044018C004407687FF1F44A00440E1
:102C70001CC0044000A006402DE400E0164B9B78E9
:102C800003F0EC0300F00302134310F0040F18BF2D
:102C900043F01003104A937000F00F03042B04D18B
:102CA0001346927942F040029A710B4B5A7902F026
:102CB000EF0210F0100F18BF42F01002064B5A71CD
:102CC0009B7903F0EF0310F0200F18BF43F01003BF
:102CD000014A9371704700BF00A0064010B5144B25
:102CE0001B6813F4806F21D0124B1B7813F0FF0F79
:102CF00006D0104CFFF792FE237813F0FF0FF9D1A6
:102D00004FF400520C4B1A6000230C4AD37040F26F
:102D100003120B490A6004310A600A4A13700A4A16
:102D200013700A4B1B680BB101221A7010BD00BF53
:102D300034800440B09AFF1F84E100E000A0064008
:102D400040A00440389BFF1FB19AFF1FAC9AFF1FA1
:102D500010B50446094A137813F0FF0FFBD1204643
:102D60000121FEF71FFD20460021FEF7E9FC044B80
:102D700053F83420034B1A6010BD00BFB09AFF1FF8
:102D8000305400003C9BFF1F10B40C4609B140F0CA
:102D90008000184B1B78984228D0174A126812F40A
:102DA000806F21D003F07F03012B02D0052B04D0CC
:102DB00006E00022114B1A6002E00022104B1A605C
:102DC000002C0CBF4422602200F07F03012B02D0B4
:102DD000052B05D008E042F44072084B1A6003E06E
:102DE00042F44072064B1A60024B18705DF8044BB7
:102DF000704700BF7687FF1F3480044044A0044022
:102E00001CC00440114B1B7898421ED0104A126817
:102E100012F4806F17D013B1152B04D006E00022F6
:102E20000C4B1A6002E000220B4B1A6010B11528FF
:102E300005D008E040F21332064B1A6003E040F27E
:102E40001332054B1A60014B18707047F49AFF1F3C
:102E50003480044040A0044018C0044010B50D4B1D
:102E60001B6813F4806F12D021280CD80A4C0B4B2E
:102E700053F8303023600121FEF794FC23680022D0
:102E80001A70012010BD0020034B186010BD0020F7
:102E900010BD00BF34800440AC9AFF1F30540000C6
:102EA000114B1B6813F4806F1BD0122804D140F221
:102EB00002320E4B1A600DE0142804D140F20232A7
:102EC0000B4B1A6006E00B4B5A7B02F0FE025A7362
:102ED00000207047074B5A7B42F001025A730120D1
:102EE00070470020704700BF348004400CA00440AD
:102EF00014C0044000A006402DE9F04107461F4BD6
:102F00001B6813F4806F37D01D4B1B680BB1012277
:102F10001A701C4B1C780134402C28BF00241A4D19
:102F20001A4EDFF86C8017E0FEF7CEFB40280FDC6E
:102F3000337913F0800F0FD02B780133402B28BF4B
:102F4000002318F80320D2B2F271DBB22B7003E039
:102F5000FF2801DDFFF762FD2B78DBB29C42E3D056
:102F6000FFB20B4B1F5501220A4B1A70E4B2054BFE
:102F70001C70BC22054BDA70BDE8F081348004403F
:102F80003C9BFF1F409BFF1F399BFF1F00A006407B
:102F9000B49AFF1FB09AFF1F2DE9F84F0746284B40
:102FA0001B6813F4806F49D0264B1B680BB10122BC
:102FB0001A7007EB010B5F453DD2DFF89890224E67
:102FC000DFF88C80DFF890A099F800400134402CA5
:102FD00028BF00243578EDB2A54220D1BC2388F863
:102FE0000330FEF771FB402811DC98F8043013F031
:102FF000800F10D033780133402B28BF00231AF8FC
:103000000320D2B288F80720DBB2337003E0FF2838
:1030100001DDFFF703FD3378DBB29D42E1D017F805
:10302000013B0AF804300122084B1A70E4B289F817
:1030300000405F45C8D1BC22054BDA70BDE8F88F6F
:10304000348004403C9BFF1F399BFF1FB09AFF1F39
:1030500000A00640409BFF1FB49AFF1F10B5064B0F
:103060001B7813F0FF0F06D0034CFFF7D7FC237833
:1030700013F0FF0FF9D110BDB09AFF1F064B1B785C
:10308000DBB2064A1278D2B293422CBF3F3202F131
:10309000FF32D01A704700BF409BFF1F399BFF1FB4
:1030A000054B1878C0B2054B1B78DBB2984238BF8D
:1030B0004030C01A704700BF389BFF1FB19AFF1FF6
:1030C00010B4184B1A78D2B2174B1B78DBB29A4265
:1030D00018D001333F2B18D81449C85CC0B2DCB2F9
:1030E00011490C7012490968C9B19A4203D300E032
:1030F0000023D31A01E04032D31A1A2B0FDC00232D
:103100000B700CE04FF0FF3009E0084B1878C0B2AC
:103110000021054B1970064B19680029E8D15DF8AC
:10312000044B7047389BFF1FB19AFF1FF89AFF1F8F
:10313000AC9AFF1F094B1A78D2B2094B1B78DBB24D
:103140009A4207D00133402B28BF0023054AD05CA8
:10315000C0B270474FF0FF30704700BF389BFF1F71
:10316000B19AFF1FF89AFF1F0D4B1B6813F4806F75
:1031700014D00C4BDA7802F0CB02DA7040225A7489
:10318000DA7842F03402DA70074B1A78D2B2074B81
:103190001A70074B1B680BB100221A70704700BFF2
:1031A0003480044000A00640B19AFF1F389BFF1FE7
:1031B000AC9AFF1F70B43D4B1B7913F0300F33D026
:1031C00072B63A4B9B7D03F0FF022BB9374BDA798D
:1031D00040225A7462B627E062B6354B1978C9B2FC
:1031E000344B1C78E4B2314D334EEB79D8B24B1CE2
:1031F000402B28BF0023A3421CBFF0541946531E86
:1032000013F0FF02F1D1CAB2294B1A702B4B1B6885
:1032100053B1A1422EBFC4EB0101C4F1400409190E
:103220002729C4BF01221A70204BDA78D2B212F0DB
:10323000800F27D01B7913F0800F23D0204B1C78F0
:10324000E4B2204B1B78DBB29C4210D017491E4DD4
:1032500001E0A3420BD00133402B28BF00230879A3
:10326000E85CC0B2C871087DC0B20728F1D9DBB2F2
:1032700014490B700D4B1B7913F0800F02D07C2189
:103280000A4BD97012F0400F0ED0084B1B7913F087
:10329000400F09D000220D4B1A700D4B1B6803B173
:1032A0001A703C22014BDA7070BC704700A00640D7
:1032B000389BFF1FB19AFF1FF89AFF1FAC9AFF1FA0
:1032C000409BFF1F399BFF1FB49AFF1FB09AFF1F3F
:1032D0003C9BFF1F254B1A6842F400621A600023D2
:1032E000234A1370234A1370234A1370234A13701E
:1032F000234A1370234B1B78092B02D01A2B05D0BD
:1033000008E040F21332204B1A6003E040F213321F
:103310001E4B1A601E4B1B780A2B02D01F2B05D0A8
:1033200008E04FF451721B4B1A6003E04FF45172E6
:10333000194B1A60C0F34432184B1A70C0F347128D
:103340005A7000F01F00987204229A700221D974FA
:103350005A7588221A743C22DA704022104B1A7077
:103360004FF40042A3F22B331A60704734800440BC
:10337000B49BFF1F499BFF1FBC9BFF1FB59BFF1FFB
:10338000489BFF1F7787FF1F0CB0044004D0044008
:103390007887FF1F10B0044000D0044000B0064002
:1033A0002FE400E0164B9B7803F0EC0300F00302DF
:1033B000134310F0040F18BF43F01003104A93702A
:1033C00000F00F03042B04D11346927942F040021F
:1033D0009A710B4B5A7902F0EF0210F0100F18BFE0
:1033E00042F01002064B5A719B7903F0EF0310F084
:1033F000200F18BF43F01003014A9371704700BFBC
:1034000000B0064010B5224B1B6813F4006F3ED08D
:10341000204B1B7813F0FF0F06D01E4CFFF7FEFA6F
:10342000237813F0FF0FF9D14FF400421A4B1A60C2
:1034300000221A4BDA701A4B1B78092B02D01A2B78
:1034400005D008E040F20312164B1A6003E040F288
:103450000312154B1A60154B1B7803F07F030A2BE0
:1034600002D01F2B05D008E040F20312104B1A6067
:1034700003E040F203120F4B1A6000230E4A137050
:103480000E4A13700E4B1B680BB101221A7010BD4F
:1034900034800440489BFF1F84E100E000B00640F8
:1034A0007787FF1F0CB0044004D004407887FF1FCB
:1034B00010B0044000D00440B49BFF1F499BFF1F85
:1034C000449BFF1F10B50446094A137813F0FF0F01
:1034D000FBD120460121FEF765F920460021FEF7C9
:1034E0002FF9044B53F83420034B1A6010BD00BF72
:1034F000489BFF1F30540000B89BFF1F10B40C46C0
:1035000009B140F08000184B1B78984228D0174A28
:10351000126812F4006F21D003F07F030A2B02D04F
:103520001F2B04D006E00022114B1A6002E000229B
:10353000104B1A60002C0CBF4422602200F07F0365
:103540000A2B02D01F2B05D008E042F44072084B32
:103550001A6003E042F44072064B1A60024B187086
:103560005DF8044B704700BF7887FF1F348004402C
:1035700010B0044000D00440124B1B78984220D079
:10358000114A126812F4006F19D0092B02D01A2BBD
:1035900004D006E000220D4B1A6002E000220C4B22
:1035A0001A60092802D01A2805D008E040F2133228
:1035B000064B1A6003E040F21332054B1A60014BD0
:1035C000187070477787FF1F348004400CB00440A8
:1035D00004D0044010B50D4B1B6813F4006F12D0DB
:1035E00021280CD80A4C0B4B53F8303023600121B2
:1035F000FEF7D8F8236800221A70012010BD0020C1
:10360000034B186010BD002010BD00BF3480044083
:10361000449BFF1F305400000D4B1B6813F4006FD8
:1036200013D017280AD140F202320A4B1A600A4B13
:103630005A7B42F001025A7301207047064B5A7BB5
:1036400002F0FE025A73002070470020704700BF4E
:103650003480044008B0044000B006402DE9F04139
:1036600007461F4B1B6813F4006F37D01D4B1B68B8
:103670000BB101221A701C4B1C780134282C28BF76
:1036800000241A4D1A4EDFF86C8017E0FEF71CF884
:1036900040280FDC337913F0800F0FD02B780133E3
:1036A000282B28BF002318F80320D2B2F271DBB216
:1036B0002B7003E0FF2801DDFFF7B0F92B78DBB2B8
:1036C0009C42E3D0FFB20B4B1F5501220A4B1A70EC
:1036D000E4B2054B1C70BC22054BDA70BDE8F081EA
:1036E00034800440B89BFF1FBC9BFF1FB59BFF1F8E
:1036F00000B006404C9BFF1F489BFF1F2DE9F84F71
:103700000746284B1B6813F4006F49D0264B1B68F3
:103710000BB101221A7007EB010B5F453DD2DFF8B8
:103720009890224EDFF88C80DFF890A099F8004046
:103730000134282C28BF00243578EDB2A54220D1D1
:10374000BC2388F80330FDF7BFFF402811DC98F850
:10375000043013F0800F10D033780133282B28BFAA
:1037600000231AF80320D2B288F80720DBB23370A6
:1037700003E0FF2801DDFFF751F93378DBB29D420A
:10378000E1D017F8013B0AF804300122084B1A7007
:10379000E4B289F800405F45C8D1BC22054BDA701D
:1037A000BDE8F88F34800440B89BFF1FB59BFF1F16
:1037B000489BFF1F00B00640BC9BFF1F4C9BFF1F98
:1037C00010B5064B1B7813F0FF0F06D0034CFFF724
:1037D00025F9237813F0FF0FF9D110BD489BFF1F87
:1037E000064B1B78DBB2064A1278D2B293422CBF4A
:1037F000273202F1FF32D01A704700BFBC9BFF1F77
:10380000B59BFF1F054B1878C0B2054B1B78DBB288
:10381000984238BF4030C01A704700BFB49BFF1FAA
:10382000499BFF1F10B4184B1A78D2B2174B1B7864
:10383000DBB29A4218D001333F2B18D81449C85C28
:10384000C0B2DCB211490C7012490968C9B19A4280
:1038500003D300E00023D31A01E04032D31A1A2B1D
:103860000FDC00230B700CE04FF0FF3009E0084B39
:103870001878C0B20021054B1970064B1968002951
:10388000E8D15DF8044B7047B49BFF1F499BFF1FB5
:10389000749BFF1F449BFF1F094B1A78D2B2094B40
:1038A0001B78DBB29A4207D00133402B28BF00239C
:1038B000054AD05CC0B270474FF0FF30704700BF80
:1038C000B49BFF1F499BFF1F749BFF1F0D4B1B6881
:1038D00013F4006F14D00C4BDA7802F0CB02DA70DC
:1038E00040225A74DA7842F03402DA70074B1A78C0
:1038F000D2B2074B1A70074B1B680BB100221A702B
:10390000704700BF3480044000B00640499BFF1F51
:10391000B49BFF1F449BFF1F70B43D4B1B7913F0FA
:10392000300F33D072B63A4B9B7D03F0FF022BB9B8
:10393000374BDA7940225A7462B627E062B6354BCB
:103940001978C9B2344B1C78E4B2314D334EEB795F
:10395000D8B24B1C402B28BF0023A3421CBFF054FD
:103960001946531E13F0FF02F1D1CAB2294B1A7047
:103970002B4B1B6853B1A1422EBFC4EB0101C4F114
:10398000400409192729C4BF01221A70204BDA7894
:10399000D2B212F0800F27D01B7913F0800F23D002
:1039A000204B1C78E4B2204B1B78DBB29C4210D039
:1039B00017491E4D01E0A3420BD00133282B28BF2D
:1039C00000230879E85CC0B2C871087DC0B207283E
:1039D000F1D9DBB214490B700D4B1B7913F0800F3A
:1039E00002D07C210A4BD97012F0400F0ED0084B48
:1039F0001B7913F0400F09D000220D4B1A700D4BAC
:103A00001B6803B11A703C22014BDA7070BC70471E
:103A100000B00640B49BFF1F499BFF1F749BFF1F14
:103A2000449BFF1FBC9BFF1FB59BFF1F4C9BFF1FB1
:103A3000489BFF1FB89BFF1F174B1A6842F4805228
:103A40001A600023154A1370154A1370154A137033
:103A5000154A1370154A137040F21331144A11605D
:103A60004FF4517104321160C0F34431114A1170A6
:103A7000C0F34711517000F01F00907293701374DF
:103A80002C23D37040220C4B1A704FF40032A3F257
:103A90002D331A60704700BF34800440309CFF1FF4
:103AA000C59BFF1F389CFF1F319CFF1FC49BFF1F3E
:103AB00008C0044000C0064031E400E0164B9B788B
:103AC00003F0EC0300F00302134310F0040F18BFDF
:103AD00043F01003104A937000F00F03042B04D13D
:103AE0001346927942F040029A710B4B5A7902F0D8
:103AF000EF0210F0100F18BF42F01002064B5A717F
:103B00009B7903F0EF0310F0200F18BF43F0100370
:103B1000014A9371704700BF00C0064010B5144BB6
:103B20001B6813F4805F21D0124B1B7813F0FF0F3A
:103B300006D0104CFEF772FF237813F0FF0FF9D177
:103B40004FF400320C4B1A6000230C4AD37040F241
:103B500003120B490A6004310A600A4A13700A4AC8
:103B600013700A4B1B680BB101221A7010BD00BF05
:103B700034800440C49BFF1F84E100E000C0064085
:103B800008C00440309CFF1FC59BFF1FC09BFF1F48
:103B900010B50446094A137813F0FF0FFBD12046F5
:103BA0000121FDF7FFFD20460021FDF7C9FD044B73
:103BB00053F83420034B1A6010BD00BFC49BFF1F95
:103BC00030540000349CFF1F10B40C4609B140F083
:103BD0008000104B1B78984219D00F4A126812F4DB
:103BE000805F12D003F07F03082B02D100220B4B21
:103BF0001A60002C0CBF4422602200F07F03082BC7
:103C000003D142F44072054B1A60024B18705DF804
:103C1000044B70477987FF1F348004400CC0044078
:103C2000704700BF10B50D4B1B6813F4805F12D0B6
:103C300021280CD80A4C0B4B53F83030236001215B
:103C4000FDF7B0FD236800221A70012010BD00208E
:103C5000034B186010BD002010BD00BF348004402D
:103C6000C09BFF1F305400000D4B1B6813F4805F96
:103C700013D00E280AD140F202320A4B1A600A4BC6
:103C80005A7B42F001025A7301207047064B5A7B5F
:103C900002F0FE025A73002070470020704700BFF8
:103CA0003480044004C0044000C006402DE9F041C7
:103CB00007461F4B1B6813F4805F37D01D4B1B68F2
:103CC0000BB101221A701C4B1C780134282C28BF20
:103CD00000241A4D1A4EDFF86C8017E0FDF7F4FC53
:103CE00040280FDC337913F0800F0FD02B7801338D
:103CF000282B28BF002318F80320D2B2F271DBB2C0
:103D00002B7003E0FF2801DDFEF788FE2B78DBB285
:103D10009C42E3D0FFB20B4B1F5501220A4B1A7095
:103D2000E4B2054B1C70AC22054BDA70BDE8F081A3
:103D300034800440349CFF1F389CFF1F319CFF1FC0
:103D400000C00640C89BFF1FC49BFF1F38B5054637
:103D50000C4629B115F8010BFFF7A8FF013CF9D17A
:103D600038BD00BF10B5064B1B7813F0FF0F06D00F
:103D7000034CFEF753FE237813F0FF0FF9D110BD6B
:103D8000C49BFF1F064B1B78DBB2064A1278D2B2E7
:103D900093422CBF273202F1FF32D01A704700BF86
:103DA000389CFF1F319CFF1F054B1878C0B2054B94
:103DB0001B78DBB2984238BF4030C01A704700BF52
:103DC000309CFF1FC59BFF1F10B4184B1A78D2B24E
:103DD000174B1B78DBB29A4218D001333F2B18D80F
:103DE0001449C85CC0B2DCB211490C7012490968B0
:103DF000C9B19A4203D300E00023D31A01E0403254
:103E0000D31A1A2B0FDC00230B700CE04FF0FF309D
:103E100009E0084B1878C0B20021054B1970064B19
:103E200019680029E8D15DF8044B7047309CFF1FEA
:103E3000C59BFF1FF09BFF1FC09BFF1F094B1A78FC
:103E4000D2B2094B1B78DBB29A4207D00133402B28
:103E500028BF0023054AD05CC0B270474FF0FF3046
:103E6000704700BF309CFF1FC59BFF1FF09BFF1FCB
:103E7000054B1A78D2B2054B1A70054B1B680BB173
:103E800000221A70704700BFC59BFF1F309CFF1FA8
:103E9000C09BFF1F2F4B1B7913F0200F23D02D4BFE
:103EA000DB79D9B22C4B1B780133402B28BF002380
:103EB0002A4A1278D2B29A4204D0294AD154D9B2AD
:103EC000254A1170274A116869B1274A1278D2B27F
:103ED00093422EBFC2EB0303C2F140029B18272B73
:103EE000C4BF01230B701B4BDB78DBB213F0800FD8
:103EF0001CD0184A127912F0800F17D01B4A117883
:103F0000C9B2194A1278D2B2914203D16C21114A36
:103F1000D1700BE00132282A28BF00221449885CA6
:103F2000C0B20C49C871D2B20F490A7013F0400FE9
:103F30000ED0084B1B7913F0400F09D000220D4B17
:103F40001A700D4B1B6803B11A702C22014BDA70EA
:103F5000704700BF00C00640309CFF1FC59BFF1F7D
:103F6000F09BFF1FC09BFF1F319CFF1F389CFF1F52
:103F7000C89BFF1FC49BFF1F349CFF1F00B585B06B
:103F800072B61B4B70221A7041211A4A11700F2110
:103F9000013A117080221A701A46137813F0800FBC
:103FA000FBD0154B186862B6144B98429CBF00EBCF
:103FB0008000400001A90A2200F03AFA9DF804307E
:103FC0007BB908E001A9595C31B19180023201331B
:103FD0000A2BF7D100E0002301335B00084A13707D
:103FE00003E0074A53800123ECE705B05DF804FBCA
:103FF0000000024007000240080002407F9698003F
:104000000888FF1F08B503681B68C9B2984708BD38
:1040100008B503681B68C9B2984708BD08B50368AE
:104020001B68C9B2984708BD08B503681B68C9B2C8
:10403000984708BD08B54B0803F1376000F5D83044
:10404000B0FBF1F0FEF7B2FD08BD00BF10B514469D
:104050004B0803F1376000F5D830B0FBF1F0FEF704
:10406000A5FD2046FEF70AFE10BD00BF08B5FEF70D
:1040700035FE08BD08B50846FEF76AFE08BD00BF5C
:1040800008B50846FEF7BEFE08BD00BF08B50846E5
:104090001146FEF779FE08BD08B50846FEF7DEFEBC
:1040A000003018BF012008BD08B50846FEF7F8FE2D
:1040B000003018BF012008BD08B5FEF7F1FF08BDAC
:1040C00008B5FFF737F808BD08B5FEF7F9FF08BDDA
:1040D00008B5FEF7C3FF08BD08B5FFF745F808BDF2
:1040E00008B5FEF7CBFF08BD08B50846FEF704FF8C
:1040F000012008BD08B50846FEF7FEFE012008BDF8
:1041000010B5144608461146FEF746FF204610BD7E
:1041100038B50D46084600F093FF04462846214670
:10412000FEF73AFF204638BD704700BF044B00221F
:104130001A714FF47A7199601A73024A1A607047C3
:104140003C9CFF1FA055000008B503681B68C9B25E
:10415000984708BD08B503681B68C9B2984708BDF1
:1041600008B503681B68C9B2984708BD08B503685D
:104170001B68C9B2984708BD08B54B0803F1376002
:1041800000F5D830B0FBF1F0FFF7A4F808BD00BF90
:1041900010B514464B0803F1376000F5D830B0FB7A
:1041A000F1F0FFF797F82046FFF7FCF810BD00BFCD
:1041B00008B5FFF727F908BD08B50846FFF782F9EB
:1041C00008BD00BF08B50846FFF7D6F908BD00BF17
:1041D00008B508461146FFF791F908BD08B508462D
:1041E000FFF7F8F9003018BF012008BD08B50846F0
:1041F000FFF712FA003018BF012008BD08B5FFF71D
:1042000001FB08BD08B5FFF747FB08BD08B5FFF780
:1042100009FB08BD08B5FFF7D3FA08BD08B5FFF7DD
:1042200055FB08BD08B5FFF7DBFA08BD08B5084621
:10423000FFF714FA012008BD08B50846FFF70EFA8B
:10424000012008BD10B5144608461146FFF756FA7E
:10425000204610BD38B50D46084600F0F1FE044674
:1042600028462146FFF74AFA204638BD704700BF6E
:10427000044B00221A714FF47A7199601A73024A42
:104280001A6070474C9CFF1F0056000008B5036879
:104290001B68C9B2984708BD08B503681B68C9B256
:1042A000984708BD08B503681B68C9B2984708BDA0
:1042B00008B503681B68C9B2984708BD08B54B0824
:1042C00003F1B76000F55840B0FBF1F0FFF7B4FB25
:1042D00008BD00BF10B514464B0803F1B76000F5E8
:1042E0005840B0FBF1F0FFF7A7FB2046FFF7E6FBD5
:1042F00010BD00BF08B5FFF711FC08BD08B50846A2
:10430000FFF746FC08BD00BF08B50846FFF788FC6C
:1043100008BD00BF08B508461146FFF755FC08BDAB
:1043200008B50846FFF77EFC003018BF012008BD25
:1043300008B50846FFF798FC003018BF012008BDFB
:1043400008B5FFF731FD08BD08B5FFF777FD08BDDB
:1043500008B5FFF739FD08BD08B5FFF703FD08BD37
:1043600008B5FFF785FD08BD08B5FFF70BFD08BDD3
:1043700008B50846FFF79AFC012008BD08B50846B5
:10438000FFF794FC012008BD10B5144608461146FD
:10439000FFF7DCFC204610BD38B50D46084600F09E
:1043A0004FFE044628462146FFF7D0FC204638BD84
:1043B000704700BF044B00221A714FF47A71996064
:1043C0001A73024A1A6070475C9CFF1F6056000017
:1043D00008B5FEF701F908BD08B5FEF7B1F808BD4C
:1043E00008B5FEF7D9F808BD08B5FEF7A9F908BD6C
:1043F00008B5FEF7FFF808BD08B50846FEF794F9C2
:1044000008BD00BF08B508461146FEF70FF908BD04
:10441000704700BF044B00221A714FF47A71996003
:104420001A73024A1A6070476C9CFF1FC056000046
:1044300030B40023B0FBF2F402FB14041D46092C37
:1044400094BF30343734E4B2CC54B0FBF2F008B14E
:104450000133EFE70D4400226A70934207DD885C68
:10446000CC5C8C54C8540132013B9A42F7DB0846BD
:1044700030BC704780F0004002E000BF81F0004196
:1044800042001FBF5FEA410392EA030F7FEA226CFA
:104490007FEA236C6AD04FEA1262D2EB1363C1BF8A
:1044A000D218414048404140B8BF5B42192B88BFF9
:1044B000704710F0004F40F4000020F07F4018BF1C
:1044C000404211F0004F41F4000121F07F4118BF3C
:1044D000494292EA030F3FD0A2F1010241FA03FCE4
:1044E00010EB0C00C3F1200301FA03F100F00043CC
:1044F00002D5494260EB4000B0F5000F13D3B0F194
:10450000807F06D340084FEA310102F10102FE2A02
:1045100051D2B1F1004F40EBC25008BF20F0010072
:1045200040EA03007047490040EB000010F4000F20
:10453000A2F10102EDD1B0FA80FCACF1080CB2EBB3
:104540000C0200FA0CF0AABF00EBC2505242184312
:10455000BCBFD0401843704792F0000F81F40001B7
:1045600006BF80F400000132013BB5E74FEA41038A
:104570007FEA226C18BF7FEA236C21D092EA030FF6
:1045800004D092F0000F08BF0846704790EA010F70
:104590001CBF0020704712F07F4F04D1400028BF9D
:1045A00040F00040704712F100723CBF00F500007F
:1045B000704700F0004343F0FE4040F400007047B5
:1045C0007FEA226216BF08467FEA23630146420261
:1045D00006BF5FEA412390EA010F40F48000704774
:1045E0004FF0000304E000BF10F0004348BF40421A
:1045F0005FEA000C08BF704743F0964301464FF056
:1046000000001CE050EA010208BF70474FF00003B1
:104610000AE000BF50EA010208BF704711F00043F2
:1046200002D5404261EB41015FEA010C02BF8446C2
:104630000146002043F0B64308BFA3F18053A3F521
:104640000003BCFA8CF2083AA3EBC25310DB01FA68
:1046500002FC634400FA02FCC2F12002BCF1004FEC
:1046600020FA02F243EB020008BF20F0010070477D
:1046700002F1200201FA02FCC2F1200250EA4C00D1
:1046800021FA02F243EB020008BF20EADC70704717
:104690004FF0FF0C1CEAD0521EBF1CEAD15392EA25
:1046A0000C0F93EA0C0F6FD01A4480EA010C400201
:1046B00018BF5FEA41211ED04FF0006343EA50105B
:1046C00043EA5111A0FB01310CF00040B1F5000F9D
:1046D0003EBF490041EAD3715B0040EA010062F14C
:1046E0007F02FD2A1DD8B3F1004F40EBC25008BF36
:1046F00020F00100704790F0000F0CF0004C08BF54
:1047000049024CEA502040EA51207F3AC2BFD2F120
:10471000FF0340EAC250704740F400004FF000032E
:10472000013A5DDC12F1190FDCBF00F00040704768
:10473000C2F10002410021FA02F1C2F1200200FAA6
:1047400002FC5FEA310040F1000053EA4C0308BF6D
:1047500020EADC70704792F0000F00F0004C02BFBE
:10476000400010F4000F013AF9D040EA0C0093F039
:10477000000F01F0004C02BF490011F4000F013B93
:10478000F9D041EA0C018FE70CEAD15392EA0C0F01
:1047900018BF93EA0C0F0AD030F0004C18BF31F06C
:1047A000004CD8D180EA010000F00040704790F042
:1047B000000F17BF90F0004F084691F0000F91F0E6
:1047C000004F14D092EA0C0F01D142020FD193EAAC
:1047D0000C0F03D14B0218BF084608D180EA010034
:1047E00000F0004040F0FE4040F40000704740F010
:1047F000FE4040F4400070474FF0FF0C1CEAD052DE
:104800001EBF1CEAD15392EA0C0F93EA0C0F69D039
:10481000A2EB030280EA010C49024FEA402037D0A4
:104820004FF0805343EA111143EA10130CF000409B
:104830008B4238BF5B0042F17D024FF4000C8B428B
:1048400024BF5B1A40EA0C00B3EB510F24BFA3EB6B
:10485000510340EA5C00B3EB910F24BFA3EB91033B
:1048600040EA9C00B3EBD10F24BFA3EBD10340EA95
:10487000DC001B0118BF5FEA1C1CE0D1FD2A3FF6DB
:1048800050AF8B4240EBC25008BF20F00100704790
:104890000CF0004C4CEA50207F32C2BFD2F1FF0333
:1048A00040EAC250704740F400004FF00003013A64
:1048B00037E792F0000F00F0004C02BF400010F408
:1048C000000F013AF9D040EA0C0093F0000F01F01C
:1048D000004C02BF490011F4000F013BF9D041EA3E
:1048E0000C0195E70CEAD15392EA0C0F08D1420271
:1048F0007FF47DAF93EA0C0F7FF470AF084676E744
:1049000093EA0C0F04D14B023FF44CAF08466EE71C
:1049100030F0004C18BF31F0004CCAD130F00042EA
:104920007FF45CAF31F000437FF43CAF5FE700BF42
:104930004FF0FF3C06E000BF4FF0010C02E000BF6B
:104940004FF0010C4DF804CD4FEA40024FEA41030D
:104950007FEA226C18BF7FEA236C11D001B052EAC3
:10496000530C18BF90EA010F58BFB2EB030088BF89
:10497000C81738BF6FEAE17018BF40F001007047F8
:104980007FEA226C02D15FEA402C05D17FEA236CDA
:10499000E4D15FEA412CE1D05DF8040B704700BF21
:1049A000844608466146FFE70FB5FFF7C9FF0028B8
:1049B00048BF10F1000F0FBD4DF808EDFFF7F4FFF1
:1049C0000CBF012000205DF808FB00BF4DF808ED8A
:1049D000FFF7EAFF34BF012000205DF808FB00BFAD
:1049E0004DF808EDFFF7E0FF94BF012000205DF8CF
:1049F00008FB00BF4DF808EDFFF7D2FF94BF012080
:104A000000205DF808FB00BF4DF808EDFFF7C8FF78
:104A100034BF012000205DF808FB00BF42000ED229
:104A2000B2F1FE4F0BD34FF09E03B3EB126209D4E9
:104A30004FEA002343F0004323FA02F070474FF09F
:104A40000000704712F1610F01D1420202D14FF014
:104A5000FF3070474FF00000704700BF0346084624
:104A6000194600F001B800BF10B40C4613460146C9
:104A7000224602205DF8044B00F012BB70B50F4EC9
:104A80000F4D761BB61007D0043D0024013455F8B5
:104A9000043F9847A642F9D10A4E0B4D761B00F011
:104AA00023FEB61008D0043D0024013455F8043F1D
:104AB0009847A642F9D170BD70BD00BFF456000002
:104AC000F456000018570000F4560000024B01464F
:104AD000186800F003B800BF488CFF1F2DE9F04FA5
:104AE00001F10B05162D83B0064627D935F00705D1
:104AF00027D4A94225D8304600F08CFAB5F5FC7FC2
:104B000026D2C14F4FEAD50C07EBCC03DC689C42A0
:104B100000F0D2816368E268A16823F003032344B4
:104B200030465D68CA6045F0010591605D6000F047
:104B300073FA0834204603B0BDE8F08F1025A9426F
:104B4000D9D900240C232046336003B0BDE8F08F90
:104B50005FEA552C00F08A80BCF1040F00F26081FE
:104B60004FEA951C0CF1380C4FEA4C01A64F07EBAD
:104B70008101CC68A14205D10CE0002B7ADAE4680F
:104B8000A14207D0626822F00302531B0F2BF4DD11
:104B90000CF1FF3C0CF1010C9B4B3C6903F1080E3E
:104BA000744500F07E81616821F003014A1B0F2AE1
:104BB00000F36481002AC3F814E0C3F810E06ADA55
:104BC000B1F5007F80F03A81C90803EBC1004FEADC
:104BD000A1085A688168A1604FF0010909FA08F834
:104BE00048EA0202E0605A608460CC604FEAAC039D
:104BF0000120984090425BD8024206D12CF0030C71
:104C0000400002420CF1040CFAD007EBCC084446F9
:104C1000E146E3689C4207D145E1002A80F25681D3
:104C2000DB689C4200F03F81596821F003014A1B78
:104C30000F2AF2DD1C46D3F80CC054F8088F59191E
:104C400045F0010942F00105C3F804903046C8F868
:104C50000CC0CCF8088079613961C1F80CE0C1F86A
:104C600008E04D608A5000F0D7F963E77E214FF0ED
:104C70003F0C7BE72244E3685068A16840F00105DF
:104C8000CB6030469960556000F0C6F90834204684
:104C900003B0BDE8F08F214430464B6843F0010378
:104CA0004B6000F0B9F90834204603B0BDE8F08F3E
:104CB000BC68636823F00309A94504D3C5EB090365
:104CC0000F2B00F39180514B514A1968136801333F
:104CD00005EB010A04EB090B00F061810AF5805A2B
:104CE0000AF10F0A2AF47F6A2AF00F0A3046514669
:104CF000019200F093F9B0F1FF3F8046019A00F075
:104D00000081834500F2FA80DFF810C1DCF8003042
:104D1000C3455344CCF8003000F04A8112683C4946
:104D200001321BBFCBEB080B5B44C1F80080CCF811
:104D3000003018F0070300F01381C3F10802C3F537
:104D4000805390440833C244CAF30B0ACAEB030AE7
:104D500051463046CDF804C000F060F9431CDDF840
:104D600004C000F03581C8EB0002524442F0010259
:104D7000DCF80030C7F808805344BC42C8F804206F
:104D8000CCF80030DFF894A015D0B9F10F0F40F245
:104D9000EA806168A9F10C0222F0070201F0010E1D
:104DA000A118052042EA0E0E0F2AC4F804E048605C
:104DB000886000F21181174ABC6811688B4288BF75
:104DC0001360154A11688B4288BF1360626822F035
:104DD00003029542C5EB020301D80F2B04DC3046D9
:104DE00000F01AF90024A5E6621943F0010345F02A
:104DF000010565603046BA60536000F00DF9083473
:104E0000204603B0BDE8F08F4C8CFF1F849CFF1F31
:104E10005890FF1F809CFF1F7C9CFF1F889CFF1FDA
:104E2000BCF1140F61D9BCF1540F00F28F804FEA2E
:104E3000153C0CF16E0C4FEA4C0197E64B0A042B23
:104E400058D9142B00F2AE8003F15B02500007EB3F
:104E50008000DFF8BC818368834200F08A805A6852
:104E600022F00302914202D29B689842F7D1D9689E
:104E70007A68E160A3608C60DC60B7E6611942F09B
:104E8000010745F001056560304659611961C1F8B7
:104E90000CE0C1F808E04F608A50083400F0BCF81C
:104EA00048E65A68A2E609F1010919F0030F04F176
:104EB00008047FF4AEAE2DE004F108036469A34258
:104EC00008BF0CF1020C3FF467AE23E619441C4600
:104ED0004868DB6854F8082F40F001054D60304603
:104EE000D3609A6000F098F824E60CF15B0C4FEA6E
:104EF0004C013BE68A0938325000A8E7BC423FF437
:104F000003AFBC68626822F0030262E7D8F8008051
:104F100098457BD11CF0030FA8F108030CF1FF3C6E
:104F2000F4D17B6823EA00037B60400098423FF69F
:104F3000BFAE00283FF4BCAE0342CC467FF465AE62
:104F4000400003420CF1040CFAD05EE6BCF5AA7FE7
:104F50001AD84FEAD53C0CF1770C4FEA4C0105E624
:104F60004FF48053EFE60123C8F804304446002292
:104F70002FE791100120D8F8042000FA01F10A432C
:104F8000C8F80420194674E740F254539C451BD8D6
:104F90004FEA954C0CF17C0C4FEA4C01E6E50AF126
:104FA000100AA3E6542B1FD80A0B6E3250004EE7AE
:104FB000CBF30B0100297FF4B1AE0AEB0901BA680B
:104FC00041F001015160F6E6FC214FF07E0CCDE589
:104FD00001224FF0000ACBE604F10801304600F050
:104FE00029F9DAF80030E6E6B3F5AA7F03D8CA0B50
:104FF000773250002BE740F25452934203D88A0C88
:105000007C32500023E7FC207E2220E77B688CE77F
:105010004C8CFF1F704700BF704700BF38B5074C6E
:105020000023054608462360FCF746FB431C00D0DE
:1050300038BD2368002BFBD02B6038BDC49CFF1FFC
:1050400020F0030110F00300C0F1000051F8043B10
:1050500000F1040C4FEACC0C6FF000021CBF22FAE6
:105060000CF213434FF0010C4CEA0C2C4CEA0C4CA4
:10507000A3EB0C0222EA030212EACC1204BF51F89D
:10508000043B0430F4D013F0FF0F1FBF013013F4C2
:105090007F4F013013F47F0F18BF0130704700BFFE
:1050A000F0B5274C2668D6F8484185B00746002C55
:1050B00041D065681F2D1EDD224818B94FF0FF3022
:1050C00005B0F0BD4FF4C870039102920193FFF751
:1050D000FDFC0399029A019B04460028EED0D6F805
:1050E00048512560002060600546C6F84841C4F874
:1050F0008801C4F88C013FB9AB1C00200135656004
:1051000044F8231005B0F0BD04EB85004FF0010C0E
:10511000C0F88820D4F888610CFA05F21643022FF3
:10512000C4F88861C0F80831E6D1D4F88C311A434C
:10513000C4F88C21E0E706F5A674C6F84841B8E744
:10514000E4560000CD4A0000024B13B1024800F0C3
:1051500005B87047000000006951000001460020BA
:1051600002460346FFF79CBF38B5094D094C641B46
:10517000A41018BF05EB840505D0013C55F8043D8B
:105180009847002CF9D1BDE8384000F0C5BA00BFFF
:105190000000000000000000F8B5234D0F46044653
:1051A000FFF738FFAB685E6826F00306F11B01F6D7
:1051B000EF7121F47F6121F00F01A1F58057B7F560
:1051C000805F07DB20460021FFF728FFAB683344F0
:1051D000984204D02046FFF71FFF0020F8BD20466C
:1051E0007942FFF71BFF01300DD0104BAA681968F8
:1051F000F61B46F001062046C91B56601960FFF7F2
:105200000BFF0120F8BD20460021FFF707FFAB6828
:10521000C21A0F2ADEDD064D04492D6842F0010254
:10522000401B5A600860D5E74C8CFF1F889CFF1F0D
:105230005890FF1F2DE9F0410D460646002955D034
:10524000FFF7E8FE55F8041CDFF874C121F00103F4
:10525000A5F10804E218DCF808005768904227F02E
:10526000030769D011F00101576032D00021D01935
:105270004068C00706D43B44906800294ED0D268ED
:10528000C260906043F001026260E350E1B9B3F59F
:10529000007F2DD35A0A042A6AD898093830410071
:1052A0000CEB810C4649DCF80820624566D0516859
:1052B00021F003018B4202D292689445F7D1D36862
:1052C000E360A2609C60D4603046BDE8F041FFF727
:1052D000A3BE55F8085C641B0CF10808A0684045A3
:1052E0002B4443D0E568C560A860C0E7BDE8F08105
:1052F000DB080CEBC3020125DCF804009168A16017
:105300009B1005FA03F31843E260CCF804009460A4
:105310003046CC60BDE8F041FFF77EBE294DA84283
:10532000ADD143F00102CCF81440CCF81040E0605D
:10533000A0606260E350C7E71F44CB0707D455F86D
:10534000083CE41A1F44A268E368D3609A601E4BCD
:105350001B6847F001029F426260CCF80840B3D35B
:105360001A4B30461968FFF717FFADE701217EE7BA
:10537000142A0CD802F15B00410091E74B688010C1
:10538000012505FA00F003434B60134698E7542AC1
:1053900003D8180B6E30410082E7B2F5AA7F03D81C
:1053A000D80B773041007BE740F254518A4203D852
:1053B000980C7C30410073E7FC217E2070E700BF31
:1053C0004C8CFF1F548CFF1F5490FF1F849CFF1FA9
:1053D0001F1F08091F1F1F1F1F1F031F00131F1F51
:1053E00008091F1F1F1F1F1F1F1F85050406078495
:1053F0001F1F435F40531A121F1B1D1E22032480D0
:1054000022802403050E08090D0C06070F04001363
:10541000031F050E08090D0C06070F041F1F1F1F91
:105420001F1F1F1F1F1F4053435F1A16171B1D1EF0
:105430004008FE4340A004404408FE4344A004400A
:105440000018FE4300C004403000FE43309004408A
:105450003400FE43349004401C18FE431CC004403A
:105460001018FE4310C004400818FE4308C0044052
:105470000C18FE430CC004400C10FE430CB004405A
:105480001010FE4310B004401810FE4318B0044042
:105490001C10FE431CB004401410FE4314B0044022
:1054A0000418FE4304C004400010FE4300B0044052
:1054B0000008FE4300A004400408FE4304A004408A
:1054C0000C08FE430CA004400808FE4308A004405A
:1054D0001418FE4314C004401818FE4318C00440BA
:1054E0000410FE4304B004400810FE4308B004401A
:1054F0001400FE43149004404C08FE434CA00440AA
:105500000420FE4304D004402410FE4324B0044091
:105510002010FE4320B004402810FE4328B0044071
:105520002C10FE432CB004400020FE4300D0044069
:105530004808FE4348A004401000FE431090044079
:1055400000151915000100007C87FF1F12000000E4
:1055500000020000A887FF1F4300000000030000B6
:105560000488FF1F00000000010309049087FF1F4B
:105570000000000002030904EC87FF1F0000000088
:10558000030309040888FF1F00000000000000005A
:10559000000000000000000000000000000000000B
:1055A000E940000001410000B9400000C94000008E
:1055B000C1400000D1400000354000004D400000D7
:1055C0006D40000075400000814000008D400000EB
:1055D00099400000A9400000D9400000E1400000CF
:1055E00005400000114000001D400000294000005F
:1055F00011410000F5400000000000000000000024
:105600002D42000045420000FD4100000D42000017
:105610000542000015420000794100009141000060
:10562000B1410000B9410000C5410000D141000076
:10563000DD410000ED4100001D4200002542000058
:105640004941000055410000614100006D410000EA
:105650005542000039420000000000000000000038
:1056600071430000894300004143000051430000A2
:105670004943000059430000BD420000D5420000EC
:10568000F5420000FD420000094300001543000000
:1056900021430000314300006143000069430000E2
:1056A0008D42000099420000A5420000B142000076
:1056B000994300007D43000000000000000000004E
:1056C000F943000005440000D1430000D943000025
:1056D000E1430000E9430000F14300000000000046
:1056E000430000002088FF1FF8B500BFF8BC08BCCD
:1056F0009E46704749510000350400001109000022
:10570000C1140000451600002D4100007142000048
:08571000B54300001544000040
:04571800F8B500BF21
:10571C000000FF00FF0000FFFF0004060605050562
:10572C00050505040301FFFDFCFAF6F2EFEDEBEACB
:10573C00E9E9E9EAECEDF0F2F5F9FCFF0104070AFE
:10574C000C0E1012131516171819191919191817F8
:10575C0015141211100E0C0A09070501FCF6F3F0D2
:10576C00EEEDEDEDEEEFF0F1F2F3F4F9040B0701D1
:10577C00FDF9F5F0EBE8E6E6E7EAEEF3F8FD0207F3
:10578C000B0F1113151615151412100D0A0600FB2C
:10579C00F9F0E1EF25483310FDEEE1D7D0CAC3BDD7
:1057AC00B9B7B9BAB8B7BAC0C8D0DAE4EEF9040ED2
:1057BC001720272E34393C3E3F40403F3D3B393784
:1057CC0033302D2A2724211D1915110D090502FF2F
:1057DC00FBF8F6F4F2EEE9E4E1DFDEDDDEDFE1E436
:1057EC00E7EAECEFF3F6F8FBFE01040607090B0CF5
:1057FC000D0D0D0E0E0F0E0D0D0C0B0908070604EA
:10580C000301FFFDFCFAF8F6F4F2F1EFEDECEAE936
:10581C00E9E6DDED1F3F2F1101F5EBE3DED9D4CF27
:10582C00CCCBCECFCCCBCED3D8DFE6EFF7FE060D6C
:10583C00141B21272B2E30313231302E2B282521D1
:10584C001E1A16130F0B070401FEFBF8F6F4F3F205
:10585C00F1F1F1F1F2F1EEECECECEDEFF2F5F8FB2D
:10586C00FE0204070A0C0D0F101111111111111168
:10587C0011100F0E0E0B020B2E4A4737261507FC84
:10588C00F3ECE6DFD8D1CDCBCAC7C1BCBDBFC3C812
:10589C00CCD2D8DFE6ECF4FB01070D12171B1E204F
:1058AC00222324262B2D2B282522201F1C191614CD
:1058BC00110E0B0907050300FEFCF9F4EEE8E4E316
:1058CC00E4E6E7E8E7E6E6E7EBF0F3F6F6F6F6F9FA
:1058DC00FD01040607060606080B0D0E0D0A060848
:1058EC00121B1F1D160AFAF4FF0E161202F1E8E540
:1058FC00E4E6EAECEBE9E8E8EAEAE5E1E4E5E0DB3A
:10590C00D9D9DBDEE2E5E9EDF2F8FF060B0F121454
:10591C00171A1D1F21222221202020202021212284
:10592C00222426282A2C2C2C2B2928241F19130D31
:10593C000803FEFBF7F4EFEBE7E3E1DEDCD9D7D5A8
:10594C00D3D1D1D1D2D3D5D6D7D9DDE0E4E7ECF0A1
:10595C00F3F7FC01060A0E1215181A1C1E20212042
:10596C001F1E1D1B191715120E0A0602FEFAF6F25F
:10597C00EEEAE7E5E4E3E3E4E5E6E8EAEDF0F2F588
:10598C00F7F9FBFDFF0102030304040506070708F2
:10599C000908030A2036403D3020140B03FDF8F3B0
:1059AC00ECE5E0DDDDDBD5D1D0D3D7DDE0E2E1E223
:1059BC00E7F0FB050B0D0C0C0F151D2326241F1BEC
:1059CC00191A1F2223201B16131316191917120D3F
:1059DC0009090B0E0F0D0803FEFCFCFEFFFEFCF983
:1059EC00F7F8FD0D29382B1508FEF7F2EFEAE2DA8D
:1059FC00D3D0D2D3D1CECDCCCDD0D5DCE3EAEFF31E
:105A0C00F6FAFE040D1313100A0709111D221807CC
:105A1C00F8F2F8040F1209FBEDE7EEFA010D1F2462
:105A2C000FF9F4F8FFFFF4E2D2C9CAD3DDE6E9E7D7
:105A3C00E5E4E6FF355F5D493A302C2F363B3B32CF
:105A4C00211109070400FBF2E6DCD6D7DDE2E4E025
:105A5C00D6CCC8CAD1D9DEDEDBD7D6DAE4EFF7FB79
:105A6C00F9F7F6FB040E161B1B1B1D202334577075
:105A7C006C5B4D433C37322A1F1307FFFCFCFEFBCB
:105A8C00F4ECE7E5E7EBEFF1F0EEEAE9EBEEF1F33E
:105A9C00F1EEE9E6E6E8EAEDEDEBE9E8E9ECF1F543
:105AAC00F8F9F8F8FAFE04090C0C0C0B0D1014178D
:105ABC001714100D0B0A0B0B0A080400FDFCFCFC60
:105ACC00FBF8F5F2F0EEEEEFEEECE9E5E3E2E1E106
