:1000000000800020BD0100003D2B0000012B0000FE
:10001000012B0000012B0000012B0000012B000030
:10002000012B0000012B0000012B00003D2B0000E4
:100030003D2B0000012B00003D2B0000F12A0000A9
:100040003D2B00003D2B00003D2B00003D2B000010
:100050003D2B00003D2B00003D2B00003D2B000000
:100060003D2B00003D2B00003D2B00003D2B0000F0
:100070003D2B00003D2B00003D2B00003D2B0000E0
:100080003D2B00003D2B00003D2B00003D2B0000D0
:100090003D2B00003D2B00003D2B00003D2B0000C0
:1000A0003D2B00003D2B00003D2B00003D2B0000B0
:1000B0003D2B00003D2B00003D2B00003D2B0000A0
:1000C0003D2B00003D2B00003D2B00003D2B000090
:1000D0003D2B00003D2B00003D2B00003D2B000080
:1000E0003D2B00003D2B00003D2B00003D2B000070
:1000F0003D2B0000F92F00003D2B0000F1340000E3
:100100003D2B00000D3900003D2B00003D2B000071
:100110003D2B00003D2B00003D2B00003D2B00003F
:100120003D2B0000851400003D2B00003D2B0000FE
:100130003D2B00003D2B00003D2B00003D2B00001F
:100140003D2B00003D2B00003D2B00003D2B00000F
:10015000D9260000F1260000092700002127000011
:100160003D2B0000591C00003D2B00003D2B0000E2
:100170003D2B00003D2B00003D2B00003D2B0000DF
:100180003D2B00003D2B00003D2B00003D2B0000CF
:100190003D2B00003D2B00003D2B00003D2B0000BF
:1001A0003D2B00003D2B00003D2B00003D2B0000AF
:1001B0003D2B00003D2B00003D2B000010B5674B90
:1001C0004CF220521A804DF628121A8000BF00BF50
:1001D00002F0B8FC4FF01062614B1A60614A0833BC
:1001E0001A60614A04331A60A3F530432C3B1B6844
:1001F00013F4807F06D100225C4B1A604FF4A852A2
:10020000043B1A605A4B1B7813F0080F04D0584B6C
:100210001A7842F008021A702A22564B1A70564B6E
:10022000564A9A420DD2131D554CE41A24F0030489
:1002300004340023104653495A581A500433A34239
:10024000FAD1514B514A9A4280F08480131F504991
:10025000C91A21F003011A1D1144002243F8042F8A
:100260008B42FBD176E05A581A500433B3F5DE7F47
:10027000F9D1484B8021484A03F8011B9342FBD136
:10028000464B474A1A600A22464B1A702422A3F6AC
:10029000FF731A70A022013B1A7006331A7812F00D
:1002A000020FFBD0404B1A7812F0100FFBD13E4BDF
:1002B0001A7802F00C02082AFAD103223B4B1A707A
:1002C000402201331A7001331A7812F0200FFBD04C
:1002D000354B1A7812F0400FFBD0354A354B1A6077
:1002E000022204331A602022334B1A7006331A7824
:1002F00002F00C020C2AFAD1304A314B1A60314A12
:10030000314B1A600722043B1A6062B601F066FBAB
:10031000164B1B6813F0010F05D02C4801F0C0F9F3
:100320002B4A2C4B1A602C4B1B7813F0400F0AD031
:10033000284B1A68264B9A4205D1244801F0B0F99F
:100340000022244B1A6004F01BF802F001FC02F0BA
:10035000C1FAFEE700231248204984E70E20054039
:1003600030800440823F04000100002B14D0034081
:1003700002D0074000E007405490FF1F6087FF1F36
:100380005790FF1F6C860100A49CFF1F5490FF1F15
:100390009F9CFF1F00E400E05FE400E008ED00E048
:1003A0000082FF1F00500640064006400440064001
:1003B000000003014480044000400640C0100500D6
:1003C00004800440FF76010014E000E0672A8A57A9
:1003D000A5C3945A1CE0034000F007400000000051
:1003E000FFFFFFFFFFFFFFFFFFFFFFFFFFFFFFFF1D
:1003F000FFFFFFFFFFFFFFFFFFFFFFFFFFFFFFFF0D
:10040000FFFFFFFFFFFFFFFFFFFFFFFFFEFFFFFFFD
:1004100010B5054C237833B9044B13B10448AFF33E
:1004200000800123237010BD5490FF1F00000000C6
:10043000C44F000008B5064B1BB106480649AFF390
:1004400000800648036813B1054B03B1984708BD07
:1004500000000000C44F00005890FF1F5490FF1F81
:100460000000000008B54FF4807001F0ADF80220E4
:10047000002101F063F90320002101F05FF904205D
:10048000002101F05BF91720012101F057F90D203F
:10049000012101F053F90D20012101F01DF908BDE2
:1004A00030B583B0022001F03BF99C4B186003206B
:1004B00001F036F99A4C2060042001F031F9994B93
:1004C00018602368984A126893421BD0012B19D1F7
:1004D000EFF3108172B6BFF35F8FBFF34F8FBFF39F
:1004E0006F8F924B1A691A6081F31088BFF35F8F88
:1004F000BFF34F8FBFF36F8FBFF35F8FBFF34F8F8C
:10050000BFF36F8F864B1A68874B1A60854B1B6849
:10051000012B03D0814B1B68012B03D10122834B9C
:100520001A7302E00022814B1A73012000F038FF99
:1005300003F0DCFC7E4B1860022000F031FFA0F5D8
:10054000007003F0D3FC04467A4B18604FF08841EA
:1005500003F0DCFE38B1764B1868214603F010FC3E
:10056000754B18600CE020464FF0884103F0B0FE58
:1005700030B120466E4B196803F004FC6E4B1860D6
:100580006D4B1C6820464FF07E5103F0BFFE30B12A
:1005900020466A4903F09CFE20B1204603E04FF05C
:1005A0007E5000E06548644B18604FF07E5103F0C8
:1005B000E7FB634903F0EEFC624903F09FFD6249EB
:1005C00003F0E0FB614B1860032000F0E9FE604B94
:1005D0001860042000F0E4FEA0F500705D4B186088
:1005E000B0F5007F05DD5A4B1B68181A5A4B18608E
:1005F00007E0B0F5007F04DA554B1B681844564BF2
:100600001860554B18680128B8BF012040F2FF332D
:100610009842A8BF1846504B1860504B1B68323B9D
:100620000093012140F2FF320B4602F08BF94C4B54
:100630001860052000F0B4FE4A4B1860062000F058
:10064000AFFEA0F50070484B1860B0F5007F05DDE7
:10065000444B1B68181A454B186007E0B0F5007F43
:1006600004DA404B1B681844404B18603F4B186835
:100670000128B8BF012040F2FF339842A8BF1846B6
:100680003A4B1860364B1B68344A126800920121BD
:1006900040F2FF32323302F055F9354B1860072033
:1006A00000F07EFE334B1860082000F079FEA0F5C4
:1006B0000070314B1860B0F5007F05DD2D4B1B68D5
:1006C000181A2E4B186007E0B0F5007F04DA294BAA
:1006D0001B681844294B1860284B18680F23009397
:1006E000012140F2FF320B4602F02CF9244B186036
:1006F00001380C2800F2A780DFE800F007464E56CC
:100700005E666E767E868E969E001E4A074B9A60C7
:1007100040F6DB52114B1A6095E000BFAC90FF1F12
:10072000BC90FF1FD090FF1FC490FF1F7C90FF1F45
:100730007090FF1FB890FF1FCC90FF1F00C07F4438
:100740000000704100807F440000A040A890FF1F7F
:100750007490FF1FC890FF1FB090FF1FD490FF1F21
:10076000D890FF1FB490FF1F9890FF1F7890FF1F35
:10077000A490FF1F9490FF1F9C90FF1FC090FF1F2D
:10078000A090FF1FC44F0000574A584B9A604FF487
:100790002E62574B1A6056E0564A544B9A6040F608
:1007A0005342534B1A604EE0534A504B9A6040F606
:1007B00035124F4B1A6046E0504A4C4B9A604FF44A
:1007C00059624B4B1A603EE04D4A484B9A6041F2E9
:1007D000D642474B1A6036E04A4A444B9A6041F28F
:1007E0008452434B1A602EE0474A404B9A6041F6D0
:1007F0002F723F4B1A6026E0444A3C4B9A6041F608
:10080000A4523B4B1A601EE0414A384B9A6042F6B4
:100810007032374B1A6016E03E4A344B9A6041F60C
:100820003652334B1A600EE03B4A304B9A6042F22C
:1008300034722F4B1A6006E0384A2C4B9A6042F211
:10084000C2322B4B1A60294C354B1B681B042361A9
:10085000344B1B681B046361334B1868EFF310853E
:1008600072B6BFF35F8FBFF34F8FBFF36F8F2F4908
:1008700003F090FB4FF0625103F08CFB4FF08F417F
:1008800003F088FB03F04CFD606085F31088BFF334
:100890005F8FBFF34F8FBFF36F8FBFF35F8FBFF3D8
:1008A0004F8FBFF36F8F226863699A4206D9227B0C
:1008B0007AB1206821690144CB1A23600B4B196877
:1008C000090C9A68525C596818680144196013460B
:1008D00000E000235BB21720642101FB03F100F06C
:1008E0004FFF03B030BD00BFA05D00007C90FF1F34
:1008F000D490FF1F80680000D47400000C7E0000BC
:100900009C8B000074A00000F8B5000028D5000002
:10091000CCF200003C1E0100743B0100A862010003
:10092000D890FF1FA490FF1FA890FF1F00B05D4547
:100930000F4B1A685B699A4208D90D4A127B82B143
:100940000B4A106811690144CB1A1360084B1968EF
:10095000090C9A68525C596818680144196013467A
:1009600000E000235BB2642000FB03F0704700BF8F
:100970007C90FF1F08B500F0D1FD08BD034B044A71
:100980009A60044A5A6100221A7370477C90FF1FD4
:10099000C44F00000000DB0D38B504460223037489
:1009A0000E4B1A6842F000621A600C3B1A6842F063
:1009B00000621A604FF4AA7001F094FF054600210E
:1009C00000F08AFA25604FF4AA7001F08BFF05460B
:1009D000012100F081FA6560204638BD3C8004406A
:1009E00008B5012A0CBF4068006800F07DF908BD19
:1009F00008B5012A0CBF4068006800F077F808BD10
:100A000008B501290CBF4068006800F0FBFB08BD79
:100A100010B5A1F11003DBB2012B04D9A1F122031F
:100A2000DBB2032B17D8B2F1FF3F09D1036840684E
:100A30005C7D427D944238BF184600F01FFC10BD1B
:100A40001AB9006800F01AFC10BD012A0FD14068E5
:100A500000F014FC10BD192903D9406800F00EFC09
:100A600010BD172903D8006800F008FC10BD03680A
:100A7000B3F8622042F00102A3F86220004810BDE2
:100A800090EEFEFF01290CBF43680368D3F8C03025
:100A9000186800B2704700BF72B6012380F8643056
:100AA000D0F8F02000211160D0F8F4201360D0F8C5
:100AB000F020136062B6704708B590F86D308B4235
:100AC00012D0022907D1022380F86D30D0F8D83037
:100AD00001221A6006E029B9002380F86D30D0F8B1
:100AE000D8201360FFF7D8FF08BD00BF38B5044613
:100AF0000D4690F864300BB100F03AF8012D04D89F
:100B0000D4F8F820002313602EE0D4F8F830012246
:100B10001A60042D08D8D4F8FC2000231360D4F800
:100B20000021136004231FE0082D09D8D4F8FC30FD
:100B300001221A60D4F8003100221A60082313E061
:100B4000102D09D8D4F8FC3000221A60D4F80031F6
:100B500001221A60102307E0D4F8FC20012313605F
:100B6000D4F800211360202384F86C3038BD00BF16
:100B700070B50446D0F8F0201368002BFCD1D4F8EF
:100B8000F4301B682BB1B4F8623043F00203A4F8D0
:100B9000623072B694F86430002B3ED0D4F8203125
:100BA0001A68D4F824311E68D4F828311D68D4F8A6
:100BB0002C311868D4F830311968D4F834311B68F6
:100BC00032442A4402440A441A44C2F34E02D4F87E
:100BD000143142F400421A60D4F83C311A68D4F857
:100BE00040311E68D4F844311D68D4F84831186883
:100BF000D4F84C311968D4F850311B6832442A4477
:100C000002440A441A44C2F34E02D4F8183142F4A2
:100C100000421A60002384F8643062B694F86530AC
:100C200073B12046022100F05FF82046022100F057
:100C3000CBF820460421FFF759FF002384F86530E4
:100C400070BD00BF38B504460D4690F866308B4243
:100C500048D090F864300BB1FFF78AFF072D07D911
:100C60000D2D21D8A5F10803DBB2012B0BD800E034
:100C70000825D4F89C2000231360D4F89820136032
:100C8000FF23A3662CE0A5F10A03DBB2012B0CD8ED
:100C9000D4F89C3001221A60D4F8983000221A60EF
:100CA00040F2FF33A3661BE01025A5F10C03DBB275
:100CB000012B0BD8D4F89C3000221A60D4F898305D
:100CC00001221A6040F6FF73A36609E0D4F89C2065
:100CD00001231360D4F8982013604FF6FF73A366C6
:100CE00084F8665038BD00BF38B504460D4690F80C
:100CF00070308B4266D090F864300BB1FFF738FF4C
:100D0000D4F8B03000221A6045B9D4F8B4301A6073
:100D1000D4F8883001221A60612340E0012D09D106
:100D2000D4F8B43000221A60D4F8883001221A6056
:100D3000612334E0022D08D1D4F8B42000231360DD
:100D4000D4F888201360412329E0032D09D1D4F879
:100D5000B43001221A60D4F8883000221A602123AE
:100D60001DE0042D09D1D4F8B43001221A60D4F862
:100D7000883000221A60212311E0052D08D1D4F813
:100D8000B42001231360D4F888200021116006E00C
:100D9000B4F8623043F00103A4F8623038BDD4F8EF
:100DA000A42000211160D4F8A02001211160D4F802
:100DB000902099091160D4F88C20C3F3401313607C
:100DC00084F8705038BD00BF38B504460D4690F821
:100DD00071308B4244D090F864300BB1FFF7C8FEFD
:100DE0005DB9D4F8943001221A60D4F8B8200023F9
:100DF0001360D4F8BC20136030E0012D0BD1D4F87F
:100E0000942001231360D4F8B82000211160D4F895
:100E1000BC20136022E0022D0BD1D4F894200123D2
:100E20001360D4F8B8201360D4F8BC3000221A60E4
:100E300014E0EB1EDBB2012B0AD8D4F89420012376
:100E40001360D4F8B8201360D4F8BC20136005E018
:100E5000052D03D1D4F8943000221A6084F8715023
:100E600038BD00BF38B50446002380F8663083667D
:100E700080F86C30012580F86D5080F86E3080F875
:100E80006F5080F8703080F8713080F86550A0F8AD
:100E9000623060210F4A1170E12101321170D0F8E7
:100EA000AC2015601946FFF707FE20460A21FFF720
:100EB000C9FE20462021FFF719FE20462946FFF7EC
:100EC00013FF20462946FFF77FFF2046FFF7E4FD8A
:100ED00038BD00BF00400740F8B504460023437505
:100EE00080F87210CB0403F1804202F56C32426745
:100EF00002F10472520102F11C00E0671832A2678D
:100F0000A14A1A44C4F88020A04A1A44C4F8842094
:100F100002F10472520102F11C00C4F8880002F1CF
:100F20001800C4F8900002F11400C4F88C0002F11B
:100F30001000C4F8940002F10C00C4F89C0002F107
:100F40000800C4F89800101DC4F8A400C4F8A0203C
:100F50008F4A1A44C4F8A82002F10472520102F127
:100F60001000C4F8AC0002F10C00C4F8B00002F1AB
:100F70000800C4F8B400101DC4F8B800C4F8BC20C0
:100F8000844A1A44C4F8C020834A1A44C4F8C420CE
:100F9000824A1A44C4F8C820814A1A44C4F8CC20B2
:100FA000804A1A44C4F8D02002F10472520102F1BE
:100FB0001C00C4F8D40002F11400C4F8E00002F1EF
:100FC0001000C4F8E40002F10C00C4F8E80002F1DB
:100FD0000800C4F8DC00C4F8D820734A1A44C4F8E6
:100FE000EC2002F10472520102F11C00C4F8F0007E
:100FF00002F11800C4F8F40002F10C00C4F8040176
:1010000002F10800C4F8F800C4F8FC200432C4F867
:101010000021664A1A44C4F80821520102F18442B0
:101020005C32C4F80C21624A1A44C4F81021614AA7
:101030001A44C4F81421604A1A44C4F818215F4ABB
:101040001A44C4F81C215E4A1A44C4F820215D4A9F
:101050001A44C4F824215C4A1A44C4F828215B4A83
:101060001A44C4F82C215A4A1A44C4F83021594A67
:101070001A44C4F83421584A1A44C4F83821574A4B
:101080001A44C4F83C21564A1A44C4F84021554A2F
:101090001A44C4F84421544A1A44C4F84821534A13
:1010A0001A44C4F84C21524A1A44C4F8502199BB3E
:1010B000504B04F1160203F120011F685E689D6821
:1010C000D868176056609560D060103310328B423C
:1010D000F3D1186859689B68106051609360464B63
:1010E0001D6858689968DE68C4F84250C4F8460024
:1010F000C4F84A10C4F84E601D6958699969C4F86B
:101100005250C4F85600C4F85A10998B9B7FA4F82B
:101110005E1084F8603032E0384B04F1160203F1BF
:1011200020011F685E689D68D868176056609560EA
:10113000D060103310328B42F3D1186859689B6825
:101140001060516093602E4B1D6858689968DE6886
:10115000C4F84250C4F84600C4F84A10C4F84E60BF
:101160001D6958699969C4F85250C4F85600C4F80A
:101170005A10998B9B7FA4F85E1084F8603020464B
:10118000FFF770FE2046F8BD04B0034008B00340EE
:101190000CB0034010B0034014B0034018B003403B
:1011A0001CB0034020B0034024B0034050B00340C3
:1011B00028B003402CB0034030B0034034B00340AB
:1011C00038B003403CB0034040B0034044B003405B
:1011D00048B003404CB0034054B0034058B0034003
:1011E0005CB0034060B0034064B0034068B00340AB
:1011F0006CB00340E04C0000A04C0000744C0000B8
:10120000C04C000010B5044690F864300BB1FFF7F5
:10121000AFFC012384F86E30A26F136094F8723033
:10122000012B0CBF4FF080624FF00072014B1A602F
:1012300010BD00BF04E100E090F87230012B08D12E
:101240001A2901D01F2904D1D0F8AC3000221A602D
:1012500003E0D0F8AC3001221A60D0F8043100224B
:101260001A6072B6436F01448A7D90F86E1002EBEB
:1012700081121A6062B60120704700BF38B504467B
:101280000D462B2907D9B0F8623043F00403A0F8CB
:101290006230154838BD90F864300BB1FFF768FC38
:1012A000D4F8D4301B68003318BF01232375A3B1D1
:1012B00072B6636F1B682360D4F884301B68E360E8
:1012C000D4F8A8301B682361D4F8D0301B68636061
:1012D000D4F8EC301B68A36062B620462946FFF7BD
:1012E000ABFF012038BD00BF90EEFEFF10B514200B
:1012F00001F0F8FA0446FFF74FFB034B1C60204651
:101300000021FFF77DFB10BD5C99FF1F08B501466A
:10131000044B1870044B18684FF0FF32FFF778FB4E
:1013200008BD00BF8C99FF1F5C99FF1F074B1B78FE
:101330005BB2B3F1FF3F08D1054B9B69132B04DC73
:101340000133034A93610821D15470476487FF1F1A
:101350003091FF1F00B583B00F4B9B69B3F1FF3F86
:101360000AD00D4AD15CC9B28DF80710013B9361D8
:101370009DF80720D2B200E0FF22084B1A701B78BC
:101380005BB2B3F1FF3F03D0044B1878FFF7BEFF09
:1013900003B05DF804FB00BF3091FF1F6487FF1F9F
:1013A000064B9B69132B04DC0133044A9361C1B2E1
:1013B000D154034B53F82000704700BF3091FF1FFA
:1013C000DC90FF1F08B5044B1868044B19784FF0E8
:1013D000FF32FFF71DFB08BD5C99FF1F8C99FF1FB3
:1013E00010B5064B1C7864B2054B18684FF0FF31FE
:1013F000FFF748FB034B43F8240010BD6487FF1F31
:101400005C99FF1FDC90FF1F4FF0FF32014B9A6188
:10141000704700BF3091FF1F08B5FFF741F8FFF795
:1014200085FF08BD08B50022104B1A70104B1868D4
:1014300008214FF0FF32FFF7EBFA0E4B93F8002430
:1014400053F822100132D2B283F8002452B993F833
:10145000022482F0010283F80224D3F8042401322A
:10146000C3F80424282000F08BF908BD8D99FF1FD4
:101470005C99FF1F5495FF1F10B5044601F020FA38
:10148000204610BD08B5224B1B78012B1CD013B190
:10149000022B1CD024E01F4B93F8012493F8003456
:1014A0009A4222D11B4B93F8032493F802349A42B8
:1014B00007D11AE0174B93F8032482F0010283F856
:1014C0000324FFF747FF0BE0FFF77CFF08E0FFF77F
:1014D00087FF114B186808214FF0FF32FFF798FA89
:1014E0000B4B1A7801321A7008BD0B4B18684FF07D
:1014F000FF31FFF7C7FA074B93F8012443F82200A6
:101500000132D2B283F80124002AD3D0D9E700BF38
:101510008D99FF1F4C91FF1F5C99FF1F08B5274A4B
:1015200092F8003492F801249A422CD1234A92F87E
:10153000031492F80224914225D10DE01F4B93F839
:10154000022482F0010283F80224D3F80424013239
:10155000C3F804241A4B19601A4B93F8012493F82A
:1015600000349A4219D1174B93F8032493F80234AC
:101570009A4221D111E0134B93F8032482F0010227
:1015800083F8032408BD0D4A52F823100133DBB25F
:1015900082F80034002BD1D0DCE7FFF7C9F9094B02
:1015A00093F8012400F5006043F822000132D2B222
:1015B00083F80124002ADED008BD00BF4C91FF1F34
:1015C0006099FF1F5495FF1F10B504460020FFF7D8
:1015D0008DFE1348B0FBF4F0421E124B9A4207D81E
:1015E00000EB4000020110481049013A01F050F9A7
:1015F0000C2000F065F80E4C206800214FF0FF32FF
:10160000FFF7F6F9206802214FF0FF32FFF7E8F903
:101610000848094940F66F3201F03AF910BD00BFA1
:1016200040420F00545555056499FF1F19140000DE
:101630005C99FF1F7899FF1F25140000F8B5124B25
:10164000002483F8004483F8014483F8024483F8BB
:1016500003440E4B83F8004483F8014483F80244AA
:1016600083F803440A48047080274773094E0A4DE3
:1016700031462A4602F074FE08480470477331462A
:101680002A4602F06DFEF8BD5495FF1F4C91FF1FD6
:101690007899FF1F791400006087FF1F6499FF1F6E
:1016A000044B00221A6004490A60044A10601022A8
:1016B0001A60704714D0034004D0034000D00340A8
:1016C00018B1102828BF102000E00120014B18702D
:1016D000704700BF6587FF1F21281ED80F4B53F8A6
:1016E000303093F8802212F0FF0F08D019B1012298
:1016F00083F880207047012283F800217047074B50
:1017000003EBC000436821B11A6842F003021A607B
:1017100070471A6822F002021A6070470C4D0000F0
:10172000212806D8044B53F8303093F80002C0B299
:1017300070470020704700BF0C4D000021281CD8C6
:101740000E4B03EBC0035B68012908D10B4A52F82A
:10175000302082F880124FF4A2721A607047074A54
:1017600052F83020002082F8800219B94FF48072BC
:101770001A60704740F203121A6070470C4D000067
:1017800010B5044628280FD15D4B1B780B2B03D8CE
:10179000C3F10C03994003E00C2B84BF0C3B1941AF
:1017A000084601F089F910BD554B1B78012202FA59
:1017B00003F0002908DC20460021FFF78DFF2046BA
:1017C0000121FFF7BBFF10BD0A46884208D820461A
:1017D0000121FFF781FF20460121FFF7AFFF10BD78
:1017E000E01EC0B2012806D84648006800FB01127E
:1017F00022FA03F310E0202C01D0192C06D1424824
:10180000006800FB022222FA03F305E03F4800686B
:1018100000FB011222FA03F3E01E1D2864D8DFE862
:1018200000F0474E402B63631D246363636363636F
:1018300063636332390F16635C6363636363635589
:10184000334A136040F24442324B1A6010BD324AB0
:10185000136040F24442314B1A6010BD304A1360AD
:1018600040F244422F4B1A6010BD2F4A136040F2E1
:1018700044422E4B1A6010BD2D4A136040F2444280
:101880002C4B1A6010BD2C4A136040F244422B4B83
:101890001A6010BD2A4A136040F24442294B1A6074
:1018A00010BD294A136040F24442284B1A6010BD13
:1018B000274A13604FF45172264B1A6010BD264A16
:1018C00013604FF45172254B1A6010BD244A136007
:1018D0004FF45172234B1A6010BD234A13604FF42A
:1018E0005172224B1A6010BD20467F29D4BF0021BF
:1018F0000121FFF7F1FE20460121FFF71FFF10BD78
:101900006587FF1F0890034008800B400880034054
:101910001080034004B004401880034008B0044025
:10192000208003400CB004402880034010B00440E5
:101930003080034010C004403880034014C004408D
:101940004080034018C00440488003401CC004404D
:1019500010900340309004401890034034900440AD
:1019600010800B4048A0044018800B404CA004405D
:1019700072B60C4B1B680C4A12680C49096862B6B7
:1019800011F0806F02D0322B88BF0132C3F5BB3318
:10199000FF330749A1FB03039B094FF47A7000FB57
:1019A0000230704718E000E09099FF1F04ED00E05E
:1019B000ABAAAAAA38B50546FFF7DAFF044665B117
:1019C000FFF7D6FF001BB0F57A7F03D3013D04D0AB
:1019D00004F57A7400F0C4FFF2E738BD10B5254B6A
:1019E0004FF400021A604FF080721A604FF00072DC
:1019F0001A604FF080621A604FF000621A60002097
:101A00001D4B18604BF6FF710433196028231B4AE5
:101A10001360083213600832136008321360083212
:101A20001360083213600832136008321360092211
:101A3000134C226004F58054043420600434216087
:101A40000434236008342360143C226004F5FE242F
:101A5000043420600B4801600B490B6008310B60B7
:101A60000A4B1A6000F09EFF0420FFF7A3FF00F06E
:101A70006BFC10BD08E100E0048003400C800340D3
:101A80000080034008800B400C800B4000800B401E
:101A900030B40E4B1B7843F002020D4C04EBC20431
:101AA00060600C48007800280CBF8824C82444EAF1
:101AB0000141074D45F8321080F00100054A1070D1
:101AC00083F00103014A137030BC7047FC99FF1F7B
:101AD0000080FF1F759AFF1F10B4431E032B11D8FF
:101AE00072B60A4A52F8230050B14268074941F8D9
:101AF0002320074A32F813400188611A22F8131094
:101B000062B600E000205DF8044B7047EC99FF1FBF
:101B1000909CFF1F013803280DD872B6074B53F86D
:101B200020302BB1002001305B68002BFBD100E09E
:101B3000002062B670470020704700BF409AFF1F28
:101B400038B572B601231B491B4C5A1812F8012CE8
:101B500012F0080F24D09A0054F832506DB9164B89
:101B600003EBC20108304860144943F83210144BAB
:101B70001A78013A1A7062B638BD42F0010254F880
:101B800032506DB90C4B03EBC201083048600D496F
:101B900043F832100A4B1A78013A1A7062B638BD0F
:101BA0000133052BD1D162B60022054B1A7000F02B
:101BB0002FFC38BD404E00000080FF1F8800400011
:101BC0006A9AFF1FC800400010B4431E032B37D889
:101BD000400140F010001C4A104472B61B4AD25C0F
:101BE000032A09D8DFE802F019021B050830022297
:101BF00016E00830042213E0154A52F823201AB9DF
:101C0000134A42F8231003E0124A52F8232051608D
:101C1000104A42F8231062B612E0032200E00522C7
:101C20000A4CE25401F10803436000F00803002B62
:101C30000CBF8823C8230A8843EA0243036062B6C4
:101C40005DF8044B704700BF0080FF1FA899FF1F7D
:101C5000409AFF1F509AFF1F2DE9F84FA34CDFF861
:101C6000E092DFF8E0A2DFF8E0B22578EDB215F0FF
:101C7000040F1DD09E4B1B7813F0FF0F16D09D4B09
:101C80001B7803F0FF022BB1531EDBB2994A13708D
:101C900003B900BE984B1B7803F0FF0233B1531E0B
:101CA000DBB2954A13700BB900F0F2FC04232370E9
:101CB00015F0080F00F0DC8299F80030DBB21D0946
:101CC00040F01D828D4D9E0805EBC6035A6855F8FD
:101CD0003630C3F38303013B0C2B00F20C82DFE8A8
:101CE00013F0C701C7010A020A020A020A020A0225
:101CF0000A02E4010A020A020A020D00804913687E
:101D00000B6052684A607F4A45F8362000227E49BF
:101D10000A607A490A618A6101217C4A11709BB28A
:101D200040F28162934218D8B3F5D06F2ED2B3F54A
:101D3000817F00F01E8106D8802B00F0C980822BA5
:101D400000F0CC8062E140F20232934200F0268142
:101D5000B3F5A06F00F05E8158E142F22102934298
:101D600000F0828107D8B3F5086F00F0AB80B3F5BF
:101D7000106F11D04AE142F22122934200F04181DA
:101D800042F22132934200F045813FE1604B5D68B1
:101D9000002D40F0188130E1594B9A78544B1A705D
:101DA000564D05F180062B6A13F0800F03D0686A48
:101DB000083800F02DFB0835B542F4D1DFF88C81EE
:101DC00000263746534AB05828B1456800F020FB3A
:101DD0000DB12846F9E700234E4973504E4AB350DF
:101DE0004E4BF05828B1456800F012FB0DB1284663
:101DF000F9E7002349497350494AB35028F8023F94
:101E0000484BFB5C023B032B0AD8DFE803F00206D9
:101E100002060022434BDA5502E00122414BDA551B
:101E200001370436102ECDD100223F4B1A70012508
:101E30003E4EDFF81C81314F05EB080313F8013CDF
:101E400006F8043B13F0080F2DD000F0C1FA48B19A
:101E5000A90007EB451200F108035360344A47F824
:101E6000312007E0AB00002247F833202E4B1A78D0
:101E700001321A7000F0ACFA58B1AB0043F0010324
:101E800007EBC30100F108024A601E4A47F83320FD
:101E900009E0AB0043F00103002247F83320224B56
:101EA0001A7801321A70AA0042F00201002347F8A2
:101EB000313042F0030247F8323001351D4B9E426B
:101EC000BAD116E20A4B1B781B4D2B700127A6E0F6
:101ED000194D00232B706B700227A0E0084B9B88E4
:101EE000042B37D90F22154B1A70BDE08020074014
:101EF000749AFF1FFD99FF1F769AFF1F0080FF1F36
:101F0000609AFF1FC80040009499FF1F759AFF1F39
:101F1000444E0000EC99FF1F9899FF1F409AFF1F45
:101F2000509AFF1FA899FF1F6A9AFF1FC4200740FD
:101F300088004000D42007406C9AFF1FC020074053
:101F40009020074094200740982007408E9CFF1F58
:101F5000404E00009E4A0021117051709D4A12F8B7
:101F6000233013F0020F58D0994D01232B70022714
:101F700055E0994B9B8803F07F02042A02DC964AC5
:101F800052881AB10F22934B1A706DE0914A12F8E1
:101F9000231021F0020102F82310AAE18E4B9B8846
:101FA00003F07F02042A02DC8B4A52881AB10F2206
:101FB000884B1A7058E0874A12F8231041F002014A
:101FC00002F8231095E1844B5E889F88834BA3F130
:101FD0000C02114633F80C0CB04209D133F80A0C4C
:101FE000B84205D1360A032E0CBF2F78178916E0A8
:101FF0000D690C330C32002DEBD10F22754B1A708A
:1020000032E0754B9A78764B1A7072E10F22714B61
:102010001A7029E000273D4601E002276C4D6E4B07
:10202000DB889F4228BF1F46402F34BF3E464026D4
:1020300028463146FFF72CFD3544BF1B03D13F2E08
:1020400000F25C8110E0402F34BF3E464026284617
:102050003146FFF71DFD3544BF1B01D13F2E03D98B
:10206000604B1D60604B1F8001238AF8003042E006
:10207000594B198842F22103994212D15B4BD81D6A
:1020800012F8011B03F8011F8342F9D1584B1B685A
:10209000862B02D10F22574B1A7000200146FFF702
:1020A000F7FC554B45F8363025E04E4B1E68BEB167
:1020B0004D4FB7F80080B8F1400F34BF454640257A
:1020C00030462946FFF7E4FCC5EB08039BB23B8092
:1020D0000BB9402D01D1354400E00025414B1D6076
:1020E0003D4B1B88B3F5A06F05D13B4B00225A70C6
:1020F0009B788BF8003001238AF80030B5E03F4E22
:102100009F0806EBC708D8F80420A2F10800013D9B
:10211000EDB213F0080F47D000F07AF9384B53F8BE
:1021200025304BB35A68364941F8252003F108029F
:10213000C8F80420334A525D032A12D8DFE802F0BF
:1021400002060A0E03212F4A51550AE002212D4AA8
:10215000515506E005212B4A515502E00421294A38
:10216000515518F0080F0CBF8822C8221B8842EA7C
:10217000034346F8373078E0224B5B5D032B0BD8E6
:10218000DFE803F07373020600221E4B5A556CE021
:1021900001221C4B5A5568E018F0080F0CBF0222B0
:1021A0000322184B5A5560E056F837301B0C22F8C2
:1021B000083C002B51D0002322F8063C42F8043C96
:1021C000114B53F825300BBB0F4B43F8250021E092
:1021D0006C9AFF1FC0200740609AFF1F504E0000FE
:1021E000849AFF1F9499FF1F689AFF1F979CFF1FF7
:1021F000989CFF1FFD99FF1FC80040000080FF1F33
:10220000409AFF1FA899FF1FEC99FF1F3F4B53F8FF
:10221000253058603D4B43F825003D4B33F81510F1
:1022200032F8082C0A4423F8152000F0D1F860B1E8
:1022300000F10803C8F8043018F0080F354B364A8F
:1022400008BF134646F837300FE0002346F8373012
:10225000324B1A7801321A7007E018F0080F2D4B34
:102260002D4A08BF134646F8373008232370FCE494
:1022700015F0010F22D02A4902230B700022294BAE
:102280001A70294B24481860284C5C6098602848D4
:10229000D8601A619A610D20264B1870FF232648DA
:1022A00003700838037018300270244A13709F229C
:1022B000234B1A7001230B70BDE8F88F15F0800FC7
:1022C00005D00D221B4B1A708022403B1A7015F06E
:1022D000020F06D0184B1A78D2B21A700222083BAD
:1022E0001A7015F0100F0ED01022164B1A70BDE8A0
:1022F000F88F00200146FFF7CBFBB5E6284600210A
:10230000FFF7C6FBB0E6BDE8F88F00BF9899FF1F46
:10231000909CFF1FC8004000880040006A9AFF1F81
:1023200094200740FC99FF1F0080FF1FAC99FF1FFE
:10233000009AFF1FC0200740882007408C200740DC
:10234000842007408020074008B501F03FFB0023B0
:102350001B491A465A50C81842600833882BF9D1D5
:10236000184B1A6842F480221A60154BC3F30721F8
:10237000154A1170C3F30741143211701B0E043259
:102380001370FF23343A137008321370783A1370C5
:1023900001238432137000216C3211707C3A137067
:1023A00070220A4B1A704FF40072A3F241331A6084
:1023B000102203F1C04303F5C8231A7008BD00BF03
:1023C0000080FF1F348004409C20074049E400E067
:1023D00072B60D4B1A68B2FA82F30B2B02D962B6B1
:1023E000002070474FF00041D94022EA010206491F
:1023F0000A6062B6054903EBC303DB00C81800227C
:10240000CA504260704700BF6887FF1F0084FF1FEB
:1024100008B50F4BC31A0F4AA2FB03131B090B2B62
:1024200014D80D4A12783AB10C4A127812F0FF0F04
:1024300002D0FFF785FB08BD72B6094A4FF0004194
:1024400021FA03F311681943116062B608BD00BF99
:102450000084FF1F398EE3386A9AFF1F749AFF1FAA
:102460006887FF1F10B5134B1B6853B9124B1B78BD
:1024700013F0FF0F18D00320FFF72EFB0D4B186051
:10248000A8B10C4B186843885A1C03441C7A038873
:102490009A4206D3FFF7BCFF0022064B1A60204683
:1024A00010BD4280204610BD4FF0FF3010BD4FF0F0
:1024B000FF3010BD809AFF1F749AFF1F08B50D4BA7
:1024C0001B6883B90C4B1B7813F0FF0F08D0032057
:1024D000FFF702FB074B186028B94FF0FF3008BD2B
:1024E0004FF0FF3008BD034B1B685A881344187A1D
:1024F00008BD00BF809AFF1F749AFF1F044B988885
:10250000044B1B681BB11A885B88D31A18447047A8
:10251000909CFF1F809AFF1F2DE9F047044601227F
:10252000374B1A700E46002964D0DFF8E080DFF8E0
:10253000E0909A46334FD8F8003083BB99F80030CA
:1025400013F0FF0F06D100222D4B1A704FF0FF3011
:10255000BDE8F0874AF2F9250420FFF7DBFA0728E7
:102560000AD801238AF80030FFF732FFC8F80000CC
:10257000A8B900238AF80030013D01D03B7833B17F
:102580000122204B1A704FF0FF30BDE8F08700F0B9
:10259000E7F999F8003013F0FF0FDDD1D3E70023FE
:1025A0003B70D8F800104A88C2F14005AE4238BFEF
:1025B000354602F108030B442A444A80761B3DB19C
:1025C000254414F8012B03F8012BAC42F9D100E0AB
:1025D00025464B883F2B07D940230B800420FFF76B
:1025E000F3FA0023C8F800300522074B1A700EB129
:1025F0002C46A0E70020024B1870BDE8F08700BF12
:10260000779AFF1F7C9AFF1F769AFF1F789AFF1F09
:10261000749AFF1F00B583B002AB03F8010D184692
:102620000121FFF779FF03B05DF804FB10B5144BEF
:102630001B7813F0FF0F21D00122124B1A70124B9E
:10264000196851B10024114B1C704B880B80042079
:10265000FFF7BAFA0C4B1C600DE0FFF7B9FE01461C
:1026600030B10022094B1A700420FFF7ADFA02E0E6
:102670000122064B1A700022024B1A7010BD00BFD7
:10268000749AFF1F779AFF1F789AFF1F769AFF1F91
:1026900008B50E4B1B7813F0FF0F16D10C4B1968C1
:1026A00041B14B880B800420FFF78EFA0022084BC3
:1026B0001A6008BDFFF78CFE014618B10420FFF731
:1026C00083FA08BD0122034B1A7008BD779AFF1FD9
:1026D000789AFF1F769AFF1F08B50122024B1A60F5
:1026E000024B1B68984708BD0C710340909AFF1F6E
:1026F00008B50122024B1A60024B5B68984708BD7F
:102700001C710340909AFF1F08B50122024B1A600A
:10271000024B9B68984708BD2C710340909AFF1F9D
:1027200008B50122024B1A60024BDB68984708BDCE
:102730003C710340909AFF1F054B1A6842F4000257
:102740001A600022034B1A600122034B1A70704773
:102750003C800440007003408C9AFF1F0122064B0E
:102760001A6003F588333C331A6822F400021A60B9
:102770000022024B1A707047007003408C9AFF1FB2
:1027800010B442781401164B23444360154B234484
:1027900083600369144C44F82230836800221A6075
:1027A00043681960836803221A6043784433DBB2BC
:1027B000037303F1604303F56443427B1A70027BA9
:1027C00053119B0003F1604303F5614302F01F02C4
:1027D000012101FA02F21A605DF8044B704700BF54
:1027E0000071034008710340909AFF1F70B50446C2
:1027F0000D46134B1B780BB9FFF79EFF114B1B784F
:102800008BB1104B5B7843B10E4B9B7843B10D4BB2
:10281000DB789BB903231E4607E001231E4604E034
:1028200002231E4601E000263346637020462946F7
:10283000FFF7A6FF0120034B985570BD002070BD27
:102840008C9AFF1F889AFF1F10B5836800221A60B8
:10285000037B5C1103F01F03012101FA03F30A4912
:1028600041F82430094B41785A541B7853B9074B2F
:102870005B783BB9054B9B7823B9044BDB780BB9EC
:10288000FFF76CFF10BD00BF80E100E0889AFF1FDA
:1028900070B504460E46154603781BB1FFF7D4FF0A
:1028A00000232370266120462946FFF79FFF10B1C1
:1028B0000123237001E000232370207870BD00BF46
:1028C00010B5044603780BB1FFF7BEFF0023237059
:1028D00010BD00BF08B5FDF7C5FDFEF74BF800F0D1
:1028E0003FF8FAE708B501F073FD08BD08B5FFF73A
:1028F00005FE08BD08B5FFF7B5FD08BD08B5FFF733
:10290000DDFD08BD08B5FFF791FE08BD08B5084616
:10291000FFF780FE08BD00BF08B508461146FFF767
:10292000FBFD08BD704700BF044B00221A714FF435
:102930007A7199601A73024A1A607047A09AFF1F51
:10294000284E000010B4401A019CE41A04FB00F465
:10295000521A94FBF2F018445DF8044B704700BF24
:1029600008B50F4B1B78CBB901220D4B1A70FFF73E
:10297000C5FD08B1FFF7D6FF00F0DAFA08B101F0A3
:10298000DFF800F051FD08B101F060F900F06EFFD2
:1029900008B101F0E1F90022014B1A7008BD00BF37
:1029A000B09AFF1F60223A4B1A70E12201331A706D
:1029B000384B1B78082B10D1012203F1804303F51B
:1029C0006C331A60132334490B6001F5FF2101F2C7
:1029D000FC710A60314A13601FE00A2B0DD13922C5
:1029E0002F4B1A6013232C490B6001F5FF2101F2D4
:1029F000FC710A60294A13600FE00C2B0CBF3522D2
:102A00003D22274B1A60122323490B6001F5FF2159
:102A100001F2FC710A60214A1360224B1B7833B12A
:102A20000123214A136002F50022136005E0002310
:102A30001D4A136002F5002213601C4B1B78012B0A
:102A400006D880231A4A136002F5002213601AE0A8
:102A5000042B06D88423164A136002F50022136063
:102A600011E0082B06D88523114A136002F50022D5
:102A7000136008E0102B94BF862387230C4A136051
:102A800002F50022136001220A4B1A70704700BF42
:102A9000004007406C87FF1F0CB003400CB00B4098
:102AA00008B00340B29AFF1F20B003406D87FF1F9C
:102AB00024B00340B19AFF1F094B1A6842F48052B8
:102AC0001A60084B1B781BB18022074B1A7002E07A
:102AD000C022054B1A7080F30C00044B188070471D
:102AE0002C800440B29AFF1F21C00C4000C00C4053
:102AF000024B1A6801321A60704700BF9099FF1F9D
:102B000008B50D4C236813F4802F01D0FFF7A4F80B
:102B1000236813F4806F01D000F06EFA236813F479
:102B2000006F01D000F0E4FC236813F4805FE9D06B
:102B300000F0ECFEE6E700BF3480044008B5FFF784
:102B4000DFFF00BF1022014B1A80704700200540B4
:102B5000704700BF024A1368184410601846704757
:102B60007087FF1FEFF31383ABB9EFF31083ABB99B
:102B7000EFF3058323B10F2B05D9094A985C03E0D5
:102B80004FF4807000E00020EFF311833BB18342EB
:102B900038BF184670474FF0FF307047002070472D
:102BA000F0E300E003782BB100230133C25C002A7C
:102BB000FBD100E000231846704700BF30B400236B
:102BC000B0FBF2F402FB14041D46092C94BF303410
:102BD0003734E4B2CC54B0FBF2F008B10133EFE784
:102BE0000D4400226A70934207DD885CCC5C8C54F3
:102BF000C8540132013B9A42F7DB084630BC7047AB
:102C0000194B1A6842F480621A600023174A137045
:102C1000174A1370174A1370174A1370174A137024
:102C200040F21332164B1A604FF4517204331A609B
:102C3000C0F34432134B1A70C0F347125A7000F0BD
:102C40001F00987204229A700221D9745A75882242
:102C50001A743C22DA7040220B4B1A704FF4005267
:102C6000A3F229331A60704734800440389BFF1F59
:102C7000B49AFF1F409BFF1F399BFF1FB39AFF1F92
:102C800040A0044000A006402DE400E0164B9B78D5
:102C900003F0EC0300F00302134310F0040F18BF1D
:102CA00043F01003104A937000F00F03042B04D17B
:102CB0001346927942F040029A710B4B5A7902F016
:102CC000EF0210F0100F18BF42F01002064B5A71BD
:102CD0009B7903F0EF0310F0200F18BF43F01003AF
:102CE000014A9371704700BF00A0064010B5114B18
:102CF0001B6813F4806F1CD00F4B1B7813F0FF0F71
:102D000006D00D4CFFF72CFE237813F0FF0FF9D1FE
:102D10004FF40052094B1A600023094AD37040F265
:102D2000031208490A6004310A60074A1370074A0F
:102D3000137010BD34800440B39AFF1F84E100E09B
:102D400000A0064040A00440389BFF1FB49AFF1F1C
:102D500010B50446094A137813F0FF0FFBD1204643
:102D60000121FEF7EBFC20460021FEF7B5FC044BE9
:102D700053F83420034B1A6010BD00BFB39AFF1FF5
:102D80000C4D00003C9BFF1F2DE9F04107461F4BF7
:102D90001B6813F4806F37D01D4B1B680BB10122E9
:102DA0001A701C4B1C780134402C28BF00241A4D8B
:102DB0001A4EDFF86C8017E0FFF7D4FE40280FDCD6
:102DC000337913F0800F0FD02B780133402B28BFBD
:102DD000002318F80320D2B2F271DBB22B7003E0AB
:102DE000FF2801DDFFF7BCFD2B78DBB29C42E3D06E
:102DF000FFB20B4B1F5501220A4B1A70E4B2054B70
:102E00001C70BC22054BDA70BDE8F08134800440B0
:102E10003C9BFF1F409BFF1F399BFF1F00A00640EC
:102E2000B89AFF1FB39AFF1F2DE9F84F0746284BAA
:102E30001B6813F4806F49D0264B1B680BB101222D
:102E40001A7007EB010B5F453DD2DFF89890224ED8
:102E5000DFF88C80DFF890A099F800400134402C16
:102E600028BF00243578EDB2A54220D1BC2388F8D4
:102E70000330FFF777FE402811DC98F8043013F098
:102E8000800F10D033780133402B28BF00231AF86D
:102E90000320D2B288F80720DBB2337003E0FF28AA
:102EA00001DDFFF75DFD3378DBB29D42E1D017F81D
:102EB000013B0AF804300122084B1A70E4B289F889
:102EC00000405F45C8D1BC22054BDA70BDE8F88FE1
:102ED000348004403C9BFF1F399BFF1FB39AFF1FA8
:102EE00000A00640409BFF1FB89AFF1F10B5064B7D
:102EF0001B7813F0FF0F06D0034CFFF731FD23784A
:102F000013F0FF0FF9D110BDB39AFF1F064B1B78CA
:102F1000DBB2064A1278D2B293422CBF3F3202F1A2
:102F2000FF32D01A704700BF409BFF1F399BFF1F25
:102F3000054B1878C0B2054B1B78DBB2984238BFFE
:102F40004030C01A704700BF389BFF1FB49AFF1F64
:102F50000A4B1A78D2B20A4B1B78DBB29A4209D0DC
:102F60000133402B28BF0023064AD05CDBB2044A61
:102F7000137070474FF0FF30704700BF389BFF1F42
:102F8000B49AFF1FF89AFF1F094B1A78D2B2094B67
:102F90001B78DBB29A4207D00133402B28BF0023B5
:102FA000054AD05CC0B270474FF0FF30704700BF99
:102FB000389BFF1FB49AFF1FF89AFF1F0A4B1B682C
:102FC00013F4806F0FD0094BDA7802F0CB02DA707D
:102FD00040225A74DA7842F03402DA70044B1A78DC
:102FE000D2B2044B1A7070473480044000A00640EF
:102FF000B49AFF1F389BFF1F70B4364B1B7913F038
:10300000300F25D072B6334B9B7D03F0FF022BB9F6
:10301000304BDA7940225A7462B619E062B62E4B10
:103020001978C9B22D4B1D78EDB22A4C2C4EE3799C
:10303000D8B24B1C402B28BF0023AB421CBFF0541E
:103040001946531E13F0FF02F1D1C9B2224B197079
:10305000204BDA78D2B212F0800F27D01B7913F010
:10306000800F23D01F4B1C78E4B21F4B1B78DBB2C0
:103070009C4210D017491D4D01E0A3420BD00133F3
:10308000402B28BF00230879E85CC0B2C871087DD6
:10309000C0B20728F1D9DBB213490B700D4B1B7975
:1030A00013F0800F02D07C210A4BD97012F0400F30
:1030B0000ED0084B1B7913F0400F09D000220C4BA7
:1030C0001A700C4B1B6803B11A703C22014BDA706A
:1030D00070BC704700A00640389BFF1FB49AFF1FCA
:1030E000F89AFF1F409BFF1F399BFF1FB89AFF1FD5
:1030F000B39AFF1F3C9BFF1F194B1A6842F40062F2
:103100001A600023174A1370174A1370174A137076
:10311000174A1370174A137040F21332164B1A6095
:103120004FF4517204331A60C0F34432134B1A70D7
:10313000C0F347125A7000F01F00987204229A7070
:103140000221D9745A7588221A743C22DA704022FE
:103150000B4B1A704FF40042A3F22B331A607047E6
:1031600034800440AC9BFF1F429BFF1FB49BFF1F9A
:10317000AD9BFF1F419BFF1F0CB0044000B00640F9
:103180002FE400E0164B9B7803F0EC0300F0030201
:10319000134310F0040F18BF43F01003104A93704C
:1031A00000F00F03042B04D11346927942F0400241
:1031B0009A710B4B5A7902F0EF0210F0100F18BF02
:1031C00042F01002064B5A719B7903F0EF0310F0A6
:1031D000200F18BF43F01003014A9371704700BFDE
:1031E00000B0064010B5114B1B6813F4006F1CD0E3
:1031F0000F4B1B7813F0FF0F06D00D4CFFF7B0FB01
:10320000237813F0FF0FF9D14FF40042094B1A60F5
:103210000023094AD37040F2031208490A600431BE
:103220000A60074A1370074A137010BD34800440C7
:10323000419BFF1F84E100E000B006400CB0044059
:10324000AC9BFF1F429BFF1F10B50446094A137831
:1032500013F0FF0FFBD120460121FEF76FFA204645
:103260000021FEF739FA044B53F83420034B1A605F
:1032700010BD00BF419BFF1F0C4D0000B09BFF1F06
:103280002DE9F04107461F4B1B6813F4006F37D040
:103290001D4B1B680BB101221A701C4B1C780134AA
:1032A000282C28BF00241A4D1A4EDFF86C8017E036
:1032B000FFF758FC40280FDC337913F0800F0FD054
:1032C0002B780133282B28BF002318F80320D2B213
:1032D000F271DBB22B7003E0FF2801DDFFF740FB4A
:1032E0002B78DBB29C42E3D0FFB20B4B1F5501227F
:1032F0000A4B1A70E4B2054B1C70BC22054BDA7005
:10330000BDE8F08134800440B09BFF1FB49BFF1FD9
:10331000AD9BFF1F00B00640449BFF1F419BFF1F5A
:103320002DE9F84F0746284B1B6813F4006F49D06E
:10333000264B1B680BB101221A7007EB010B5F458E
:103340003DD2DFF89890224EDFF88C80DFF890A015
:1033500099F800400134282C28BF00243578EDB2BC
:10336000A54220D1BC2388F80330FFF7FBFB40289F
:1033700011DC98F8043013F0800F10D0337801334B
:10338000282B28BF00231AF80320D2B288F8072080
:10339000DBB2337003E0FF2801DDFFF7E1FA337899
:1033A000DBB29D42E1D017F8013B0AF8043001225C
:1033B000084B1A70E4B289F800405F45C8D1BC22BE
:1033C000054BDA70BDE8F88F34800440B09BFF1FD6
:1033D000AD9BFF1F419BFF1F00B00640B49BFF1F2A
:1033E000449BFF1F10B5064B1B7813F0FF0F06D050
:1033F000034CFFF7B5FA237813F0FF0FF9D110BD96
:10340000419BFF1F064B1B78DBB2064A1278D2B2F3
:1034100093422CBF273202F1FF32D01A704700BF0F
:10342000B49BFF1FAD9BFF1F054B1878C0B2054B27
:103430001B78DBB2984238BF4030C01A704700BFDB
:10344000AC9BFF1F429BFF1F0A4B1A78D2B20A4B5C
:103450001B78DBB29A4209D00133402B28BF0023EE
:10346000064AD05CDBB2044A137070474FF0FF305D
:10347000704700BFAC9BFF1F429BFF1F6C9BFF1F51
:10348000094B1A78D2B2094B1B78DBB29A4207D0AB
:103490000133402B28BF0023054AD05CC0B27047DF
:1034A0004FF0FF30704700BFAC9BFF1F429BFF1FD8
:1034B0006C9BFF1F0A4B1B6813F4006F0FD0094B66
:1034C000DA7802F0CB02DA7040225A74DA7842F0ED
:1034D0003402DA70044B1A78D2B2044B1A70704777
:1034E0003480044000B00640429BFF1FAC9BFF1F8E
:1034F00070B4364B1B7913F0300F25D072B6334BB6
:103500009B7D03F0FF022BB9304BDA7940225A74CD
:1035100062B619E062B62E4B1978C9B22D4B1D78F0
:10352000EDB22A4C2C4EE379D8B24B1C402B28BF6D
:103530000023AB421CBFF0541946531E13F0FF0288
:10354000F1D1C9B2224B1970204BDA78D2B212F005
:10355000800F27D01B7913F0800F23D01F4B1C78CE
:10356000E4B21F4B1B78DBB29C4210D017491D4DB3
:1035700001E0A3420BD00133282B28BF0023087998
:10358000E85CC0B2C871087DC0B20728F1D9DBB2CF
:1035900013490B700D4B1B7913F0800F02D07C2167
:1035A0000A4BD97012F0400F0ED0084B1B7913F064
:1035B000400F09D000220C4B1A700C4B1B6803B152
:1035C0001A703C22014BDA7070BC704700B00640A4
:1035D000AC9BFF1F429BFF1F6C9BFF1FB49BFF1FF9
:1035E000AD9BFF1F449BFF1F419BFF1FB09BFF1F15
:1035F000174B1A6842F480521A600023154A137060
:10360000154A1370154A1370154A1370154A137032
:1036100040F21331144A11604FF4517104321160B9
:10362000C0F34431114A1170C0F34711517000F0DA
:103630001F009072937013742C23D37040220C4B94
:103640001A704FF40032A3F22D331A60704700BF96
:1036500034800440209CFF1FB69BFF1F289CFF1F47
:10366000219CFF1FB59BFF1F08C0044000C00640FF
:1036700031E400E0164B9B7803F0EC0300F003020A
:10368000134310F0040F18BF43F01003104A937057
:1036900000F00F03042B04D11346927942F040024C
:1036A0009A710B4B5A7902F0EF0210F0100F18BF0D
:1036B00042F01002064B5A719B7903F0EF0310F0B1
:1036C000200F18BF43F01003014A9371704700BFE9
:1036D00000C0064010B5114B1B6813F4805F1CD06E
:1036E0000F4B1B7813F0FF0F06D00D4CFFF738F986
:1036F000237813F0FF0FF9D14FF40032094B1A6011
:103700000023094AD37040F2031208490A600431C9
:103710000A60074A1370074A137010BD34800440D2
:10372000B59BFF1F84E100E000C0064008C00440D4
:10373000209CFF1FB69BFF1F10B50446094A137853
:1037400013F0FF0FFBD120460121FDF7F7FF2046C4
:103750000021FDF7C1FF044B53F83420034B1A60DE
:1037600010BD00BFB59BFF1F0C4D0000249CFF1F28
:103770002DE9F04107461F4B1B6813F4805F37D0DB
:103780001D4B1B680BB101221A701C4B1C780134B5
:10379000282C28BF00241A4D1A4EDFF86C8017E041
:1037A000FFF7E0F940280FDC337913F0800F0FD0DA
:1037B0002B780133282B28BF002318F80320D2B21E
:1037C000F271DBB22B7003E0FF2801DDFFF7C8F8D0
:1037D0002B78DBB29C42E3D0FFB20B4B1F5501228A
:1037E0000A4B1A70E4B2054B1C70AC22054BDA7020
:1037F000BDE8F08134800440249CFF1F289CFF1FFB
:10380000219CFF1F00C00640B89BFF1FB59BFF1FF8
:1038100038B505460C4629B115F8010BFFF7A8FF8E
:10382000013CF9D138BD00BF10B5064B1B7813F031
:10383000FF0F06D0034CFFF793F8237813F0FF0F28
:10384000F9D110BDB59BFF1F064B1B78DBB2064AB2
:103850001278D2B293422CBF273202F1FF32D01A33
:10386000704700BF289CFF1F219CFF1F054B187845
:10387000C0B2054B1B78DBB2984238BF4030C01A4B
:10388000704700BF209CFF1FB69BFF1F0A4B1A7892
:10389000D2B20A4B1B78DBB29A4209D00133402BDB
:1038A00028BF0023064AD05CDBB2044A137070477D
:1038B0004FF0FF30704700BF209CFF1FB69BFF1FDB
:1038C000E09BFF1F094B1A78D2B2094B1B78DBB281
:1038D0009A4207D00133402B28BF0023054AD05C11
:1038E000C0B270474FF0FF30704700BF209CFF1FF1
:1038F000B69BFF1FE09BFF1F024B1A78D2B2024B10
:103900001A707047B69BFF1F209CFF1F264B1B7928
:1039100013F0200F12D0244BDB79D9B2234B1B7844
:103920000133402B28BF0023214A1278D2B29A4299
:1039300004D0204AD154DBB21C4A13701A4BDB78F6
:10394000DBB213F0800F1CD0174A127912F0800FEF
:1039500017D0194A1178C9B2184A1278D2B29142D6
:1039600003D16C21104AD1700BE00132282A28BF04
:1039700000221349885CC0B20B49C871D2B20F490A
:103980000A7013F0400F0ED0074B1B7913F0400F55
:1039900009D000220B4B1A700B4B1B6803B11A7035
:1039A0002C22014BDA70704700C00640209CFF1F9C
:1039B000B69BFF1FE09BFF1F289CFF1F219CFF1F42
:1039C000B89BFF1FB59BFF1F249CFF1F00B585B050
:1039D00072B61B4B70221A7041211A4A11700F21C6
:1039E000013A117080221A701A46137813F0800F72
:1039F000FBD0154B186862B6144B98429CBF00EB85
:103A00008000400001A90A22FFF7D8F89DF8043091
:103A10007BB908E001A9595C31B1918002320133D0
:103A20000A2BF7D100E0002301335B00084A137032
:103A300003E0074A53800123ECE705B05DF804FB7F
:103A40000000024007000240080002407F969800F4
:103A50000088FF1F08B503681B68C9B2984708BDF6
:103A600008B503681B68C9B2984708BD08B5036864
:103A70001B68C9B2984708BD08B503681B68C9B27E
:103A8000984708BD08B54B0803F1376000F5D830FA
:103A9000B0FBF1F0FFF7B4F808BD00BF10B5144655
:103AA0004B0803F1376000F5D830B0FBF1F0FFF7B9
:103AB000A7F82046FFF7EAF810BD00BF08B5FFF7EA
:103AC00015F908BD08B50846FFF742F908BD00BF63
:103AD00008B5FFF72DFA08BD08B5FFF755FA08BD80
:103AE00008B5FFF735FA08BD08B5FFF7FFF908BDBF
:103AF00008B5FFF763FA08BD08B5FFF707FA08BD78
:103B000008B50846FFF740F9012008BD08B508468A
:103B1000FFF73AF9012008BD10B5144608461146D2
:103B2000FFF782F9204610BD38B50D460846FFF76D
:103B300039F8044628462146FFF776F9204638BD75
:103B4000704700BF044B00221A714FF47A719960DC
:103B50001A73024A1A6070472C9CFF1FA04E000087
:103B600008B503681B68C9B2984708BD08B5036863
:103B70001B68C9B2984708BD08B503681B68C9B27D
:103B8000984708BD08B503681B68C9B2984708BDC7
:103B900008B54B0803F1376000F5D830B0FBF1F001
:103BA000FFF7AAFA08BD00BF10B514464B0803F191
:103BB000376000F5D830B0FBF1F0FFF79DFA2046F2
:103BC000FFF7E0FA10BD00BF08B5FFF70BFB08BD1B
:103BD00008B50846FFF738FB08BD00BF08B5FFF77A
:103BE00023FC08BD08B5FFF74BFC08BD08B5FFF77F
:103BF0002BFC08BD08B5FFF7F5FB08BD08B5FFF7BE
:103C000059FC08BD08B5FFF7FDFB08BD08B508461F
:103C1000FFF736FB012008BD08B50846FFF730FB6B
:103C2000012008BD10B5144608461146FFF778FB81
:103C3000204610BD38B50D460846FEF7B3FF0446D2
:103C400028462146FFF76CFB204638BD704700BF71
:103C5000044B00221A714FF47A7199601A73024A68
:103C60001A6070473C9CFF1FF04E000008B50368C7
:103C70001B68C9B2984708BD08B503681B68C9B27C
:103C8000984708BD08B503681B68C9B2984708BDC6
:103C900008B503681B68C9B2984708BD08B54B084A
:103CA00003F1B76000F55840B0FBF1F0FFF7A0FC5E
:103CB00008BD00BF10B514464B0803F1B76000F50E
:103CC0005840B0FBF1F0FFF793FC2046FFF7D2FC21
:103CD00010BD00BF08B5FFF7FDFC08BD08B50846DC
:103CE000FFF72AFD08BD00BF08B5FFF7BFFD08BDFF
:103CF00008B5FFF7E7FD08BD08B5FFF7C7FD08BD2C
:103D000008B5FFF791FD08BD08B5FFF7F5FD08BD43
:103D100008B5FFF799FD08BD08B50846FFF728FD6F
:103D2000012008BD08B50846FFF722FD012008BDA7
:103D300010B5144608461146FFF76AFD204610BD2F
:103D400038B50D460846FEF72DFF044628462146A5
:103D5000FFF75EFD204638BD704700BF044B0022D0
:103D60001A714FF47A7199601A73024A1A60704797
:103D70004C9CFF1F404F000080F0004002E000BF5D
:103D800081F0004142001FBF5FEA410392EA030F46
:103D90007FEA226C7FEA236C6AD04FEA1262D2EB90
:103DA0001363C1BFD218414048404140B8BF5B4295
:103DB000192B88BF704710F0004F40F4000020F02E
:103DC0007F4018BF404211F0004F41F4000121F044
:103DD0007F4118BF494292EA030F3FD0A2F101028E
:103DE00041FA03FC10EB0C00C3F1200301FA03F1CC
:103DF00000F0004302D5494260EB4000B0F5000FEF
:103E000013D3B0F1807F06D340084FEA310102F1AD
:103E10000102FE2A51D2B1F1004F40EBC25008BF5F
:103E200020F0010040EA03007047490040EB000029
:103E300010F4000FA2F10102EDD1B0FA80FCACF158
:103E4000080CB2EB0C0200FA0CF0AABF00EBC25057
:103E500052421843BCBFD0401843704792F0000F45
:103E600081F4000106BF80F400000132013BB5E798
:103E70004FEA41037FEA226C18BF7FEA236C21D00E
:103E800092EA030F04D092F0000F08BF0846704773
:103E900090EA010F1CBF0020704712F07F4F04D141
:103EA000400028BF40F00040704712F100723CBF54
:103EB00000F50000704700F0004343F0FE4040F47E
:103EC000000070477FEA226216BF08467FEA23633C
:103ED0000146420206BF5FEA412390EA010F40F427
:103EE000800070474FF0000304E000BF10F0004373
:103EF00048BF40425FEA000C08BF704743F096435A
:103F000001464FF000001CE050EA010208BF704774
:103F10004FF000030AE000BF50EA010208BF7047FB
:103F200011F0004302D5404261EB41015FEA010C10
:103F300002BF84460146002043F0B64308BFA3F108
:103F40008053A3F50003BCFA8CF2083AA3EBC253EA
:103F500010DB01FA02FC634400FA02FCC2F1200209
:103F6000BCF1004F20FA02F243EB020008BF20F040
:103F70000100704702F1200201FA02FCC2F12002A6
:103F800050EA4C0021FA02F243EB020008BF20EA9B
:103F9000DC7070474FF0FF0C1CEAD0521EBF1CEAC9
:103FA000D15392EA0C0F93EA0C0F6FD01A4480EAB7
:103FB000010C400218BF5FEA41211ED04FF00063A0
:103FC00043EA501043EA5111A0FB01310CF00040CC
:103FD000B1F5000F3EBF490041EAD3715B0040EAF2
:103FE000010062F17F02FD2A1DD8B3F1004F40EBC2
:103FF000C25008BF20F00100704790F0000F0CF095
:10400000004C08BF49024CEA502040EA51207F3A58
:10401000C2BFD2F1FF0340EAC250704740F4000033
:104020004FF00003013A5DDC12F1190FDCBF00F024
:1040300000407047C2F10002410021FA02F1C2F1D2
:10404000200200FA02FC5FEA310040F1000053EA6E
:104050004C0308BF20EADC70704792F0000F00F0BC
:10406000004C02BF400010F4000F013AF9D040EAC2
:104070000C0093F0000F01F0004C02BF490011F456
:10408000000F013BF9D041EA0C018FE70CEAD15354
:1040900092EA0C0F18BF93EA0C0F0AD030F0004CD4
:1040A00018BF31F0004CD8D180EA010000F0004088
:1040B000704790F0000F17BF90F0004F084691F046
:1040C000000F91F0004F14D092EA0C0F01D1420280
:1040D0000FD193EA0C0F03D14B0218BF084608D149
:1040E00080EA010000F0004040F0FE4040F4000093
:1040F000704740F0FE4040F4400070474FF0FF0C26
:104100001CEAD0521EBF1CEAD15392EA0C0F93EA6C
:104110000C0F69D0A2EB030280EA010C49024FEABE
:10412000402037D04FF0805343EA111143EA101377
:104130000CF000408B4238BF5B0042F17D024FF42F
:10414000000C8B4224BF5B1A40EA0C00B3EB510F0A
:1041500024BFA3EB510340EA5C00B3EB910F24BFF3
:10416000A3EB910340EA9C00B3EBD10F24BFA3EB78
:10417000D10340EADC001B0118BF5FEA1C1CE0D140
:10418000FD2A3FF650AF8B4240EBC25008BF20F0F3
:10419000010070470CF0004C4CEA50207F32C2BF47
:1041A000D2F1FF0340EAC250704740F400004FF0E4
:1041B0000003013A37E792F0000F00F0004C02BF15
:1041C000400010F4000F013AF9D040EA0C0093F0DF
:1041D000000F01F0004C02BF490011F4000F013B39
:1041E000F9D041EA0C0195E70CEAD15392EA0C0FA1
:1041F00008D142027FF47DAF93EA0C0F7FF470AFD9
:10420000084676E793EA0C0F04D14B023FF44CAF1B
:1042100008466EE730F0004C18BF31F0004CCAD1B0
:1042200030F000427FF45CAF31F000437FF43CAFEC
:104230005FE700BF4FF0FF3C06E000BF4FF0010C0E
:1042400002E000BF4FF0010C4DF804CD4FEA4002F0
:104250004FEA41037FEA226C18BF7FEA236C11D03A
:1042600001B052EA530C18BF90EA010F58BFB2EBED
:10427000030088BFC81738BF6FEAE17018BF40F06D
:10428000010070477FEA226C02D15FEA402C05D121
:104290007FEA236CE4D15FEA412CE1D05DF8040BA6
:1042A000704700BF844608466146FFE70FB5FFF739
:1042B000C9FF002848BF10F1000F0FBD4DF808EDF1
:1042C000FFF7F4FF0CBF012000205DF808FB00BFE2
:1042D0004DF808EDFFF7EAFF34BF012000205DF83C
:1042E00008FB00BF4DF808EDFFF7E0FF94BF012089
:1042F00000205DF808FB00BF4DF808EDFFF7D2FF86
:1043000094BF012000205DF808FB00BF4DF808EDC8
:10431000FFF7C8FF34BF012000205DF808FB00BF95
:1043200042000ED2B2F1FE4F0BD34FF09E03B3EB1F
:10433000126209D44FEA002343F0004323FA02F04B
:1043400070474FF00000704712F1610F01D1420237
:1043500002D14FF0FF3070474FF00000704700BFB0
:1043600003460846194600F001B800BF10B40C46D9
:1043700013460146224602205DF8044B00F0E2BAE3
:1043800070B50F4E0F4D761BB61007D0043D0024BC
:10439000013455F8043F9847A642F9D10A4E0B4D17
:1043A000761B00F0F5FDB61008D0043D0024013462
:1043B00055F8043F9847A642F9D170BD70BD00BFC3
:1043C0009C4F00009C4F0000C04F00009C4F00001D
:1043D000024B0146186800F003B800BF408CFF1F75
:1043E0002DE9F04F01F10B05162D83B0064627D9B4
:1043F00035F0070527D4A94225D8304600F08CFABD
:10440000B5F5FC7F26D2C14F4FEAD50C07EBCC03A4
:10441000DC689C4200F0D2816368E268A16823F006
:104420000303234430465D68CA6045F0010591608E
:104430005D6000F073FA0834204603B0BDE8F08FE9
:104440001025A942D9D900240C232046336003B09B
:10445000BDE8F08F5FEA552C00F08A80BCF1040FB4
:1044600000F260814FEA951C0CF1380C4FEA4C01C8
:10447000A64F07EB8101CC68A14205D10CE0002BCF
:104480007ADAE468A14207D0626822F00302531B83
:104490000F2BF4DD0CF1FF3C0CF1010C9B4B3C6944
:1044A00003F1080E744500F07E81616821F003017C
:1044B0004A1B0F2A00F36481002AC3F814E0C3F8F2
:1044C00010E06ADAB1F5007F80F03A81C90803EBA9
:1044D000C1004FEAA1085A688168A1604FF0010944
:1044E00009FA08F848EA0202E0605A608460CC6089
:1044F0004FEAAC030120984090425BD8024206D1BB
:104500002CF0030C400002420CF1040CFAD007EB33
:10451000CC084446E146E3689C4207D145E1002AC5
:1045200080F25681DB689C4200F03F81596821F09F
:1045300003014A1B0F2AF2DD1C46D3F80CC054F8C5
:10454000088F591945F0010942F00105C3F804909C
:104550003046C8F80CC0CCF8088079613961C1F8E0
:104560000CE0C1F808E04D608A5000F0D7F963E72D
:104570007E214FF03F0C7BE72244E3685068A1683E
:1045800040F00105CB6030469960556000F0C6F9F7
:104590000834204603B0BDE8F08F214430464B6814
:1045A00043F001034B6000F0B9F90834204603B032
:1045B000BDE8F08FBC68636823F00309A94504D304
:1045C000C5EB09030F2B00F39180514B514A196839
:1045D0001368013305EB010A04EB090B00F061815C
:1045E0000AF5805A0AF10F0A2AF47F6A2AF00F0AA4
:1045F00030465146019200F093F9B0F1FF3F8046FA
:10460000019A00F00081834500F2FA80DFF810C1C2
:10461000DCF80030C3455344CCF8003000F04A8148
:1046200012683C4901321BBFCBEB080B5B44C1F85D
:104630000080CCF8003018F0070300F01381C3F1BC
:104640000802C3F5805390440833C244CAF30B0AEE
:10465000CAEB030A51463046CDF804C000F060F9B9
:10466000431CDDF804C000F03581C8EB0002524461
:1046700042F00102DCF80030C7F808805344BC4225
:10468000C8F80420CCF80030DFF894A015D0B9F1B8
:104690000F0F40F2EA806168A9F10C0222F00702D4
:1046A00001F0010EA118052042EA0E0E0F2AC4F8EF
:1046B00004E04860886000F21181174ABC68116804
:1046C0008B4288BF1360154A11688B4288BF136004
:1046D000626822F003029542C5EB020301D80F2B5A
:1046E00004DC304600F01AF90024A5E6621943F014
:1046F000010345F0010565603046BA60536000F083
:104700000DF90834204603B0BDE8F08F448CFF1F3C
:10471000649CFF1F5090FF1F609CFF1F5C9CFF1F4D
:10472000689CFF1FBCF1140F61D9BCF1540F00F25B
:104730008F804FEA153C0CF16E0C4FEA4C0197E666
:104740004B0A042B58D9142B00F2AE8003F15B0204
:10475000500007EB8000DFF8BC818368834200F0E3
:104760008A805A6822F00302914202D29B689842E2
:10477000F7D1D9687A68E160A3608C60DC60B7E645
:10478000611942F0010745F0010565603046596145
:104790001961C1F80CE0C1F808E04F608A50083494
:1047A00000F0BCF848E65A68A2E609F1010919F0E0
:1047B000030F04F108047FF4AEAE2DE004F108030A
:1047C0006469A34208BF0CF1020C3FF467AE23E614
:1047D00019441C464868DB6854F8082F40F001056E
:1047E0004D603046D3609A6000F098F824E60CF1F2
:1047F0005B0C4FEA4C013BE68A0938325000A8E7CF
:10480000BC423FF403AFBC68626822F0030262E777
:10481000D8F8008098457BD11CF0030FA8F108035D
:104820000CF1FF3CF4D17B6823EA00037B6040007D
:1048300098423FF6BFAE00283FF4BCAE0342CC46E0
:104840007FF465AE400003420CF1040CFAD05EE642
:10485000BCF5AA7F1AD84FEAD53C0CF1770C4FEA89
:104860004C0105E64FF48053EFE60123C8F804300D
:10487000444600222FE791100120D8F8042000FAC6
:1048800001F10A43C8F80420194674E740F2545372
:104890009C451BD84FEA954C0CF17C0C4FEA4C011F
:1048A000E6E50AF1100AA3E6542B1FD80A0B6E3274
:1048B00050004EE7CBF30B0100297FF4B1AE0AEBB9
:1048C0000901BA6841F001015160F6E6FC214FF0A0
:1048D0007E0CCDE501224FF0000ACBE604F1080181
:1048E000304600F0F9F8DAF80030E6E6B3F5AA7FD2
:1048F00003D8CA0B773250002BE740F25452934250
:1049000003D88A0C7C32500023E7FC207E2220E76B
:104910007B688CE7448CFF1F704700BF704700BF67
:1049200038B5074C0023054608462360FEF712F908
:10493000431C00D038BD2368002BFBD02B6038BD52
:10494000A09CFF1FF0B5274C2668D6F8484185B0DB
:104950000746002C41D065681F2D1EDD224818B97E
:104960004FF0FF3005B0F0BD4FF4C87003910292D4
:104970000193FFF72DFD0399029A019B044600283D
:10498000EED0D6F848512560002060600546C6F894
:104990004841C4F88801C4F88C013FB9AB1C002021
:1049A0000135656044F8231005B0F0BD04EB8500C7
:1049B0004FF0010CC0F88820D4F888610CFA05F299
:1049C0001643022FC4F88861C0F80831E6D1D4F844
:1049D0008C311A43C4F88C21E0E706F5A674C6F8BA
:1049E0004841B8E78C4F0000D1430000024B13B19F
:1049F000024800F005B87047000000000D4A0000B2
:104A00000146002002460346FFF79CBF38B5094D1A
:104A1000094C641BA41018BF05EB840505D0013CAC
:104A200055F8043D9847002CF9D1BDE8384000F016
:104A3000C7BA00BF0000000000000000F8B5234D19
:104A40000F460446FFF768FFAB685E6826F0030672
:104A5000F11B01F6EF7121F47F6121F00F01A1F547
:104A60008057B7F5805F07DB20460021FFF758FF2E
:104A7000AB683344984204D02046FFF74FFF002034
:104A8000F8BD20467942FFF74BFF01300DD0104BA7
:104A9000AA681968F61B46F001062046C91B566035
:104AA0001960FFF73BFF0120F8BD20460021FFF70A
:104AB00037FFAB68C21A0F2ADEDD064D04492D68A8
:104AC00042F00102401B5A600860D5E7448CFF1F8A
:104AD000689CFF1F5090FF1F2DE9F0410D460646D0
:104AE000002955D0FFF718FF55F8041CDFF874C1F2
:104AF00021F00103A5F10804E218DCF8080057686A
:104B0000904227F0030769D011F00101576032D0BD
:104B10000021D0194068C00706D43B4490680029A2
:104B20004ED0D268C260906043F001026260E350F0
:104B3000E1B9B3F5007F2DD35A0A042A6AD898093F
:104B4000383041000CEB810C4649DCF80820624506
:104B500066D0516821F003018B4202D292689445DD
:104B6000F7D1D368E360A2609C60D4603046BDE8B2
:104B7000F041FFF7D3BE55F8085C641B0CF1080840
:104B8000A06840452B4443D0E568C560A860C0E7F5
:104B9000BDE8F081DB080CEBC3020125DCF8040062
:104BA0009168A1609B1005FA03F31843E260CCF80A
:104BB000040094603046CC60BDE8F041FFF7AEBE23
:104BC000294DA842ADD143F00102CCF81440CCF8F5
:104BD0001040E060A0606260E350C7E71F44CB076D
:104BE00007D455F8083CE41A1F44A268E368D36070
:104BF0009A601E4B1B6847F001029F426260CCF82E
:104C00000840B3D31A4B30461968FFF717FFADE7DA
:104C100001217EE7142A0CD802F15B00410091E7E4
:104C20004B688010012505FA00F003434B601346E2
:104C300098E7542A03D8180B6E30410082E7B2F58A
:104C4000AA7F03D8D80B773041007BE740F254515C
:104C50008A4203D8980C7C30410073E7FC217E2007
:104C600070E700BF448CFF1F4C8CFF1F4C90FF1F50
:104C7000649CFF1F1F1F08091F1F1F1F1F1F031FEB
:104C800000131F1F08091F1F1F1F1F1F1F1F0505C0
:104C9000040607041F1F031F00131A121F1B1D1EEB
:104CA00022000024170E14151011000013120F1605
:104CB0000000002300252728000026292A2B0000B9
:104CC000240000221C1A1D1E10110000000000000C
:104CD000000027250000000000002629002A2B00E4
:104CE000050E08090D0C06070F0400130315050E29
:104CF00008090D0C06070F041F1F1F1F1F1F1F1F72
:104D00001F1F001303151A16171B1D1E4008FE4314
:104D100040A004404408FE4344A004400018FE4361
:104D200000C004403000FE43309004403400FE4395
:104D3000349004401C18FE431CC004401018FE436D
:104D400010C004400818FE4308C004400C18FE437D
:104D50000CC004400C10FE430CB004401010FE4385
:104D600010B004401810FE4318B004401C10FE435D
:104D70001CB004401410FE4314B004400418FE4359
:104D800004C004400010FE4300B004400008FE438D
:104D900000A004400408FE4304A004400C08FE43A5
:104DA0000CA004400808FE4308A004401418FE4369
:104DB00014C004401818FE4318C004400410FE43F9
:104DC00004B004400810FE4308B004401400FE4341
:104DD000149004404C08FE434CA004400420FE43C1
:104DE00004D004402410FE4324B004402010FE43AD
:104DF00020B004402810FE4328B004402C10FE438D
:104E00002CB004400020FE4300D004404808FE437C
:104E100048A004401000FE4310900440FFFFFFFF35
:104E200000000000000000000D290000192900000A
:104E3000ED280000F5280000FD28000005290000ED
:104E400000151915000100007487FF1F12000000F3
:104E500000020000A087FF1F4300000000030000C5
:104E6000FC87FF1F00000000010309048887FF1F63
:104E70000000000002030904E487FF1F0000000097
:104E8000030309040088FF1F000000000000000069
:104E90000000000000000000000000000000000012
:104EA000013B0000193B0000D13A0000E13A00004C
:104EB000D93A0000E93A0000853A00009D3A000026
:104EC000BD3A0000C53A0000F13A0000F93A00008E
:104ED000553A0000613A00006D3A0000793A00004E
:104EE000293B00000D3B0000000000000000000016
:104EF0000D3C0000253C0000DD3B0000ED3B0000C8
:104F0000E53B0000F53B0000913B0000A93B0000A1
:104F1000C93B0000D13B0000FD3B0000053C000008
:104F2000613B00006D3B0000793B0000853B0000C9
:104F3000353C0000193C00000000000000000000AB
:104F4000193D0000313D0000E93C0000F93C000043
:104F5000F13C0000013D00009D3C0000B53C00001C
:104F6000D53C0000DD3C0000093D0000113D000083
:104F70006D3C0000793C0000853C0000913C000045
:104F8000413D0000253D0000430000001888FF1F40
:104F9000F8B500BFF8BC08BC9E467047ED4900005C
:104FA000350400007D090000091400003D160000D2
:104FB00029290000453B0000513C00005D3D0000F8
:044FC000F8B500BF81
:104FC40000FFFF00FFFFFFFF0000FF00FFFFFF00E7
:104FD40000000000000000000000000000000000CD
:104FE40000000000000000000000010101010205B2
:104FF4000504050606050607070607070808090845
:10500400080C13151516151917151B19181714164E
:105014001B2021170201020408F9EAEBF6F2EAE781
:10502400E8E5DEDBDDDEDCDDDCDAD6D3D0CAC7C6FC
:10503400C6C5C4C5C5C4C5C5C6C6C6C7C8C8C6BD19
:10504400B0ABAAACB9BFC0BFC3CBD4D6CDCFD8EE1A
:10505400FEF8FCFB03171918283833393F424C5724
:10506400595760605A616B6A6C72747373777772A4
:1050740075766F6B706F70716A67635C4E464B4BED
:105084004D524A423F3D373438393535352F292E74
:105094003229231F211E1C1915171A1B18130F0F51
:1050A400121515120F0C06040606050400FE00FE78
:1050B400FBFBFBF8FAFEFCF5F2F3F4F5F4F0EEF08A
:1050C400F3F3EEEAEBEDF0F2F1EEE9E6E5E6E9EA18
:1050D400E7E3E1E0DFE1E6E6DFDCDFE0E0E2E3E2B4
:1050E400DFDCDCDCD8DAE2E5E0D8D6D7D7D6D5D613
:1050F400DBDEDED6CECFD4D7D2CBCDD2D2D0CFCD7D
:10510400CBCACCCECECCC8C7C8CBCECFCDCBC9C3EF
:10511400C2C5C5C6C8C8C8C6C7CAC8C6C7C9CAC919
:10512400C8C6C8CDD0D1CFCECCCACACDCFD2D3D3A6
:10513400D2D3D3D3D5D6D6D4D6D7D9DBDDDDDEE0F2
:10514400DEDCDDE1E4E4E5E5E6E9ECECEDEFF1F3EA
:10515400F5F5F5F7FBFDFF000002040607080A0A4F
:105164000A0C0D0F10101011121416151414151723
:105174001818191A1A19191817191A19191A1A1B99
:105184001B1B1C1C1B1A1B1C1C1B1B1C1C1B1A1969
:10519400191A1A1B1C1D1C1C1D1D1D1B1B1B1A1A56
:1051A4001C1D1D1C1B1A1A1A1A1B1B1B1B1A1B1B4A
:1051B4001A18191A191818191A1918191918181760
:1051C400161616161616151515161515141413128B
:1051D400131313141312121111100E0E0E0E0D0CC4
:1051E4000A09080708080707070604030101010163
:1051F4000100FFFDFDFDFDFDFDFCFBFAFAF9F8F7EA
:10520400F7F7F7F6F6F5F4F4F4F5F6F6F5F4F3F249
:10521400F2F2F3F3F2F1F0F1F1F1F1F0F0F0F0F079
:10522400EFEFF0EFF0F0EFEFEFEFEEEEEEEEEEEE8D
:10523400EDEDEEEEEDECEDEDEDEDECEBEBECECECA1
:10524400ECEBEBEBECEBEBEBECEDEBEAEAEBECEDA4
:10525400ECEBEBEBEAEAEBEDEDEDECEBECECEDEC8F
:10526400ECECECEBEBEBEDEDEDECECEDEEEEEDED73
:10527400ECECEDEDEDEDEDEDECEDEFEFF0EFEFEF50
:10528400EFEFF0F1F2F2F3F4F6F6F5F5F5F6F6F7E2
:10529400F8F8F9F9FAFAFBFBFBFCFDFEFF0000004D
:1052A40000010203030304040404050505060708BA
:1052B40008080708080809090A0B0C0C0C0C0C0D4B
:1052C4000D0D0D0D0E0E0F0F1010101010101010EC
:1052D40010111112121112111111111111111111B8
:1052E400111111100F0F0F0F0F0F0F0F0F10100FC1
:1052F4000F0F0F0E0E0F0F0F0F0F0F0F0F0F0E0FBD
:105304000F10101010100F0F0F0F0F0F100F1010A1
:10531400101011111111111010100F1010100F0F87
:105324000E0E0D0D0C0C0B0B0B0B0A0A09080808CA
:1053340007070606050504030202010100FFFFFF3B
:10534400FEFEFDFDFCFCFCFBFBFBFBFBFBFAFAFA9F
:10535400FAFBFAFAFAFBFAFAFAFAFAFAFAFAFBFBA5
:10536400FBFAFBFBFBFBFBFBFBFBFBFBFBFBFBFA8B
:10537400FAFAFAFAFAFAFAFAFAFAF9F9F9F9F9F98F
:10538400F9F8F8F8F7F7F7F7F7F7F6F6F6F5F5F6AC
:10539400F6F6F5F5F5F5F5F5F5F5F5F5F4F4F4F4BB
:1053A400F4F4F4F4F4F5F5F5F5F4F4F5F5F5F5F6AF
:1053B400F6F6F6F6F6F6F6F6F6F7F7F7F7F7F7F881
:1053C400F8F8F8F8F8F9F9F9FAFAFAFAFAFBFBFB43
:1053D400FBFBFBFBFBFCFCFCFCFCFDFDFDFDFDFD08
:1053E400FEFEFEFEFFFFFFFFFFFFFFFFFFFF0000CB
:1053F40000000001000000000101010101010101A0
:105404000101010101020202020303030303040474
:10541400040404050505050606060707070707082B
:10542400080808080809090909090909090A0A0AEA
:105434000A0A0A0B0B0B0B0B0B0B0B0B0B0B0B0BBB
:105444000B0B0B0B0B0B0B0B0B0B0B0A0A0A0A0AAD
:105454000A0A0A0A0A0A0A0A0909090909090909B0
:1054640009090909080808080808080808080707B6
:1054740007070707070707070606060606060605C1
:1054840005050505050505050504040404040404CF
:1054940003030303030303020202020202010101E4
:1054A40001010101010100000000000000000000F2
:1054B4000000000000FFFF00FFFFFFFFFFFFFFFFF2
:1054C400FEFEFFFEFEFEFEFEFEFEFEFEFEFDFDFDFA
:1054D400FDFDFDFDFCFCFCFCFCFCFCFCFCFCFBFB06
:1054E400FBFBFBFBFBFBFBFBFAFAFAFAFAFAFAF911
:1054F400F9F9F9F9F9F9F8F8F8F8F8F8F8F8F8F822
:10550400F8F8F8F9F9F8F8F9F9F9F9F9F9F9FAFA0A
:10551400FAFAFAFAFAFBFBFBFBFBFBFBFBFBFBFBDC
:10552400FCFCFCFCFCFCFCFCFCFCFCFCFCFCFCFCB7
:10553400FCFCFCFCFCFCFCFCFCFCFCFCFCFCFCFCA7
:10554400FDFDFDFDFDFDFDFDFDFDFDFEFEFEFEFE82
:10555400FEFEFFFFFFFFFFFFFF000000010101014E
:10556400010202020202020303030303030303030F
:1055740003030303030404040404040404040404EC
:1055840004040303030303030303030303030303E5
:1055940003030303030303030404040404040404CF
:1055A40004040505050505050505050506060606A5
:1055B4000606060606060606060606060606060687
:1055C4000606060606060606060606060606060677
:1055D400050505050505050504040404040404047F
:1055E4000404040303030303030303030303030384
:1055F400020202020202020202020202020101018A
:10560400010101010101010000000000000000008F
:105614000000FFFFFFFFFFFFFFFFFFFFFFFFFFFE95
:10562400FEFEFEFEFEFEFEFEFEFEFEFDFDFDFDFD9B
:10563400FDFDFDFDFDFDFDFDFCFCFCFCFCFCFCFC9E
:10564400FCFCFCFCFCFCFCFCFCFCFCFCFCFCFCFC96
:10565400FCFCFCFCFCFCFCFCFCFCFCFCFCFCFCFC86
:10566400FCFCFCFCFCFCFCFCFCFCFCFCFCFCFCFC76
:10567400FCFCFCFCFCFCFCFCFCFCFCFCFCFCFCFC66
:10568400FCFCFCFCFCFCFCFCFCFCFCFCFCFCFCFC56
:10569400FCFCFCFCFCFCFCFCFCFCFDFDFDFDFDFD40
:1056A400FDFDFDFDFDFDFDFEFEFEFEFEFEFEFEFE1D
:1056B400FEFEFEFEFEFFFFFFFFFFFFFFFFFFFFFFFB
:1056C40000000000000000000000000000000101D4
:1056D40001010101010101010101010101010101B6
:1056E40001010101010101010101010101010101A6
:1056F4000101010101010101010101010101010196
:105704000101010101010101010101010101010185
:105714000101010202020202020202020202020268
:105724000202020202020202020202020202020255
:105734000202020202020202020202020202020245
:10574400020202020202020202010101010101013C
:10575400010101010101010101010000000000003B
:105764000000000000000000000000000000000035
:105774000000000000FFFFFFFFFFFFFFFFFFFFFF30
:10578400FFFFFFFFFFFFFFFFFFFFFFFFFFFFFFFF25
:10579400FFFFFFFFFFFFFFFFFFFFFFFFFFFFFFFF15
:1057A400FFFFFFFFFEFEFEFEFEFEFEFEFEFEFEFE11
:1057B400FEFEFEFEFEFEFEFEFEFEFEFEFEFEFEFE05
:1057C400FEFEFEFEFEFEFEFEFFFEFFFEFEFEFEFFF2
:1057D400FFFFFFFFFFFFFFFFFFFFFFFFFFFFFFFFD5
:1057E400FFFFFFFFFFFFFFFFFFFFFFFFFFFFFFFFC5
:1057F400FFFFFFFFFFFFFFFFFFFFFFFFFFFFFFFFB5
:10580400FFFFFFFFFFFFFFFFFFFFFFFFFFFFFFFFA4
:10581400FFFFFFFFFFFFFFFFFFFFFFFFFFFFFFFF94
:10582400FFFFFFFFFFFFFFFFFFFFFFFFFFFFFFFF84
:10583400FFFFFFFFFFFFFFFFFFFFFFFFFFFFFFFF74
:10584400FFFFFFFFFFFFFFFFFFFFFFFFFF00000061
:105854000000000000000000000000000000000044
:105864000000000000000000000000000000000034
:105874000000000000000000000000000000000024
:105884000000000000FFFFFFFFFFFFFFFFFFFFFF1F
:10589400FFFFFFFFFFFFFFFFFFFFFFFFFFFFFFFF14
:1058A400FFFFFFFFFFFFFFFFFFFFFFFFFFFFFFFF04
:1058B400FFFFFFFFFFFFFFFFFFFFFFFFFFFFFFFFF4
:1058C400FFFFFFFFFFFFFFFFFFFFFFFFFFFFFFFFE4
:1058D400FFFFFFFFFFFFFFFFFFFFFFFFFFFFFFFFD4
:1058E400FFFFFFFFFFFFFFFFFFFFFFFFFFFFFFFFC4
:1058F400FFFFFFFFFFFFFFFFFFFFFFFFFFFFFFFFB4
:10590400FFFFFFFFFFFFFFFFFFFFFFFFFFFFFFFFA3
:10591400FFFFFFFFFFFFFFFFFFFFFFFFFFFFFFFF93
:10592400FFFFFFFFFFFFFFFFFFFFFFFFFFFFFFFF83
:10593400FFFFFFFFFFFFFFFFFFFFFFFFFFFFFFFF73
:10594400FFFFFFFFFFFFFFFFFFFFFFFFFFFFFFFF63
:10595400FFFFFFFFFFFFFFFFFFFFFFFFFFFFFFFF53
:10596400FFFFFFFFFFFFFFFFFFFFFFFFFFFFFFFF43
:10597400FFFFFFFFFFFFFFFFFFFFFFFFFFFFFFFF33
:10598400FFFFFFFFFFFFFFFFFFFFFFFFFFFFFFFF23
:10599400FFFFFFFFFFFFFFFFFFFFFFFFFFFFFFFF13
:1059A400FFFFFFFFFFFFFFFFFFFFFFFFFFFFFFFF03
:1059B400FFFFFFFFFFFFFFFFFFFFFFFFFFFFFFFFF3
:1059C400FFFFFFFFFFFFFFFFFFFFFFFFFFFFFFFFE3
:1059D400FFFFFFFFFFFFFFFFFFFFFFFFFFFFFFFFD3
:1059E400FFFFFFFFFFFFFFFFFFFFFFFFFFFFFFFFC3
:1059F400FFFFFFFFFFFFFFFFFFFFFFFFFFFFFFFFB3
:105A0400FFFFFFFFFFFFFFFFFFFFFFFFFFFFFFFFA2
:105A1400FFFFFFFFFFFFFFFFFFFFFFFFFFFFFFFF92
:105A2400FFFFFFFFFFFFFFFFFFFFFFFFFFFFFFFF82
:105A3400FFFFFFFFFFFFFFFFFFFFFFFFFFFFFFFF72
:105A4400FFFFFFFFFFFFFFFFFFFFFFFFFFFFFFFF62
:105A5400FF00FF00FF0000FFFFFFFFFF000000004A
:105A64000000000000000000000000000000000032
:105A74000000000000000000000000000000000022
:105A84000000000000000000000000000000000012
:105A94000000000000000000000000000000000002
:105AA40000000000000000000000000000000000F2
:105AB40000000000000000000000000000000000E2
:105AC40000000000000000000000000000000000D2
:105AD40000000000000000000000000000000000C2
